{
  "address": "0xaCb44Add7F4ca79cc370d2905D3B13B7626601e1",
  "abi": [
    {
      "inputs": [
        {
          "internalType": "address",
          "name": "owner_",
          "type": "address"
        },
        {
          "internalType": "uint256",
          "name": "target_",
          "type": "uint256"
        },
        {
          "internalType": "uint256",
          "name": "deadline_",
          "type": "uint256"
        }
      ],
      "name": "createCrowdfunding",
      "outputs": [
        {
          "internalType": "address",
          "name": "",
          "type": "address"
        }
      ],
      "stateMutability": "nonpayable",
      "type": "function"
    },
    {
      "inputs": [
        {
          "internalType": "address",
          "name": "owner_",
          "type": "address"
        },
        {
          "internalType": "contract IERC1155",
          "name": "token_",
          "type": "address"
        },
        {
          "internalType": "uint256",
          "name": "tokenId_",
          "type": "uint256"
        }
      ],
      "name": "createDistribution",
      "outputs": [
        {
          "internalType": "address",
          "name": "",
          "type": "address"
        }
      ],
      "stateMutability": "nonpayable",
      "type": "function"
    },
    {
      "inputs": [
        {
          "internalType": "address",
          "name": "owner_",
          "type": "address"
        }
      ],
      "name": "createToken",
      "outputs": [
        {
          "internalType": "address",
          "name": "",
          "type": "address"
        }
      ],
      "stateMutability": "nonpayable",
      "type": "function"
    }
  ],
  "transactionHash": "0x8f7a5f0f27acb077d027143d138a95de6238e2b35587e919bf546e762dd75d12",
  "args": [],
  "numDeployments": 1,
  "solcInputHash": "0b9d020a859d3048c6de53979f2f83e8",
  "bytecode": "0x6080604052348015600f57600080fd5b50614b8b8061001f6000396000f3fe608060405234801561001057600080fd5b50600436106100415760003560e01c8063b262356e14610046578063c21ab7f914610075578063dddbc22114610088575b600080fd5b6100596100543660046101a9565b61009b565b6040516001600160a01b03909116815260200160405180910390f35b6100596100833660046101ea565b6100f2565b61005961009636600461020e565b610136565b6000808484846040516100ad9061016a565b6001600160a01b03938416815292909116602083015260408201526060015b604051809103906000f0801580156100e8573d6000803e3d6000fd5b5095945050505050565b6000808260405161010290610177565b6001600160a01b039091168152602001604051809103906000f08015801561012e573d6000803e3d6000fd5b509392505050565b60008084848460405161014890610184565b6001600160a01b039093168352602083019190915260408201526060016100cc565b6115908061024483390190565b612711806117d483390190565b610c7180613ee583390190565b6001600160a01b03811681146101a657600080fd5b50565b6000806000606084860312156101be57600080fd5b83356101c981610191565b925060208401356101d981610191565b929592945050506040919091013590565b6000602082840312156101fc57600080fd5b813561020781610191565b9392505050565b60008060006060848603121561022357600080fd5b833561022e81610191565b9560208501359550604090940135939250505056fe60c060405234801561001057600080fd5b5060405161159038038061159083398101604081905261002f916100f2565b826001600160a01b03811661005e57604051631e4fbdf760e01b81526000600482015260240160405180910390fd5b6100678161008a565b506001600160a01b039190911660805260a052506003805460ff19169055610135565b600080546001600160a01b038381166001600160a01b0319831681178455604051919092169283917f8be0079c531659141344cd1fd0a4f28419497f9722a3daafe3b4186f6b6457e09190a35050565b6001600160a01b03811681146100ef57600080fd5b50565b60008060006060848603121561010757600080fd5b8351610112816100da565b6020850151909350610123816100da565b80925050604084015190509250925092565b60805160a05161141a610176600039600081816101730152818161056d0152610cae0152600081816102f3015281816105a10152610c4d015261141a6000f3fe608060405234801561001057600080fd5b506004361061012c5760003560e01c8063913b722c116100ad578063e4fc6b6d11610071578063e4fc6b6d146102a0578063efeb5e58146102a8578063f23a6e61146102bb578063f2fde38b146102db578063fc0c546a146102ee57600080fd5b8063913b722c14610210578063a961065514610225578063bc197c8114610238578063c19d93fb14610273578063c76a890c1461028d57600080fd5b80633d370b4e116100f45780633d370b4e146101b357806345f0a44f146101c8578063715018a6146101db578063734b2a7c146101e35780638da5cb5b146101eb57600080fd5b806301ffc9a714610131578063065dc4c11461015957806317d70f7c1461016e5780631ca087e7146101a357806334354068146101ab575b600080fd5b61014461013f366004610f7d565b610315565b60405190151581526020015b60405180910390f35b61016c610167366004610ffa565b61034c565b005b6101957f000000000000000000000000000000000000000000000000000000000000000081565b604051908152602001610150565b61016c6104e1565b610195610672565b6101bb6106b7565b604051610150919061106b565b6101956101d63660046110ae565b61070f565b61016c610730565b600154610195565b6000546001600160a01b03165b6040516001600160a01b039091168152602001610150565b610218610744565b60405161015091906110c7565b61016c610233366004610ffa565b6107a5565b61025a610246366004611166565b63bc197c8160e01b98975050505050505050565b6040516001600160e01b03199091168152602001610150565b6003546102809060ff1681565b6040516101509190611265565b61016c61029b366004611273565b61098d565b61016c610bf2565b6101f86102b63660046110ae565b610de9565b61025a6102c93660046112b5565b63f23a6e6160e01b9695505050505050565b61016c6102e936600461132d565b610e13565b6101f87f000000000000000000000000000000000000000000000000000000000000000081565b60006001600160e01b03198216630271189760e51b148061034657506301ffc9a760e01b6001600160e01b03198316145b92915050565b610354610e51565b600060035460ff16600281111561036d5761036d61122d565b146103a057600354604051635b8036d960e11b81526103979160009160ff90911690600401611348565b60405180910390fd5b8281146103c05760405163512509d360e11b815260040160405180910390fd5b60008390036103e2576040516354ff941b60e11b815260040160405180910390fd5b60005b8381101561047e57600085858381811061040157610401611363565b9050602002016020810190610416919061132d565b6001600160a01b03160361043d5760405163d92e233d60e01b815260040160405180910390fd5b82828281811061044f5761044f611363565b9050602002013560000361047657604051631f2a200560e01b815260040160405180910390fd5b6001016103e5565b5061048b60018585610ece565b5061049860028383610f2d565b507fff2b988c0df12e14f5aed85f557edfcc5dae899582c46e4d58103e8a52f81f0f836104c3610672565b6040805192835260208301919091520160405180910390a150505050565b6104e9610e51565b600060035460ff1660028111156105025761050261122d565b1461052c57600354604051635b8036d960e11b81526103979160009160ff90911690600401611348565b60015460000361054f576040516354ff941b60e11b815260040160405180910390fd5b6000610559610672565b604051627eeac760e11b81523060048201527f000000000000000000000000000000000000000000000000000000000000000060248201529091506000906001600160a01b037f0000000000000000000000000000000000000000000000000000000000000000169062fdd58e90604401602060405180830381865afa1580156105e7573d6000803e3d6000fd5b505050506040513d601f19601f8201168201806040525081019061060b9190611379565b9050818110156106385760405163142e249f60e31b81526004810183905260248101829052604401610397565b6003805460ff191660011790556040517f561f4123d190e216d72f80401a4ebed2bc2c56d4b7020246ca435c6d3728efe290600090a15050565b6000805b6002548110156106b3576002818154811061069357610693611363565b9060005260206000200154826106a991906113a8565b9150600101610676565b5090565b6060600280548060200260200160405190810160405280929190818152602001828054801561070557602002820191906000526020600020905b8154815260200190600101908083116106f1575b5050505050905090565b6002818154811061071f57600080fd5b600091825260209091200154905081565b610738610e51565b6107426000610e7e565b565b6060600180548060200260200160405190810160405280929190818152602001828054801561070557602002820191906000526020600020905b81546001600160a01b0316815260019091019060200180831161077e575050505050905090565b6107ad610e51565b600060035460ff1660028111156107c6576107c661122d565b146107f057600354604051635b8036d960e11b81526103979160009160ff90911690600401611348565b8281146108105760405163512509d360e11b815260040160405180910390fd5b6000839003610832576040516354ff941b60e11b815260040160405180910390fd5b60005b8381101561095f57600085858381811061085157610851611363565b9050602002016020810190610866919061132d565b6001600160a01b03160361088d5760405163d92e233d60e01b815260040160405180910390fd5b82828281811061089f5761089f611363565b905060200201356000036108c657604051631f2a200560e01b815260040160405180910390fd5b60018585838181106108da576108da611363565b90506020020160208101906108ef919061132d565b81546001810183556000928352602090922090910180546001600160a01b0319166001600160a01b03909216919091179055600283838381811061093557610935611363565b83546001808201865560009586526020958690209290950293909301359201919091555001610835565b506001547fff2b988c0df12e14f5aed85f557edfcc5dae899582c46e4d58103e8a52f81f0f906104c3610672565b610995610e51565b600060035460ff1660028111156109ae576109ae61122d565b146109d857600354604051635b8036d960e11b81526103979160009160ff90911690600401611348565b60008190036109fa576040516354ff941b60e11b815260040160405180910390fd5b60005b81811015610b9c5760005b600154811015610b9357838383818110610a2457610a24611363565b9050602002016020810190610a39919061132d565b6001600160a01b031660018281548110610a5557610a55611363565b6000918252602090912001546001600160a01b031603610b8b5760018054600091610a7f916113bb565b905060018181548110610a9457610a94611363565b600091825260209091200154600180546001600160a01b039092169184908110610ac057610ac0611363565b9060005260206000200160006101000a8154816001600160a01b0302191690836001600160a01b0316021790555060028181548110610b0157610b01611363565b906000526020600020015460028381548110610b1f57610b1f611363565b6000918252602090912001556001805480610b3c57610b3c6113ce565b600082815260209020810160001990810180546001600160a01b03191690550190556002805480610b6f57610b6f6113ce565b6001900381819060005260206000200160009055905550610b93565b600101610a08565b506001016109fd565b506001547fff2b988c0df12e14f5aed85f557edfcc5dae899582c46e4d58103e8a52f81f0f9080610bce576000610bd6565b610bd6610672565b6040805192835260208301919091520160405180910390a15050565b610bfa610e51565b600160035460ff166002811115610c1357610c1361122d565b14610c3d57600354604051635b8036d960e11b81526103979160019160ff90911690600401611348565b6000805b600154811015610d9c577f00000000000000000000000000000000000000000000000000000000000000006001600160a01b031663f242432a3060018481548110610c8e57610c8e611363565b9060005260206000200160009054906101000a90046001600160a01b03167f000000000000000000000000000000000000000000000000000000000000000060028681548110610ce057610ce0611363565b60009182526020822001546040516001600160e01b031960e088901b1681526001600160a01b0395861660048201529490931660248501526044840191909152606483019190915260a0608483015260a482015260c401600060405180830381600087803b158015610d5157600080fd5b505af1158015610d65573d6000803e3d6000fd5b5050505060028181548110610d7c57610d7c611363565b906000526020600020015482610d9291906113a8565b9150600101610c41565b506003805460ff1916600217905560015460408051918252602082018390527f72f2e17e5286668a3e0be581ddcbc3d5fed31c2072f4e6437566f8fb11164388910160405180910390a150565b60018181548110610df957600080fd5b6000918252602090912001546001600160a01b0316905081565b610e1b610e51565b6001600160a01b038116610e4557604051631e4fbdf760e01b815260006004820152602401610397565b610e4e81610e7e565b50565b6000546001600160a01b031633146107425760405163118cdaa760e01b8152336004820152602401610397565b600080546001600160a01b038381166001600160a01b0319831681178455604051919092169283917f8be0079c531659141344cd1fd0a4f28419497f9722a3daafe3b4186f6b6457e09190a35050565b828054828255906000526020600020908101928215610f21579160200282015b82811115610f215781546001600160a01b0319166001600160a01b03843516178255602090920191600190910190610eee565b506106b3929150610f68565b828054828255906000526020600020908101928215610f21579160200282015b82811115610f21578235825591602001919060010190610f4d565b5b808211156106b35760008155600101610f69565b600060208284031215610f8f57600080fd5b81356001600160e01b031981168114610fa757600080fd5b9392505050565b60008083601f840112610fc057600080fd5b50813567ffffffffffffffff811115610fd857600080fd5b6020830191508360208260051b8501011115610ff357600080fd5b9250929050565b6000806000806040858703121561101057600080fd5b843567ffffffffffffffff81111561102757600080fd5b61103387828801610fae565b909550935050602085013567ffffffffffffffff81111561105357600080fd5b61105f87828801610fae565b95989497509550505050565b602080825282518282018190526000918401906040840190835b818110156110a3578351835260209384019390920191600101611085565b509095945050505050565b6000602082840312156110c057600080fd5b5035919050565b602080825282518282018190526000918401906040840190835b818110156110a35783516001600160a01b03168352602093840193909201916001016110e1565b80356001600160a01b038116811461111f57600080fd5b919050565b60008083601f84011261113657600080fd5b50813567ffffffffffffffff81111561114e57600080fd5b602083019150836020828501011115610ff357600080fd5b60008060008060008060008060a0898b03121561118257600080fd5b61118b89611108565b975061119960208a01611108565b9650604089013567ffffffffffffffff8111156111b557600080fd5b6111c18b828c01610fae565b909750955050606089013567ffffffffffffffff8111156111e157600080fd5b6111ed8b828c01610fae565b909550935050608089013567ffffffffffffffff81111561120d57600080fd5b6112198b828c01611124565b999c989b5096995094979396929594505050565b634e487b7160e01b600052602160045260246000fd5b6003811061126157634e487b7160e01b600052602160045260246000fd5b9052565b602081016103468284611243565b6000806020838503121561128657600080fd5b823567ffffffffffffffff81111561129d57600080fd5b6112a985828601610fae565b90969095509350505050565b60008060008060008060a087890312156112ce57600080fd5b6112d787611108565b95506112e560208801611108565b94506040870135935060608701359250608087013567ffffffffffffffff81111561130f57600080fd5b61131b89828a01611124565b979a9699509497509295939492505050565b60006020828403121561133f57600080fd5b610fa782611108565b604081016113568285611243565b610fa76020830184611243565b634e487b7160e01b600052603260045260246000fd5b60006020828403121561138b57600080fd5b5051919050565b634e487b7160e01b600052601160045260246000fd5b8082018082111561034657610346611392565b8181038181111561034657610346611392565b634e487b7160e01b600052603160045260246000fdfea26469706673582212208a413d7da992fcbd47c81b5697821c149d2b036d1ed48d65a6b1d93e5506883564736f6c634300081e0033608060405234801561001057600080fd5b5060405161271138038061271183398101604081905261002f916100ea565b604080516020810190915260008152819061004981610088565b506001600160a01b03811661007857604051631e4fbdf760e01b81526000600482015260240160405180910390fd5b61008181610098565b5050610277565b600261009482826101b9565b5050565b600380546001600160a01b038381166001600160a01b0319831681179093556040519116919082907f8be0079c531659141344cd1fd0a4f28419497f9722a3daafe3b4186f6b6457e090600090a35050565b6000602082840312156100fc57600080fd5b81516001600160a01b038116811461011357600080fd5b9392505050565b634e487b7160e01b600052604160045260246000fd5b600181811c9082168061014457607f821691505b60208210810361016457634e487b7160e01b600052602260045260246000fd5b50919050565b601f8211156101b457806000526020600020601f840160051c810160208510156101915750805b601f840160051c820191505b818110156101b1576000815560010161019d565b50505b505050565b81516001600160401b038111156101d2576101d261011a565b6101e6816101e08454610130565b8461016a565b6020601f82116001811461021a57600083156102025750848201515b600019600385901b1c1916600184901b1784556101b1565b600084815260208120601f198516915b8281101561024a578785015182556020948501946001909201910161022a565b50848210156102685786840151600019600387901b60f8161c191681555b50505050600190811b01905550565b61248b806102866000396000f3fe608060405234801561001057600080fd5b50600436106101365760003560e01c806376aed2e1116100b8578063d81d0a151161007c578063d81d0a15146102a9578063e985e9c5146102bc578063f242432a146102cf578063f2fde38b146102e2578063f5298aca146102f5578063fd8752651461030857600080fd5b806376aed2e1146102355780638da5cb5b14610255578063a22cb46514610270578063b707522114610283578063d69c37411461029657600080fd5b806333f6832a116100ff57806333f6832a146101cc5780634e1273f4146101f15780636b20c45414610211578063715018a61461022457806375794a3c1461022c57600080fd5b8062fdd58e1461013b57806301ffc9a7146101615780630e89341c14610184578063156e29f6146101a45780632eb2c2d6146101b9575b600080fd5b61014e610149366004611889565b61032b565b6040519081526020015b60405180910390f35b61017461016f3660046118c9565b610353565b6040519015158152602001610158565b6101976101923660046118e6565b6103a3565b6040516101589190611945565b6101b76101b2366004611958565b610461565b005b6101b76101c7366004611ad0565b6104bb565b6101df6101da3660046118e6565b610527565b60405161015896959493929190611b83565b6102046101ff366004611bd0565b610673565b6040516101589190611cd3565b6101b761021f366004611ce6565b61073f565b6101b761079e565b61014e60075481565b6102486102433660046118e6565b6107b2565b6040516101589190611d5d565b6003546040516001600160a01b039091168152602001610158565b6101b761027e366004611ddf565b61098a565b61014e610291366004611e5a565b610999565b6101b76102a4366004611ddf565b610b39565b6101b76102b7366004611f6b565b610ba0565b6101746102ca366004611fef565b610cd4565b6101b76102dd366004612019565b610d02565b6101b76102f0366004612071565b610d61565b6101b7610303366004611958565b610d9f565b610174610316366004612071565b60066020526000908152604090205460ff1681565b6000818152602081815260408083206001600160a01b03861684529091529020545b92915050565b60006001600160e01b03198216636cdb3d1360e11b148061038457506001600160e01b031982166303a24d0760e21b145b8061034d57506301ffc9a760e01b6001600160e01b031983161461034d565b6000818152600560205260408120805460609291906103c19061208c565b80601f01602080910402602001604051908101604052809291908181526020018280546103ed9061208c565b801561043a5780601f1061040f5761010080835404028352916020019161043a565b820191906000526020600020905b81548152906001019060200180831161041d57829003601f168201915b505050505090506000815111156104515792915050565b61045a83610dd5565b9392505050565b610469610e69565b6104738282610e96565b600082815260046020526040812060030180548392906104949084906120dc565b925050819055506104b683838360405180602001604052806000815250610f33565b505050565b336001600160a01b03861681148015906104dc57506104da8682610cd4565b155b156105125760405163711bec9160e11b81526001600160a01b038083166004830152871660248201526044015b60405180910390fd5b61051f8686868686610f90565b505050505050565b6004602052600090815260409020805481906105429061208c565b80601f016020809104026020016040519081016040528092919081815260200182805461056e9061208c565b80156105bb5780601f10610590576101008083540402835291602001916105bb565b820191906000526020600020905b81548152906001019060200180831161059e57829003601f168201915b5050505050908060010180546105d09061208c565b80601f01602080910402602001604051908101604052809291908181526020018280546105fc9061208c565b80156106495780601f1061061e57610100808354040283529160200191610649565b820191906000526020600020905b81548152906001019060200180831161062c57829003601f168201915b50505050600283015460038401546004909401549293909290915060ff8082169161010090041686565b606081518351146106a45781518351604051635b05999160e01b815260048101929092526024820152604401610509565b600083516001600160401b038111156106bf576106bf61198b565b6040519080825280602002602001820160405280156106e8578160200160208202803683370190505b50905060005b8451811015610737576020808202860101516107129060208084028701015161032b565b828281518110610724576107246120ef565b60209081029190910101526001016106ee565b509392505050565b6001600160a01b038316331480159061075f575061075d8333610cd4565b155b1561079357335b60405163711bec9160e11b81526001600160a01b0391821660048201529084166024820152604401610509565b6104b6838383610ff0565b6107a6610e69565b6107b06000611036565b565b6107ef6040518060c00160405280606081526020016060815260200160008152602001600081526020016000151581526020016000151581525090565b600754821061081457604051631c48671b60e21b815260048101839052602401610509565b60008281526004602052604090819020815160c0810190925280548290829061083c9061208c565b80601f01602080910402602001604051908101604052809291908181526020018280546108689061208c565b80156108b55780601f1061088a576101008083540402835291602001916108b5565b820191906000526020600020905b81548152906001019060200180831161089857829003601f168201915b505050505081526020016001820180546108ce9061208c565b80601f01602080910402602001604051908101604052809291908181526020018280546108fa9061208c565b80156109475780601f1061091c57610100808354040283529160200191610947565b820191906000526020600020905b81548152906001019060200180831161092a57829003601f168201915b5050509183525050600282015460208201526003820154604082015260049091015460ff8082161515606084015261010090910416151560809091015292915050565b610995338383611088565b5050565b60006109a3610e69565b600780549060006109b383612105565b909155506040805160e06020601f8e01819004028201810190925260c081018c81529293509182918d908d9081908501838280828437600092019190915250505090825250604080516020601f8c018190048102820181019092528a815291810191908b908b9081908401838280828437600092018290525093855250505060208083018a905260408084018390528715156060850152861515608090940193909352848252600490522081518190610a6c9082612165565b5060208201516001820190610a819082612165565b50604082015160028201556060820151600382015560808201516004909101805460a09093015115156101000261ff00199215159290921661ffff19909316929092171790558315610ae8576000818152600560205260409020610ae6858783612223565b505b807ff676c26b9c29896c1b70c373554a433b7b0bab995b8ac123a29daabbc74d8f388b8b8b8b8b8989604051610b24979695949392919061230b565b60405180910390a29998505050505050505050565b610b41610e69565b6001600160a01b038216600081815260066020908152604091829020805460ff191685151590811790915591519182527f3c3e4e43f0a2c01e5d990cdf7b98df7621d66c8b3a83f802ab7be4d503a18311910160405180910390a25050565b610ba8610e69565b60005b83811015610c5057610bed858583818110610bc857610bc86120ef565b90506020020135848484818110610be157610be16120ef565b90506020020135610e96565b828282818110610bff57610bff6120ef565b9050602002013560046000878785818110610c1c57610c1c6120ef565b9050602002013581526020019081526020016000206003016000828254610c4391906120dc565b9091555050600101610bab565b50610ccd858585808060200260200160405190810160405280939291908181526020018383602002808284376000920191909152505060408051602080890282810182019093528882529093508892508791829185019084908082843760009201829052506040805160208101909152908152925061111e915050565b5050505050565b6001600160a01b03918216600090815260016020908152604080832093909416825291909152205460ff1690565b336001600160a01b0386168114801590610d235750610d218682610cd4565b155b15610d545760405163711bec9160e11b81526001600160a01b03808316600483015287166024820152604401610509565b61051f868686868661115c565b610d69610e69565b6001600160a01b038116610d9357604051631e4fbdf760e01b815260006004820152602401610509565b610d9c81611036565b50565b6001600160a01b0383163314801590610dbf5750610dbd8333610cd4565b155b15610dca5733610766565b6104b68383836111ea565b606060028054610de49061208c565b80601f0160208091040260200160405190810160405280929190818152602001828054610e109061208c565b8015610e5d5780601f10610e3257610100808354040283529160200191610e5d565b820191906000526020600020905b815481529060010190602001808311610e4057829003601f168201915b50505050509050919050565b6003546001600160a01b031633146107b05760405163118cdaa760e01b8152336004820152602401610509565b6007548210610ebb57604051631c48671b60e21b815260048101839052602401610509565b6000828152600460205260409020600281015415801590610eee57508060020154828260030154610eec91906120dc565b115b156104b657828282600301548360020154610f099190612354565b604051631d44f5d560e31b8152600481019390935260248301919091526044820152606401610509565b6001600160a01b038416610f5d57604051632bfa23e760e11b815260006004820152602401610509565b6040805160018082526020820186905281830190815260608201859052608082019092529061051f60008784848761124e565b6001600160a01b038416610fba57604051632bfa23e760e11b815260006004820152602401610509565b6001600160a01b038516610fe357604051626a0d4560e21b815260006004820152602401610509565b610ccd858585858561124e565b6001600160a01b03831661101957604051626a0d4560e21b815260006004820152602401610509565b6104b683600084846040518060200160405280600081525061124e565b600380546001600160a01b038381166001600160a01b0319831681179093556040519116919082907f8be0079c531659141344cd1fd0a4f28419497f9722a3daafe3b4186f6b6457e090600090a35050565b6001600160a01b0382166110b15760405162ced3e160e81b815260006004820152602401610509565b6001600160a01b03838116600081815260016020908152604080832094871680845294825291829020805460ff191686151590811790915591519182527f17307eab39ab6107e8899845ad3d59bd9653f200f220920489ca2b5937696c31910160405180910390a3505050565b6001600160a01b03841661114857604051632bfa23e760e11b815260006004820152602401610509565b61115660008585858561124e565b50505050565b6001600160a01b03841661118657604051632bfa23e760e11b815260006004820152602401610509565b6001600160a01b0385166111af57604051626a0d4560e21b815260006004820152602401610509565b604080516001808252602082018690528183019081526060820185905260808201909252906111e1878784848761124e565b50505050505050565b6001600160a01b03831661121357604051626a0d4560e21b815260006004820152602401610509565b604080516001808252602082018590528183019081526060820184905260a08201909252600060808201818152919291610ccd918791859085905b61125a858585856112a1565b6001600160a01b03841615610ccd5782513390600103611293576020848101519084015161128c83898985858961144c565b505061051f565b61051f818787878787611570565b6001600160a01b0384161560006112c06003546001600160a01b031690565b6001600160a01b0316336001600160a01b031614806112ee57503360009081526006602052604090205460ff165b9050811580156112fc575080155b15611440576001600160a01b0385161560005b855181101561143d5760075486828151811061132d5761132d6120ef565b6020026020010151106113705785818151811061134c5761134c6120ef565b6020026020010151604051631c48671b60e21b815260040161050991815260200190565b600060046000888481518110611388576113886120ef565b60200260200101518152602001908152602001600020905082156113f2576004810154610100900460ff166113ed578682815181106113c9576113c96120ef565b60200260200101516040516339d096e760e11b815260040161050991815260200190565b611434565b600481015460ff1661143457868281518110611410576114106120ef565b602002602001015160405163d9e1288960e01b815260040161050991815260200190565b5060010161130f565b50505b61051f86868686611659565b6001600160a01b0384163b1561051f5760405163f23a6e6160e01b81526001600160a01b0385169063f23a6e61906114909089908990889088908890600401612367565b6020604051808303816000875af19250505080156114cb575060408051601f3d908101601f191682019092526114c8918101906123ac565b60015b611534573d8080156114f9576040519150601f19603f3d011682016040523d82523d6000602084013e6114fe565b606091505b50805160000361152c57604051632bfa23e760e11b81526001600160a01b0386166004820152602401610509565b805181602001fd5b6001600160e01b0319811663f23a6e6160e01b146111e157604051632bfa23e760e11b81526001600160a01b0386166004820152602401610509565b6001600160a01b0384163b1561051f5760405163bc197c8160e01b81526001600160a01b0385169063bc197c81906115b490899089908890889088906004016123c9565b6020604051808303816000875af19250505080156115ef575060408051601f3d908101601f191682019092526115ec918101906123ac565b60015b61161d573d8080156114f9576040519150601f19603f3d011682016040523d82523d6000602084013e6114fe565b6001600160e01b0319811663bc197c8160e01b146111e157604051632bfa23e760e11b81526001600160a01b0386166004820152602401610509565b80518251146116885781518151604051635b05999160e01b815260048101929092526024820152604401610509565b3360005b835181101561178e576020818102858101820151908501909101516001600160a01b0388161561173f576000828152602081815260408083206001600160a01b038c16845290915290205481811015611718576040516303dee4c560e01b81526001600160a01b038a166004820152602481018290526044810183905260648101849052608401610509565b6000838152602081815260408083206001600160a01b038d16845290915290209082900390555b6001600160a01b03871615611784576000828152602081815260408083206001600160a01b038b1684529091528120805483929061177e9084906120dc565b90915550505b505060010161168c565b50825160010361180f5760208301516000906020840151909150856001600160a01b0316876001600160a01b0316846001600160a01b03167fc3d58168c5ae7397731d063d5bbf3d657854427343f4c083240f7aacaa2d0f628585604051611800929190918252602082015260400190565b60405180910390a45050610ccd565b836001600160a01b0316856001600160a01b0316826001600160a01b03167f4a39dc06d4c0dbc64b70af90fd698a233a518aa5d07e595d983b8c0526c8f7fb868660405161185e929190612427565b60405180910390a45050505050565b80356001600160a01b038116811461188457600080fd5b919050565b6000806040838503121561189c57600080fd5b6118a58361186d565b946020939093013593505050565b6001600160e01b031981168114610d9c57600080fd5b6000602082840312156118db57600080fd5b813561045a816118b3565b6000602082840312156118f857600080fd5b5035919050565b6000815180845260005b8181101561192557602081850181015186830182015201611909565b506000602082860101526020601f19601f83011685010191505092915050565b60208152600061045a60208301846118ff565b60008060006060848603121561196d57600080fd5b6119768461186d565b95602085013595506040909401359392505050565b634e487b7160e01b600052604160045260246000fd5b604051601f8201601f191681016001600160401b03811182821017156119c9576119c961198b565b604052919050565b60006001600160401b038211156119ea576119ea61198b565b5060051b60200190565b600082601f830112611a0557600080fd5b8135611a18611a13826119d1565b6119a1565b8082825260208201915060208360051b860101925085831115611a3a57600080fd5b602085015b83811015611a57578035835260209283019201611a3f565b5095945050505050565b600082601f830112611a7257600080fd5b81356001600160401b03811115611a8b57611a8b61198b565b611a9e601f8201601f19166020016119a1565b818152846020838601011115611ab357600080fd5b816020850160208301376000918101602001919091529392505050565b600080600080600060a08688031215611ae857600080fd5b611af18661186d565b9450611aff6020870161186d565b935060408601356001600160401b03811115611b1a57600080fd5b611b26888289016119f4565b93505060608601356001600160401b03811115611b4257600080fd5b611b4e888289016119f4565b92505060808601356001600160401b03811115611b6a57600080fd5b611b7688828901611a61565b9150509295509295909350565b60c081526000611b9660c08301896118ff565b8281036020840152611ba881896118ff565b6040840197909752505060608101939093529015156080830152151560a09091015292915050565b60008060408385031215611be357600080fd5b82356001600160401b03811115611bf957600080fd5b8301601f81018513611c0a57600080fd5b8035611c18611a13826119d1565b8082825260208201915060208360051b850101925087831115611c3a57600080fd5b6020840193505b82841015611c6357611c528461186d565b825260209384019390910190611c41565b945050505060208301356001600160401b03811115611c8157600080fd5b611c8d858286016119f4565b9150509250929050565b600081518084526020840193506020830160005b82811015611cc9578151865260209586019590910190600101611cab565b5093949350505050565b60208152600061045a6020830184611c97565b600080600060608486031215611cfb57600080fd5b611d048461186d565b925060208401356001600160401b03811115611d1f57600080fd5b611d2b868287016119f4565b92505060408401356001600160401b03811115611d4757600080fd5b611d53868287016119f4565b9150509250925092565b602081526000825160c06020840152611d7960e08401826118ff565b90506020840151601f19848303016040850152611d9682826118ff565b91505060408401516060840152606084015160808401526080840151151560a084015260a0840151151560c08401528091505092915050565b8035801515811461188457600080fd5b60008060408385031215611df257600080fd5b611dfb8361186d565b9150611e0960208401611dcf565b90509250929050565b60008083601f840112611e2457600080fd5b5081356001600160401b03811115611e3b57600080fd5b602083019150836020828501011115611e5357600080fd5b9250929050565b600080600080600080600080600060c08a8c031215611e7857600080fd5b89356001600160401b03811115611e8e57600080fd5b611e9a8c828d01611e12565b909a5098505060208a01356001600160401b03811115611eb957600080fd5b611ec58c828d01611e12565b90985096505060408a0135945060608a01356001600160401b03811115611eeb57600080fd5b611ef78c828d01611e12565b9095509350611f0a905060808b01611dcf565b9150611f1860a08b01611dcf565b90509295985092959850929598565b60008083601f840112611f3957600080fd5b5081356001600160401b03811115611f5057600080fd5b6020830191508360208260051b8501011115611e5357600080fd5b600080600080600060608688031215611f8357600080fd5b611f8c8661186d565b945060208601356001600160401b03811115611fa757600080fd5b611fb388828901611f27565b90955093505060408601356001600160401b03811115611fd257600080fd5b611fde88828901611f27565b969995985093965092949392505050565b6000806040838503121561200257600080fd5b61200b8361186d565b9150611e096020840161186d565b600080600080600060a0868803121561203157600080fd5b61203a8661186d565b94506120486020870161186d565b9350604086013592506060860135915060808601356001600160401b03811115611b6a57600080fd5b60006020828403121561208357600080fd5b61045a8261186d565b600181811c908216806120a057607f821691505b6020821081036120c057634e487b7160e01b600052602260045260246000fd5b50919050565b634e487b7160e01b600052601160045260246000fd5b8082018082111561034d5761034d6120c6565b634e487b7160e01b600052603260045260246000fd5b600060018201612117576121176120c6565b5060010190565b601f8211156104b657806000526020600020601f840160051c810160208510156121455750805b601f840160051c820191505b81811015610ccd5760008155600101612151565b81516001600160401b0381111561217e5761217e61198b565b6121928161218c845461208c565b8461211e565b6020601f8211600181146121c657600083156121ae5750848201515b600019600385901b1c1916600184901b178455610ccd565b600084815260208120601f198516915b828110156121f657878501518255602094850194600190920191016121d6565b50848210156122145786840151600019600387901b60f8161c191681555b50505050600190811b01905550565b6001600160401b0383111561223a5761223a61198b565b61224e83612248835461208c565b8361211e565b6000601f841160018114612282576000851561226a5750838201355b600019600387901b1c1916600186901b178355610ccd565b600083815260209020601f19861690835b828110156122b35786850135825560209485019460019092019101612293565b50868210156122d05760001960f88860031b161c19848701351681555b505060018560011b0183555050505050565b81835281816020850137506000828201602090810191909152601f909101601f19169091010190565b60a08152600061231f60a08301898b6122e2565b828103602084015261233281888a6122e2565b6040840196909652505091151560608301521515608090910152949350505050565b8181038181111561034d5761034d6120c6565b6001600160a01b03868116825285166020820152604081018490526060810183905260a0608082018190526000906123a1908301846118ff565b979650505050505050565b6000602082840312156123be57600080fd5b815161045a816118b3565b6001600160a01b0386811682528516602082015260a0604082018190526000906123f590830186611c97565b82810360608401526124078186611c97565b9050828103608084015261241b81856118ff565b98975050505050505050565b60408152600061243a6040830185611c97565b828103602084015261244c8185611c97565b9594505050505056fea264697066735822122078e32512be5664d8f1ba885770f896549f3fe26a21c4410148d361194f7aa2e964736f6c634300081e003360c060405234801561001057600080fd5b50604051610c71380380610c7183398101604081905261002f91610115565b826001600160a01b03811661005e57604051631e4fbdf760e01b81526000600482015260240160405180910390fd5b610067816100c5565b5081600003610089576040516346c2cca160e01b815260040160405180910390fd5b4281116100a95760405163017d800b60e71b815260040160405180910390fd5b60809190915260a052506000805460ff60a01b19169055610158565b600080546001600160a01b038381166001600160a01b0319831681178455604051919092169283917f8be0079c531659141344cd1fd0a4f28419497f9722a3daafe3b4186f6b6457e09190a35050565b60008060006060848603121561012a57600080fd5b83516001600160a01b038116811461014157600080fd5b602085015160409095015190969495509392505050565b60805160a051610ae661018b600039600081816101090152610834015260008181610248015261091a0152610ae66000f3fe6080604052600436106100dd5760003560e01c80638da5cb5b1161007f578063d411eccb11610059578063d411eccb14610236578063d7bb99ba1461026a578063ea8a1af014610272578063f2fde38b1461028757600080fd5b80638da5cb5b146101ca578063c19d93fb146101f2578063c5c4744c1461022057600080fd5b80634baa6633116100bb5780634baa66331461016b57806351cff8d914610180578063590e1ae3146101a0578063715018a6146101b557600080fd5b806310718655146100e257806329dcb0cf146100f757806342e94c901461013e575b600080fd5b6100f56100f03660046109dd565b6102a7565b005b34801561010357600080fd5b5061012b7f000000000000000000000000000000000000000000000000000000000000000081565b6040519081526020015b60405180910390f35b34801561014a57600080fd5b5061012b6101593660046109dd565b60016020526000908152604090205481565b34801561017757600080fd5b506100f56102e2565b34801561018c57600080fd5b506100f561019b3660046109dd565b610435565b3480156101ac57600080fd5b506100f561055c565b3480156101c157600080fd5b506100f56106a3565b3480156101d657600080fd5b506000546040516001600160a01b039091168152602001610135565b3480156101fe57600080fd5b5060005461021390600160a01b900460ff1681565b6040516101359190610a45565b34801561022c57600080fd5b5061012b60025481565b34801561024257600080fd5b5061012b7f000000000000000000000000000000000000000000000000000000000000000081565b6100f56106b7565b34801561027e57600080fd5b506100f56106c0565b34801561029357600080fd5b506100f56102a23660046109dd565b61077d565b6102af6107b8565b6001600160a01b0381166102d65760405163d92e233d60e01b815260040160405180910390fd5b6102df816107e5565b50565b60008054600160a01b900460ff16600381111561030157610301610a0d565b146103385760008054604051635b8036d960e11b815261032f9291600160a01b900460ff1690600401610a59565b60405180910390fd5b336000908152600160205260408120549081900361036957604051631971fbf360e21b815260040160405180910390fd5b3360009081526001602052604081208190556002805483929061038d908490610a8a565b9091555050604051600090339083908381818185875af1925050503d80600081146103d4576040519150601f19603f3d011682016040523d82523d6000602084013e6103d9565b606091505b50509050806103fb576040516312171d8360e31b815260040160405180910390fd5b60405182815233907f04afcb3eeb2fb7c24d9c75ee5d4d28aad4a0e6818184a05a2d4655081f474e1c906020015b60405180910390a25050565b61043d6107b8565b6001600054600160a01b900460ff16600381111561045d5761045d610a0d565b1461048f576001600060149054906101000a900460ff16604051635b8036d960e11b815260040161032f929190610a59565b6000805460ff60a01b1916600160a11b1781556040514791906001600160a01b0384169083908381818185875af1925050503d80600081146104ed576040519150601f19603f3d011682016040523d82523d6000602084013e6104f2565b606091505b5050905080610514576040516312171d8360e31b815260040160405180910390fd5b826001600160a01b03167feaff4b37086828766ad3268786972c0cd24259d4c87a80f9d3963a3c3d999b0d8360405161054f91815260200190565b60405180910390a2505050565b6003600054600160a01b900460ff16600381111561057c5761057c610a0d565b146105ae576003600060149054906101000a900460ff16604051635b8036d960e11b815260040161032f929190610a59565b33600090815260016020526040812054908190036105df57604051631971fbf360e21b815260040160405180910390fd5b33600090815260016020526040812081905560028054839290610603908490610a8a565b9091555050604051600090339083908381818185875af1925050503d806000811461064a576040519150601f19603f3d011682016040523d82523d6000602084013e61064f565b606091505b5050905080610671576040516312171d8360e31b815260040160405180910390fd5b60405182815233907f358fe4192934d3bf28ae181feda1f4bd08ca67f5e2fad55582cce5eb67304ae990602001610429565b6106ab6107b8565b6106b5600061098d565b565b6106b5336107e5565b6106c86107b8565b60008054600160a01b900460ff1660038111156106e7576106e7610a0d565b1415801561071357506001600054600160a01b900460ff16600381111561071057610710610a0d565b14155b156107415760008054604051635b8036d960e11b815261032f9291600160a01b900460ff1690600401610a59565b6000805460ff60a01b1916600360a01b1781556040517f1092e2d5752fbb9f89949020aefa32ce9c031f979d0bd37e7746ee2c565a55b19190a1565b6107856107b8565b6001600160a01b0381166107af57604051631e4fbdf760e01b81526000600482015260240161032f565b6102df8161098d565b6000546001600160a01b031633146106b55760405163118cdaa760e01b815233600482015260240161032f565b60008054600160a01b900460ff16600381111561080457610804610a0d565b146108325760008054604051635b8036d960e11b815261032f9291600160a01b900460ff1690600401610a59565b7f00000000000000000000000000000000000000000000000000000000000000004211156108735760405163387b2e5560e11b815260040160405180910390fd5b3460000361089457604051631971fbf360e21b815260040160405180910390fd5b6001600160a01b038116600090815260016020526040812080543492906108bc908490610a9d565b9250508190555034600260008282546108d59190610a9d565b90915550506040513481526001600160a01b038216907f1bb460ccaaf70fbacfec17a376f8acbd278c1405590ffcc8ebe4b88daf4f64ad9060200160405180910390a27f0000000000000000000000000000000000000000000000000000000000000000600254106102df576000805460ff60a01b1916600160a01b1790556002546040519081527f34a27240c509ddb8affca51dd0b4489bbc6644bdd6af1bb7893b16c5d875edb69060200160405180910390a150565b600080546001600160a01b038381166001600160a01b0319831681178455604051919092169283917f8be0079c531659141344cd1fd0a4f28419497f9722a3daafe3b4186f6b6457e09190a35050565b6000602082840312156109ef57600080fd5b81356001600160a01b0381168114610a0657600080fd5b9392505050565b634e487b7160e01b600052602160045260246000fd5b60048110610a4157634e487b7160e01b600052602160045260246000fd5b9052565b60208101610a538284610a23565b92915050565b60408101610a678285610a23565b610a066020830184610a23565b634e487b7160e01b600052601160045260246000fd5b81810381811115610a5357610a53610a74565b80820180821115610a5357610a53610a7456fea264697066735822122079e4f2fe7309d45851f57462b4789f8134fe98719b2a5b8113210383988dce7e64736f6c634300081e0033a26469706673582212205cde705d04c26c05ef73d3a2327905cc4f1e8ea77a3f5dcbfc1d1a9af1df743f64736f6c634300081e0033",
  "devdoc": {
    "kind": "dev",
    "methods": {},
    "title": "CGComponentFactory — Deploys CGToken, CGCrowdfunding and CGDistribution instances",
    "version": 1
  },
  "userdoc": {
    "kind": "user",
    "methods": {},
    "notice": "Extracted so CGProgram does not embed child-contract creation bytecode,         keeping every contract under the 24 KB Spurious Dragon limit.",
    "version": 1
  },
  "storageLayout": {
    "storage": [],
    "types": null
  }
}