{
  "address": "0x3F4331C1b059A7ED05c96aD1CD0802b00Bfd65f0",
  "abi": [
    {
      "inputs": [
        {
          "internalType": "address",
          "name": "owner_",
          "type": "address"
        },
        {
          "internalType": "address",
          "name": "token_",
          "type": "address"
        },
        {
          "internalType": "uint256",
          "name": "target_",
          "type": "uint256"
        },
        {
          "internalType": "uint256",
          "name": "deadline_",
          "type": "uint256"
        }
      ],
      "name": "createCrowdfunding",
      "outputs": [
        {
          "internalType": "address",
          "name": "",
          "type": "address"
        }
      ],
      "stateMutability": "nonpayable",
      "type": "function"
    },
    {
      "inputs": [
        {
          "internalType": "address",
          "name": "owner_",
          "type": "address"
        },
        {
          "internalType": "contract IERC1155",
          "name": "token_",
          "type": "address"
        },
        {
          "internalType": "uint256",
          "name": "tokenId_",
          "type": "uint256"
        }
      ],
      "name": "createDistribution",
      "outputs": [
        {
          "internalType": "address",
          "name": "",
          "type": "address"
        }
      ],
      "stateMutability": "nonpayable",
      "type": "function"
    },
    {
      "inputs": [
        {
          "internalType": "address",
          "name": "owner_",
          "type": "address"
        }
      ],
      "name": "createToken",
      "outputs": [
        {
          "internalType": "address",
          "name": "",
          "type": "address"
        }
      ],
      "stateMutability": "nonpayable",
      "type": "function"
    }
  ],
  "transactionHash": "0x945b26433a3db47fec6820c0213c264d072cdda462ca7f8996f4f56ab61e1e83",
  "args": [],
  "numDeployments": 2,
  "solcInputHash": "9752957685c8f22b31341db07e672069",
  "bytecode": "0x6080604052348015600f57600080fd5b506157648061001f6000396000f3fe608060405234801561001057600080fd5b50600436106100415760003560e01c8063741d0e1014610046578063b262356e14610075578063c21ab7f914610088575b600080fd5b6100596100543660046101d1565b61009b565b6040516001600160a01b03909116815260200160405180910390f35b610059610083366004610217565b6100f8565b610059610096366004610258565b61014e565b600080858585856040516100ae90610192565b6001600160a01b03948516815293909216602084015260408301526060820152608001604051809103906000f0801580156100ed573d6000803e3d6000fd5b509695505050505050565b60008084848460405161010a9061019f565b6001600160a01b0393841681529290911660208301526040820152606001604051809103906000f080158015610144573d6000803e3d6000fd5b5095945050505050565b6000808260405161015e906101ac565b6001600160a01b039091168152602001604051809103906000f08015801561018a573d6000803e3d6000fd5b509392505050565b6116da8061027d83390190565b6116c78061195783390190565b6127118061301e83390190565b6001600160a01b03811681146101ce57600080fd5b50565b600080600080608085870312156101e757600080fd5b84356101f2816101b9565b93506020850135610202816101b9565b93969395505050506040820135916060013590565b60008060006060848603121561022c57600080fd5b8335610237816101b9565b92506020840135610247816101b9565b929592945050506040919091013590565b60006020828403121561026a57600080fd5b8135610275816101b9565b939250505056fe60e060405234801561001057600080fd5b506040516116da3803806116da83398101604081905261002f91610164565b836001600160a01b03811661005e57604051631e4fbdf760e01b81526000600482015260240160405180910390fd5b610067816100f8565b506001600160a01b03831661008f5760405163d92e233d60e01b815260040160405180910390fd5b816000036100b0576040516346c2cca160e01b815260040160405180910390fd5b4281116100d05760405163017d800b60e71b815260040160405180910390fd5b6001600160a01b039290921660805260a05260c052506000805460ff60a01b191690556101a7565b600080546001600160a01b038381166001600160a01b0319831681178455604051919092169283917f8be0079c531659141344cd1fd0a4f28419497f9722a3daafe3b4186f6b6457e09190a35050565b80516001600160a01b038116811461015f57600080fd5b919050565b6000806000806080858703121561017a57600080fd5b61018385610148565b935061019160208601610148565b6040860151606090960151949790965092505050565b60805160a05160c051611494610246600039600081816101410152610e540152600081816102790152818161052c01526108c50152600081816102e1015281816103c1015281816104b501528181610590015281816106b8015281816107790152818161083d0152818161098c01528181610a3501528181610ae401528181610b8f01528181610ecc01528181610f4e0152610f9801526114946000f3fe608060405234801561001057600080fd5b50600436106101375760003560e01c80637fa9ce15116100b8578063d411eccb1161007c578063d411eccb14610274578063ea8a1af01461029b578063f14faf6f146102a3578063f2fde38b146102b6578063fa493438146102c9578063fc0c546a146102dc57600080fd5b80637fa9ce1514610200578063884fc7c1146102135780638da5cb5b14610226578063c19d93fb1461024b578063c5c4744c1461026c57600080fd5b806351cff8d9116100ff57806351cff8d9146101b2578063590e1ae3146101c55780635a0a04d9146101cd578063715018a6146101e05780637c654303146101e857600080fd5b806329dcb0cf1461013c57806342e94c90146101765780634b319713146101965780634baa66331461019f578063514ffd1e146101a9575b600080fd5b6101637f000000000000000000000000000000000000000000000000000000000000000081565b6040519081526020015b60405180910390f35b6101636101843660046112aa565b60016020526000908152604090205481565b61016360035481565b6101a7610303565b005b61016360025481565b6101a76101c03660046112aa565b610421565b6101a76105fe565b6101a76101db3660046112c5565b610711565b6101a76108ad565b6101f06108c1565b604051901515815260200161016d565b6101a761020e3660046112aa565b6108f3565b6101a76102213660046112ef565b610aa4565b6000546001600160a01b03165b6040516001600160a01b03909116815260200161016d565b60005461025f90600160a01b900460ff1681565b60405161016d9190611376565b610163610b53565b6101637f000000000000000000000000000000000000000000000000000000000000000081565b6101a7610c0e565b6101a76102b1366004611384565b610c9f565b6101a76102c43660046112aa565b610cac565b6101a76102d73660046112c5565b610ce7565b6102337f000000000000000000000000000000000000000000000000000000000000000081565b60008054600160a01b900460ff1660028111156103225761032261133e565b146103595760008054604051635b8036d960e11b81526103509291600160a01b900460ff169060040161139d565b60405180910390fd5b336000908152600160205260408120549081900361038a57604051631971fbf360e21b815260040160405180910390fd5b336000908152600160205260408120819055600280548392906103ae9084906113ce565b909155506103e890506001600160a01b037f0000000000000000000000000000000000000000000000000000000000000000163383610d24565b60405181815233907f04afcb3eeb2fb7c24d9c75ee5d4d28aad4a0e6818184a05a2d4655081f474e1c906020015b60405180910390a250565b610429610d88565b60008054600160a01b900460ff1660028111156104485761044861133e565b146104765760008054604051635b8036d960e11b81526103509291600160a01b900460ff169060040161139d565b6001600160a01b03811661049d5760405163d92e233d60e01b815260040160405180910390fd5b6040516370a0823160e01b81523060048201526000907f00000000000000000000000000000000000000000000000000000000000000006001600160a01b0316906370a0823190602401602060405180830381865afa158015610504573d6000803e3d6000fd5b505050506040513d601f19601f8201168201806040525081019061052891906113e1565b90507f000000000000000000000000000000000000000000000000000000000000000081101561056b57604051631acdbcc360e21b815260040160405180910390fd5b6000805460ff60a01b1916600160a01b17905560038190556105b76001600160a01b037f0000000000000000000000000000000000000000000000000000000000000000168383610d24565b816001600160a01b03167feaff4b37086828766ad3268786972c0cd24259d4c87a80f9d3963a3c3d999b0d826040516105f291815260200190565b60405180910390a25050565b6002600054600160a01b900460ff16600281111561061e5761061e61133e565b14610650576002600060149054906101000a900460ff16604051635b8036d960e11b815260040161035092919061139d565b336000908152600160205260408120549081900361068157604051631971fbf360e21b815260040160405180910390fd5b336000908152600160205260408120819055600280548392906106a59084906113ce565b909155506106df90506001600160a01b037f0000000000000000000000000000000000000000000000000000000000000000163383610d24565b60405181815233907f358fe4192934d3bf28ae181feda1f4bd08ca67f5e2fad55582cce5eb67304ae990602001610416565b610719610d88565b6001600160a01b0382166107405760405163d92e233d60e01b815260040160405180910390fd5b80600003610761576040516388edfc1160e01b815260040160405180910390fd5b6040516370a0823160e01b81523060048201526000907f00000000000000000000000000000000000000000000000000000000000000006001600160a01b0316906370a0823190602401602060405180830381865afa1580156107c8573d6000803e3d6000fd5b505050506040513d601f19601f820116820180604052508101906107ec91906113e1565b90506000600254821161080057600061080d565b60025461080d90836113ce565b905080831115610830576040516388edfc1160e01b815260040160405180910390fd5b6108646001600160a01b037f0000000000000000000000000000000000000000000000000000000000000000168585610d24565b836001600160a01b03167fe55a554217ee4d74156e1ab0d60a06f459aad59fb9f2b2d0ac0f397d2d6a8bdd8460405161089f91815260200190565b60405180910390a250505050565b6108b5610d88565b6108bf6000610db5565b565b60007f00000000000000000000000000000000000000000000000000000000000000006108ec610b53565b1015905090565b6108fb610d88565b6002600054600160a01b900460ff16600281111561091b5761091b61133e565b1461094d576002600060149054906101000a900460ff16604051635b8036d960e11b815260040161035092919061139d565b6001600160a01b0381166109745760405163d92e233d60e01b815260040160405180910390fd5b6040516370a0823160e01b81523060048201526000907f00000000000000000000000000000000000000000000000000000000000000006001600160a01b0316906370a0823190602401602060405180830381865afa1580156109db573d6000803e3d6000fd5b505050506040513d601f19601f820116820180604052508101906109ff91906113e1565b90506002548111610a2357604051630d44987f60e21b815260040160405180910390fd5b6002548103610a5c6001600160a01b037f0000000000000000000000000000000000000000000000000000000000000000168483610d24565b826001600160a01b03167f99376b34ecf6e13d86cc69ce8f7c09f5a42a89e5c192087277e0fd79378e27b982604051610a9791815260200190565b60405180910390a2505050565b60405163d505accf60e01b8152336004820152306024820152604481018690526064810185905260ff8416608482015260a4810183905260c481018290527f00000000000000000000000000000000000000000000000000000000000000006001600160a01b03169063d505accf9060e401600060405180830381600087803b158015610b3057600080fd5b505af1925050508015610b41575060015b50610b4c3386610e05565b5050505050565b60006001600054600160a01b900460ff166002811115610b7557610b7561133e565b14610c07576040516370a0823160e01b81523060048201527f00000000000000000000000000000000000000000000000000000000000000006001600160a01b0316906370a0823190602401602060405180830381865afa158015610bde573d6000803e3d6000fd5b505050506040513d601f19601f82011682018060405250810190610c0291906113e1565b905090565b5060035490565b610c16610d88565b60008054600160a01b900460ff166002811115610c3557610c3561133e565b14610c635760008054604051635b8036d960e11b81526103509291600160a01b900460ff169060040161139d565b6000805460ff60a01b1916600160a11b1781556040517f1092e2d5752fbb9f89949020aefa32ce9c031f979d0bd37e7746ee2c565a55b19190a1565b610ca93382610e05565b50565b610cb4610d88565b6001600160a01b038116610cde57604051631e4fbdf760e01b815260006004820152602401610350565b610ca981610db5565b610cef610d88565b6001600160a01b038216610d165760405163d92e233d60e01b815260040160405180910390fd5b610d208282610e05565b5050565b6040516001600160a01b03838116602483015260448201839052610d8391859182169063a9059cbb906064015b604051602081830303815290604052915060e01b6020820180516001600160e01b0383818316178352505050506110b1565b505050565b6000546001600160a01b031633146108bf5760405163118cdaa760e01b8152336004820152602401610350565b600080546001600160a01b038381166001600160a01b0319831681178455604051919092169283917f8be0079c531659141344cd1fd0a4f28419497f9722a3daafe3b4186f6b6457e09190a35050565b60008054600160a01b900460ff166002811115610e2457610e2461133e565b14610e525760008054604051635b8036d960e11b81526103509291600160a01b900460ff169060040161139d565b7f0000000000000000000000000000000000000000000000000000000000000000421115610e935760405163387b2e5560e11b815260040160405180910390fd5b80600003610eb457604051631971fbf360e21b815260040160405180910390fd5b6040516370a0823160e01b81523060048201526000907f00000000000000000000000000000000000000000000000000000000000000006001600160a01b0316906370a0823190602401602060405180830381865afa158015610f1b573d6000803e3d6000fd5b505050506040513d601f19601f82011682018060405250810190610f3f91906113e1565b9050610f766001600160a01b037f000000000000000000000000000000000000000000000000000000000000000016333085611114565b6040516370a0823160e01b815230600482015260009082906001600160a01b037f000000000000000000000000000000000000000000000000000000000000000016906370a0823190602401602060405180830381865afa158015610fdf573d6000803e3d6000fd5b505050506040513d601f19601f8201168201806040525081019061100391906113e1565b61100d91906113ce565b90508060000361103057604051634168cf8d60e01b815260040160405180910390fd5b6001600160a01b038416600090815260016020526040812080548392906110589084906113fa565b92505081905550806002600082825461107191906113fa565b90915550506040518181526001600160a01b038516907f1bb460ccaaf70fbacfec17a376f8acbd278c1405590ffcc8ebe4b88daf4f64ad9060200161089f565b60006110c66001600160a01b03841683611153565b905080516000141580156110eb5750808060200190518101906110e9919061140d565b155b15610d8357604051635274afe760e01b81526001600160a01b0384166004820152602401610350565b6040516001600160a01b03848116602483015283811660448301526064820183905261114d9186918216906323b872dd90608401610d51565b50505050565b60606111618383600061116a565b90505b92915050565b60608147101561118f5760405163cd78605960e01b8152306004820152602401610350565b600080856001600160a01b031684866040516111ab919061142f565b60006040518083038185875af1925050503d80600081146111e8576040519150601f19603f3d011682016040523d82523d6000602084013e6111ed565b606091505b50915091506111fd868383611209565b925050505b9392505050565b60608261121e5761121982611265565b611202565b815115801561123557506001600160a01b0384163b155b1561125e57604051639996b31560e01b81526001600160a01b0385166004820152602401610350565b5080611202565b8051156112755780518082602001fd5b604051630a12f52160e11b815260040160405180910390fd5b80356001600160a01b03811681146112a557600080fd5b919050565b6000602082840312156112bc57600080fd5b6111618261128e565b600080604083850312156112d857600080fd5b6112e18361128e565b946020939093013593505050565b600080600080600060a0868803121561130757600080fd5b8535945060208601359350604086013560ff8116811461132657600080fd5b94979396509394606081013594506080013592915050565b634e487b7160e01b600052602160045260246000fd5b6003811061137257634e487b7160e01b600052602160045260246000fd5b9052565b602081016111648284611354565b60006020828403121561139657600080fd5b5035919050565b604081016113ab8285611354565b6112026020830184611354565b634e487b7160e01b600052601160045260246000fd5b81810381811115611164576111646113b8565b6000602082840312156113f357600080fd5b5051919050565b80820180821115611164576111646113b8565b60006020828403121561141f57600080fd5b8151801515811461120257600080fd5b6000825160005b818110156114505760208186018101518583015201611436565b50600092019182525091905056fea264697066735822122062951f61e7c9ef82a7d48904321b8cc126c574eebc9c65eaa87a4359fc0557c264736f6c634300081e003360c060405234801561001057600080fd5b506040516116c73803806116c783398101604081905261002f916100f2565b826001600160a01b03811661005e57604051631e4fbdf760e01b81526000600482015260240160405180910390fd5b6100678161008a565b506001600160a01b039190911660805260a052506003805460ff19169055610135565b600080546001600160a01b038381166001600160a01b0319831681178455604051919092169283917f8be0079c531659141344cd1fd0a4f28419497f9722a3daafe3b4186f6b6457e09190a35050565b6001600160a01b03811681146100ef57600080fd5b50565b60008060006060848603121561010757600080fd5b8351610112816100da565b6020850151909350610123816100da565b80925050604084015190509250925092565b60805160a051611551610176600039600081816101730152818161059c0152610cf20152600081816102f3015281816105d00152610c9101526115516000f3fe608060405234801561001057600080fd5b506004361061012c5760003560e01c8063913b722c116100ad578063e4fc6b6d11610071578063e4fc6b6d146102a0578063efeb5e58146102a8578063f23a6e61146102bb578063f2fde38b146102db578063fc0c546a146102ee57600080fd5b8063913b722c14610210578063a961065514610225578063bc197c8114610238578063c19d93fb14610273578063c76a890c1461028d57600080fd5b80633d370b4e116100f45780633d370b4e146101b357806345f0a44f146101c8578063715018a6146101db578063734b2a7c146101e35780638da5cb5b146101eb57600080fd5b806301ffc9a714610131578063065dc4c11461015957806317d70f7c1461016e5780631ca087e7146101a357806334354068146101ab575b600080fd5b61014461013f366004611092565b610315565b60405190151581526020015b60405180910390f35b61016c61016736600461110f565b61034c565b005b6101957f000000000000000000000000000000000000000000000000000000000000000081565b604051908152602001610150565b61016c610510565b6101956106a1565b6101bb6106e6565b6040516101509190611180565b6101956101d63660046111c3565b61073e565b61016c61075f565b600154610195565b6000546001600160a01b03165b6040516001600160a01b039091168152602001610150565b610218610773565b60405161015091906111dc565b61016c61023336600461110f565b6107d4565b61025a61024636600461127b565b63bc197c8160e01b98975050505050505050565b6040516001600160e01b03199091168152602001610150565b6003546102809060ff1681565b604051610150919061137a565b61016c61029b366004611388565b6109d1565b61016c610c36565b6101f86102b63660046111c3565b610e2d565b61025a6102c93660046113ca565b63f23a6e6160e01b9695505050505050565b61016c6102e9366004611442565b610e57565b6101f87f000000000000000000000000000000000000000000000000000000000000000081565b60006001600160e01b03198216630271189760e51b148061034657506301ffc9a760e01b6001600160e01b03198316145b92915050565b610354610e95565b600060035460ff16600281111561036d5761036d611342565b146103a057600354604051635b8036d960e11b81526103979160009160ff9091169060040161145d565b60405180910390fd5b8281146103c05760405163512509d360e11b815260040160405180910390fd5b60008390036103e2576040516354ff941b60e11b815260040160405180910390fd5b60005b838110156104ad57600085858381811061040157610401611478565b90506020020160208101906104169190611442565b6001600160a01b03160361043d5760405163d92e233d60e01b815260040160405180910390fd5b82828281811061044f5761044f611478565b9050602002013560000361047657604051631f2a200560e01b815260040160405180910390fd5b6104a585858381811061048b5761048b611478565b90506020020160208101906104a09190611442565b610ec2565b6001016103e5565b506104ba60018585610fe3565b506104c760028383611042565b507fff2b988c0df12e14f5aed85f557edfcc5dae899582c46e4d58103e8a52f81f0f836104f26106a1565b6040805192835260208301919091520160405180910390a150505050565b610518610e95565b600060035460ff16600281111561053157610531611342565b1461055b57600354604051635b8036d960e11b81526103979160009160ff9091169060040161145d565b60015460000361057e576040516354ff941b60e11b815260040160405180910390fd5b60006105886106a1565b604051627eeac760e11b81523060048201527f000000000000000000000000000000000000000000000000000000000000000060248201529091506000906001600160a01b037f0000000000000000000000000000000000000000000000000000000000000000169062fdd58e90604401602060405180830381865afa158015610616573d6000803e3d6000fd5b505050506040513d601f19601f8201168201806040525081019061063a919061148e565b9050818110156106675760405163142e249f60e31b81526004810183905260248101829052604401610397565b6003805460ff191660011790556040517f561f4123d190e216d72f80401a4ebed2bc2c56d4b7020246ca435c6d3728efe290600090a15050565b6000805b6002548110156106e257600281815481106106c2576106c2611478565b9060005260206000200154826106d891906114bd565b91506001016106a5565b5090565b6060600280548060200260200160405190810160405280929190818152602001828054801561073457602002820191906000526020600020905b815481526020019060010190808311610720575b5050505050905090565b6002818154811061074e57600080fd5b600091825260209091200154905081565b610767610e95565b6107716000610f93565b565b6060600180548060200260200160405190810160405280929190818152602001828054801561073457602002820191906000526020600020905b81546001600160a01b031681526001909101906020018083116107ad575050505050905090565b6107dc610e95565b600060035460ff1660028111156107f5576107f5611342565b1461081f57600354604051635b8036d960e11b81526103979160009160ff9091169060040161145d565b82811461083f5760405163512509d360e11b815260040160405180910390fd5b6000839003610861576040516354ff941b60e11b815260040160405180910390fd5b60005b838110156109a357600085858381811061088057610880611478565b90506020020160208101906108959190611442565b6001600160a01b0316036108bc5760405163d92e233d60e01b815260040160405180910390fd5b8282828181106108ce576108ce611478565b905060200201356000036108f557604051631f2a200560e01b815260040160405180910390fd5b61090a85858381811061048b5761048b611478565b600185858381811061091e5761091e611478565b90506020020160208101906109339190611442565b81546001810183556000928352602090922090910180546001600160a01b0319166001600160a01b03909216919091179055600283838381811061097957610979611478565b83546001808201865560009586526020958690209290950293909301359201919091555001610864565b506001547fff2b988c0df12e14f5aed85f557edfcc5dae899582c46e4d58103e8a52f81f0f906104f26106a1565b6109d9610e95565b600060035460ff1660028111156109f2576109f2611342565b14610a1c57600354604051635b8036d960e11b81526103979160009160ff9091169060040161145d565b6000819003610a3e576040516354ff941b60e11b815260040160405180910390fd5b60005b81811015610be05760005b600154811015610bd757838383818110610a6857610a68611478565b9050602002016020810190610a7d9190611442565b6001600160a01b031660018281548110610a9957610a99611478565b6000918252602090912001546001600160a01b031603610bcf5760018054600091610ac3916114d0565b905060018181548110610ad857610ad8611478565b600091825260209091200154600180546001600160a01b039092169184908110610b0457610b04611478565b9060005260206000200160006101000a8154816001600160a01b0302191690836001600160a01b0316021790555060028181548110610b4557610b45611478565b906000526020600020015460028381548110610b6357610b63611478565b6000918252602090912001556001805480610b8057610b806114e3565b600082815260209020810160001990810180546001600160a01b03191690550190556002805480610bb357610bb36114e3565b6001900381819060005260206000200160009055905550610bd7565b600101610a4c565b50600101610a41565b506001547fff2b988c0df12e14f5aed85f557edfcc5dae899582c46e4d58103e8a52f81f0f9080610c12576000610c1a565b610c1a6106a1565b6040805192835260208301919091520160405180910390a15050565b610c3e610e95565b600160035460ff166002811115610c5757610c57611342565b14610c8157600354604051635b8036d960e11b81526103979160019160ff9091169060040161145d565b6000805b600154811015610de0577f00000000000000000000000000000000000000000000000000000000000000006001600160a01b031663f242432a3060018481548110610cd257610cd2611478565b9060005260206000200160009054906101000a90046001600160a01b03167f000000000000000000000000000000000000000000000000000000000000000060028681548110610d2457610d24611478565b60009182526020822001546040516001600160e01b031960e088901b1681526001600160a01b0395861660048201529490931660248501526044840191909152606483019190915260a0608483015260a482015260c401600060405180830381600087803b158015610d9557600080fd5b505af1158015610da9573d6000803e3d6000fd5b5050505060028181548110610dc057610dc0611478565b906000526020600020015482610dd691906114bd565b9150600101610c85565b506003805460ff1916600217905560015460408051918252602082018390527f72f2e17e5286668a3e0be581ddcbc3d5fed31c2072f4e6437566f8fb11164388910160405180910390a150565b60018181548110610e3d57600080fd5b6000918252602090912001546001600160a01b0316905081565b610e5f610e95565b6001600160a01b038116610e8957604051631e4fbdf760e01b815260006004820152602401610397565b610e9281610f93565b50565b6000546001600160a01b031633146107715760405163118cdaa760e01b8152336004820152602401610397565b806001600160a01b03163b600003610ed75750565b6040516301ffc9a760e01b8152630271189760e51b60048201526001600160a01b038216906301ffc9a790602401602060405180830381865afa925050508015610f3e575060408051601f3d908101601f19168201909252610f3b918101906114f9565b60015b610f6657604051630136713f60e11b81526001600160a01b0382166004820152602401610397565b80610f8f57604051630136713f60e11b81526001600160a01b0383166004820152602401610397565b5050565b600080546001600160a01b038381166001600160a01b0319831681178455604051919092169283917f8be0079c531659141344cd1fd0a4f28419497f9722a3daafe3b4186f6b6457e09190a35050565b828054828255906000526020600020908101928215611036579160200282015b828111156110365781546001600160a01b0319166001600160a01b03843516178255602090920191600190910190611003565b506106e292915061107d565b828054828255906000526020600020908101928215611036579160200282015b82811115611036578235825591602001919060010190611062565b5b808211156106e2576000815560010161107e565b6000602082840312156110a457600080fd5b81356001600160e01b0319811681146110bc57600080fd5b9392505050565b60008083601f8401126110d557600080fd5b50813567ffffffffffffffff8111156110ed57600080fd5b6020830191508360208260051b850101111561110857600080fd5b9250929050565b6000806000806040858703121561112557600080fd5b843567ffffffffffffffff81111561113c57600080fd5b611148878288016110c3565b909550935050602085013567ffffffffffffffff81111561116857600080fd5b611174878288016110c3565b95989497509550505050565b602080825282518282018190526000918401906040840190835b818110156111b857835183526020938401939092019160010161119a565b509095945050505050565b6000602082840312156111d557600080fd5b5035919050565b602080825282518282018190526000918401906040840190835b818110156111b85783516001600160a01b03168352602093840193909201916001016111f6565b80356001600160a01b038116811461123457600080fd5b919050565b60008083601f84011261124b57600080fd5b50813567ffffffffffffffff81111561126357600080fd5b60208301915083602082850101111561110857600080fd5b60008060008060008060008060a0898b03121561129757600080fd5b6112a08961121d565b97506112ae60208a0161121d565b9650604089013567ffffffffffffffff8111156112ca57600080fd5b6112d68b828c016110c3565b909750955050606089013567ffffffffffffffff8111156112f657600080fd5b6113028b828c016110c3565b909550935050608089013567ffffffffffffffff81111561132257600080fd5b61132e8b828c01611239565b999c989b5096995094979396929594505050565b634e487b7160e01b600052602160045260246000fd5b6003811061137657634e487b7160e01b600052602160045260246000fd5b9052565b602081016103468284611358565b6000806020838503121561139b57600080fd5b823567ffffffffffffffff8111156113b257600080fd5b6113be858286016110c3565b90969095509350505050565b60008060008060008060a087890312156113e357600080fd5b6113ec8761121d565b95506113fa6020880161121d565b94506040870135935060608701359250608087013567ffffffffffffffff81111561142457600080fd5b61143089828a01611239565b979a9699509497509295939492505050565b60006020828403121561145457600080fd5b6110bc8261121d565b6040810161146b8285611358565b6110bc6020830184611358565b634e487b7160e01b600052603260045260246000fd5b6000602082840312156114a057600080fd5b5051919050565b634e487b7160e01b600052601160045260246000fd5b80820180821115610346576103466114a7565b81810381811115610346576103466114a7565b634e487b7160e01b600052603160045260246000fd5b60006020828403121561150b57600080fd5b815180151581146110bc57600080fdfea264697066735822122034289565a330bc08874db7756887328c2b16042905ce8434babf08f50b8ef5cc64736f6c634300081e0033608060405234801561001057600080fd5b5060405161271138038061271183398101604081905261002f916100ea565b604080516020810190915260008152819061004981610088565b506001600160a01b03811661007857604051631e4fbdf760e01b81526000600482015260240160405180910390fd5b61008181610098565b5050610277565b600261009482826101b9565b5050565b600380546001600160a01b038381166001600160a01b0319831681179093556040519116919082907f8be0079c531659141344cd1fd0a4f28419497f9722a3daafe3b4186f6b6457e090600090a35050565b6000602082840312156100fc57600080fd5b81516001600160a01b038116811461011357600080fd5b9392505050565b634e487b7160e01b600052604160045260246000fd5b600181811c9082168061014457607f821691505b60208210810361016457634e487b7160e01b600052602260045260246000fd5b50919050565b601f8211156101b457806000526020600020601f840160051c810160208510156101915750805b601f840160051c820191505b818110156101b1576000815560010161019d565b50505b505050565b81516001600160401b038111156101d2576101d261011a565b6101e6816101e08454610130565b8461016a565b6020601f82116001811461021a57600083156102025750848201515b600019600385901b1c1916600184901b1784556101b1565b600084815260208120601f198516915b8281101561024a578785015182556020948501946001909201910161022a565b50848210156102685786840151600019600387901b60f8161c191681555b50505050600190811b01905550565b61248b806102866000396000f3fe608060405234801561001057600080fd5b50600436106101365760003560e01c806376aed2e1116100b8578063d81d0a151161007c578063d81d0a15146102a9578063e985e9c5146102bc578063f242432a146102cf578063f2fde38b146102e2578063f5298aca146102f5578063fd8752651461030857600080fd5b806376aed2e1146102355780638da5cb5b14610255578063a22cb46514610270578063b707522114610283578063d69c37411461029657600080fd5b806333f6832a116100ff57806333f6832a146101cc5780634e1273f4146101f15780636b20c45414610211578063715018a61461022457806375794a3c1461022c57600080fd5b8062fdd58e1461013b57806301ffc9a7146101615780630e89341c14610184578063156e29f6146101a45780632eb2c2d6146101b9575b600080fd5b61014e610149366004611889565b61032b565b6040519081526020015b60405180910390f35b61017461016f3660046118c9565b610353565b6040519015158152602001610158565b6101976101923660046118e6565b6103a3565b6040516101589190611945565b6101b76101b2366004611958565b610461565b005b6101b76101c7366004611ad0565b6104bb565b6101df6101da3660046118e6565b610527565b60405161015896959493929190611b83565b6102046101ff366004611bd0565b610673565b6040516101589190611cd3565b6101b761021f366004611ce6565b61073f565b6101b761079e565b61014e60075481565b6102486102433660046118e6565b6107b2565b6040516101589190611d5d565b6003546040516001600160a01b039091168152602001610158565b6101b761027e366004611ddf565b61098a565b61014e610291366004611e5a565b610999565b6101b76102a4366004611ddf565b610b39565b6101b76102b7366004611f6b565b610ba0565b6101746102ca366004611fef565b610cd4565b6101b76102dd366004612019565b610d02565b6101b76102f0366004612071565b610d61565b6101b7610303366004611958565b610d9f565b610174610316366004612071565b60066020526000908152604090205460ff1681565b6000818152602081815260408083206001600160a01b03861684529091529020545b92915050565b60006001600160e01b03198216636cdb3d1360e11b148061038457506001600160e01b031982166303a24d0760e21b145b8061034d57506301ffc9a760e01b6001600160e01b031983161461034d565b6000818152600560205260408120805460609291906103c19061208c565b80601f01602080910402602001604051908101604052809291908181526020018280546103ed9061208c565b801561043a5780601f1061040f5761010080835404028352916020019161043a565b820191906000526020600020905b81548152906001019060200180831161041d57829003601f168201915b505050505090506000815111156104515792915050565b61045a83610dd5565b9392505050565b610469610e69565b6104738282610e96565b600082815260046020526040812060030180548392906104949084906120dc565b925050819055506104b683838360405180602001604052806000815250610f33565b505050565b336001600160a01b03861681148015906104dc57506104da8682610cd4565b155b156105125760405163711bec9160e11b81526001600160a01b038083166004830152871660248201526044015b60405180910390fd5b61051f8686868686610f90565b505050505050565b6004602052600090815260409020805481906105429061208c565b80601f016020809104026020016040519081016040528092919081815260200182805461056e9061208c565b80156105bb5780601f10610590576101008083540402835291602001916105bb565b820191906000526020600020905b81548152906001019060200180831161059e57829003601f168201915b5050505050908060010180546105d09061208c565b80601f01602080910402602001604051908101604052809291908181526020018280546105fc9061208c565b80156106495780601f1061061e57610100808354040283529160200191610649565b820191906000526020600020905b81548152906001019060200180831161062c57829003601f168201915b50505050600283015460038401546004909401549293909290915060ff8082169161010090041686565b606081518351146106a45781518351604051635b05999160e01b815260048101929092526024820152604401610509565b600083516001600160401b038111156106bf576106bf61198b565b6040519080825280602002602001820160405280156106e8578160200160208202803683370190505b50905060005b8451811015610737576020808202860101516107129060208084028701015161032b565b828281518110610724576107246120ef565b60209081029190910101526001016106ee565b509392505050565b6001600160a01b038316331480159061075f575061075d8333610cd4565b155b1561079357335b60405163711bec9160e11b81526001600160a01b0391821660048201529084166024820152604401610509565b6104b6838383610ff0565b6107a6610e69565b6107b06000611036565b565b6107ef6040518060c00160405280606081526020016060815260200160008152602001600081526020016000151581526020016000151581525090565b600754821061081457604051631c48671b60e21b815260048101839052602401610509565b60008281526004602052604090819020815160c0810190925280548290829061083c9061208c565b80601f01602080910402602001604051908101604052809291908181526020018280546108689061208c565b80156108b55780601f1061088a576101008083540402835291602001916108b5565b820191906000526020600020905b81548152906001019060200180831161089857829003601f168201915b505050505081526020016001820180546108ce9061208c565b80601f01602080910402602001604051908101604052809291908181526020018280546108fa9061208c565b80156109475780601f1061091c57610100808354040283529160200191610947565b820191906000526020600020905b81548152906001019060200180831161092a57829003601f168201915b5050509183525050600282015460208201526003820154604082015260049091015460ff8082161515606084015261010090910416151560809091015292915050565b610995338383611088565b5050565b60006109a3610e69565b600780549060006109b383612105565b909155506040805160e06020601f8e01819004028201810190925260c081018c81529293509182918d908d9081908501838280828437600092019190915250505090825250604080516020601f8c018190048102820181019092528a815291810191908b908b9081908401838280828437600092018290525093855250505060208083018a905260408084018390528715156060850152861515608090940193909352848252600490522081518190610a6c9082612165565b5060208201516001820190610a819082612165565b50604082015160028201556060820151600382015560808201516004909101805460a09093015115156101000261ff00199215159290921661ffff19909316929092171790558315610ae8576000818152600560205260409020610ae6858783612223565b505b807ff676c26b9c29896c1b70c373554a433b7b0bab995b8ac123a29daabbc74d8f388b8b8b8b8b8989604051610b24979695949392919061230b565b60405180910390a29998505050505050505050565b610b41610e69565b6001600160a01b038216600081815260066020908152604091829020805460ff191685151590811790915591519182527f3c3e4e43f0a2c01e5d990cdf7b98df7621d66c8b3a83f802ab7be4d503a18311910160405180910390a25050565b610ba8610e69565b60005b83811015610c5057610bed858583818110610bc857610bc86120ef565b90506020020135848484818110610be157610be16120ef565b90506020020135610e96565b828282818110610bff57610bff6120ef565b9050602002013560046000878785818110610c1c57610c1c6120ef565b9050602002013581526020019081526020016000206003016000828254610c4391906120dc565b9091555050600101610bab565b50610ccd858585808060200260200160405190810160405280939291908181526020018383602002808284376000920191909152505060408051602080890282810182019093528882529093508892508791829185019084908082843760009201829052506040805160208101909152908152925061111e915050565b5050505050565b6001600160a01b03918216600090815260016020908152604080832093909416825291909152205460ff1690565b336001600160a01b0386168114801590610d235750610d218682610cd4565b155b15610d545760405163711bec9160e11b81526001600160a01b03808316600483015287166024820152604401610509565b61051f868686868661115c565b610d69610e69565b6001600160a01b038116610d9357604051631e4fbdf760e01b815260006004820152602401610509565b610d9c81611036565b50565b6001600160a01b0383163314801590610dbf5750610dbd8333610cd4565b155b15610dca5733610766565b6104b68383836111ea565b606060028054610de49061208c565b80601f0160208091040260200160405190810160405280929190818152602001828054610e109061208c565b8015610e5d5780601f10610e3257610100808354040283529160200191610e5d565b820191906000526020600020905b815481529060010190602001808311610e4057829003601f168201915b50505050509050919050565b6003546001600160a01b031633146107b05760405163118cdaa760e01b8152336004820152602401610509565b6007548210610ebb57604051631c48671b60e21b815260048101839052602401610509565b6000828152600460205260409020600281015415801590610eee57508060020154828260030154610eec91906120dc565b115b156104b657828282600301548360020154610f099190612354565b604051631d44f5d560e31b8152600481019390935260248301919091526044820152606401610509565b6001600160a01b038416610f5d57604051632bfa23e760e11b815260006004820152602401610509565b6040805160018082526020820186905281830190815260608201859052608082019092529061051f60008784848761124e565b6001600160a01b038416610fba57604051632bfa23e760e11b815260006004820152602401610509565b6001600160a01b038516610fe357604051626a0d4560e21b815260006004820152602401610509565b610ccd858585858561124e565b6001600160a01b03831661101957604051626a0d4560e21b815260006004820152602401610509565b6104b683600084846040518060200160405280600081525061124e565b600380546001600160a01b038381166001600160a01b0319831681179093556040519116919082907f8be0079c531659141344cd1fd0a4f28419497f9722a3daafe3b4186f6b6457e090600090a35050565b6001600160a01b0382166110b15760405162ced3e160e81b815260006004820152602401610509565b6001600160a01b03838116600081815260016020908152604080832094871680845294825291829020805460ff191686151590811790915591519182527f17307eab39ab6107e8899845ad3d59bd9653f200f220920489ca2b5937696c31910160405180910390a3505050565b6001600160a01b03841661114857604051632bfa23e760e11b815260006004820152602401610509565b61115660008585858561124e565b50505050565b6001600160a01b03841661118657604051632bfa23e760e11b815260006004820152602401610509565b6001600160a01b0385166111af57604051626a0d4560e21b815260006004820152602401610509565b604080516001808252602082018690528183019081526060820185905260808201909252906111e1878784848761124e565b50505050505050565b6001600160a01b03831661121357604051626a0d4560e21b815260006004820152602401610509565b604080516001808252602082018590528183019081526060820184905260a08201909252600060808201818152919291610ccd918791859085905b61125a858585856112a1565b6001600160a01b03841615610ccd5782513390600103611293576020848101519084015161128c83898985858961144c565b505061051f565b61051f818787878787611570565b6001600160a01b0384161560006112c06003546001600160a01b031690565b6001600160a01b0316336001600160a01b031614806112ee57503360009081526006602052604090205460ff165b9050811580156112fc575080155b15611440576001600160a01b0385161560005b855181101561143d5760075486828151811061132d5761132d6120ef565b6020026020010151106113705785818151811061134c5761134c6120ef565b6020026020010151604051631c48671b60e21b815260040161050991815260200190565b600060046000888481518110611388576113886120ef565b60200260200101518152602001908152602001600020905082156113f2576004810154610100900460ff166113ed578682815181106113c9576113c96120ef565b60200260200101516040516339d096e760e11b815260040161050991815260200190565b611434565b600481015460ff1661143457868281518110611410576114106120ef565b602002602001015160405163d9e1288960e01b815260040161050991815260200190565b5060010161130f565b50505b61051f86868686611659565b6001600160a01b0384163b1561051f5760405163f23a6e6160e01b81526001600160a01b0385169063f23a6e61906114909089908990889088908890600401612367565b6020604051808303816000875af19250505080156114cb575060408051601f3d908101601f191682019092526114c8918101906123ac565b60015b611534573d8080156114f9576040519150601f19603f3d011682016040523d82523d6000602084013e6114fe565b606091505b50805160000361152c57604051632bfa23e760e11b81526001600160a01b0386166004820152602401610509565b805181602001fd5b6001600160e01b0319811663f23a6e6160e01b146111e157604051632bfa23e760e11b81526001600160a01b0386166004820152602401610509565b6001600160a01b0384163b1561051f5760405163bc197c8160e01b81526001600160a01b0385169063bc197c81906115b490899089908890889088906004016123c9565b6020604051808303816000875af19250505080156115ef575060408051601f3d908101601f191682019092526115ec918101906123ac565b60015b61161d573d8080156114f9576040519150601f19603f3d011682016040523d82523d6000602084013e6114fe565b6001600160e01b0319811663bc197c8160e01b146111e157604051632bfa23e760e11b81526001600160a01b0386166004820152602401610509565b80518251146116885781518151604051635b05999160e01b815260048101929092526024820152604401610509565b3360005b835181101561178e576020818102858101820151908501909101516001600160a01b0388161561173f576000828152602081815260408083206001600160a01b038c16845290915290205481811015611718576040516303dee4c560e01b81526001600160a01b038a166004820152602481018290526044810183905260648101849052608401610509565b6000838152602081815260408083206001600160a01b038d16845290915290209082900390555b6001600160a01b03871615611784576000828152602081815260408083206001600160a01b038b1684529091528120805483929061177e9084906120dc565b90915550505b505060010161168c565b50825160010361180f5760208301516000906020840151909150856001600160a01b0316876001600160a01b0316846001600160a01b03167fc3d58168c5ae7397731d063d5bbf3d657854427343f4c083240f7aacaa2d0f628585604051611800929190918252602082015260400190565b60405180910390a45050610ccd565b836001600160a01b0316856001600160a01b0316826001600160a01b03167f4a39dc06d4c0dbc64b70af90fd698a233a518aa5d07e595d983b8c0526c8f7fb868660405161185e929190612427565b60405180910390a45050505050565b80356001600160a01b038116811461188457600080fd5b919050565b6000806040838503121561189c57600080fd5b6118a58361186d565b946020939093013593505050565b6001600160e01b031981168114610d9c57600080fd5b6000602082840312156118db57600080fd5b813561045a816118b3565b6000602082840312156118f857600080fd5b5035919050565b6000815180845260005b8181101561192557602081850181015186830182015201611909565b506000602082860101526020601f19601f83011685010191505092915050565b60208152600061045a60208301846118ff565b60008060006060848603121561196d57600080fd5b6119768461186d565b95602085013595506040909401359392505050565b634e487b7160e01b600052604160045260246000fd5b604051601f8201601f191681016001600160401b03811182821017156119c9576119c961198b565b604052919050565b60006001600160401b038211156119ea576119ea61198b565b5060051b60200190565b600082601f830112611a0557600080fd5b8135611a18611a13826119d1565b6119a1565b8082825260208201915060208360051b860101925085831115611a3a57600080fd5b602085015b83811015611a57578035835260209283019201611a3f565b5095945050505050565b600082601f830112611a7257600080fd5b81356001600160401b03811115611a8b57611a8b61198b565b611a9e601f8201601f19166020016119a1565b818152846020838601011115611ab357600080fd5b816020850160208301376000918101602001919091529392505050565b600080600080600060a08688031215611ae857600080fd5b611af18661186d565b9450611aff6020870161186d565b935060408601356001600160401b03811115611b1a57600080fd5b611b26888289016119f4565b93505060608601356001600160401b03811115611b4257600080fd5b611b4e888289016119f4565b92505060808601356001600160401b03811115611b6a57600080fd5b611b7688828901611a61565b9150509295509295909350565b60c081526000611b9660c08301896118ff565b8281036020840152611ba881896118ff565b6040840197909752505060608101939093529015156080830152151560a09091015292915050565b60008060408385031215611be357600080fd5b82356001600160401b03811115611bf957600080fd5b8301601f81018513611c0a57600080fd5b8035611c18611a13826119d1565b8082825260208201915060208360051b850101925087831115611c3a57600080fd5b6020840193505b82841015611c6357611c528461186d565b825260209384019390910190611c41565b945050505060208301356001600160401b03811115611c8157600080fd5b611c8d858286016119f4565b9150509250929050565b600081518084526020840193506020830160005b82811015611cc9578151865260209586019590910190600101611cab565b5093949350505050565b60208152600061045a6020830184611c97565b600080600060608486031215611cfb57600080fd5b611d048461186d565b925060208401356001600160401b03811115611d1f57600080fd5b611d2b868287016119f4565b92505060408401356001600160401b03811115611d4757600080fd5b611d53868287016119f4565b9150509250925092565b602081526000825160c06020840152611d7960e08401826118ff565b90506020840151601f19848303016040850152611d9682826118ff565b91505060408401516060840152606084015160808401526080840151151560a084015260a0840151151560c08401528091505092915050565b8035801515811461188457600080fd5b60008060408385031215611df257600080fd5b611dfb8361186d565b9150611e0960208401611dcf565b90509250929050565b60008083601f840112611e2457600080fd5b5081356001600160401b03811115611e3b57600080fd5b602083019150836020828501011115611e5357600080fd5b9250929050565b600080600080600080600080600060c08a8c031215611e7857600080fd5b89356001600160401b03811115611e8e57600080fd5b611e9a8c828d01611e12565b909a5098505060208a01356001600160401b03811115611eb957600080fd5b611ec58c828d01611e12565b90985096505060408a0135945060608a01356001600160401b03811115611eeb57600080fd5b611ef78c828d01611e12565b9095509350611f0a905060808b01611dcf565b9150611f1860a08b01611dcf565b90509295985092959850929598565b60008083601f840112611f3957600080fd5b5081356001600160401b03811115611f5057600080fd5b6020830191508360208260051b8501011115611e5357600080fd5b600080600080600060608688031215611f8357600080fd5b611f8c8661186d565b945060208601356001600160401b03811115611fa757600080fd5b611fb388828901611f27565b90955093505060408601356001600160401b03811115611fd257600080fd5b611fde88828901611f27565b969995985093965092949392505050565b6000806040838503121561200257600080fd5b61200b8361186d565b9150611e096020840161186d565b600080600080600060a0868803121561203157600080fd5b61203a8661186d565b94506120486020870161186d565b9350604086013592506060860135915060808601356001600160401b03811115611b6a57600080fd5b60006020828403121561208357600080fd5b61045a8261186d565b600181811c908216806120a057607f821691505b6020821081036120c057634e487b7160e01b600052602260045260246000fd5b50919050565b634e487b7160e01b600052601160045260246000fd5b8082018082111561034d5761034d6120c6565b634e487b7160e01b600052603260045260246000fd5b600060018201612117576121176120c6565b5060010190565b601f8211156104b657806000526020600020601f840160051c810160208510156121455750805b601f840160051c820191505b81811015610ccd5760008155600101612151565b81516001600160401b0381111561217e5761217e61198b565b6121928161218c845461208c565b8461211e565b6020601f8211600181146121c657600083156121ae5750848201515b600019600385901b1c1916600184901b178455610ccd565b600084815260208120601f198516915b828110156121f657878501518255602094850194600190920191016121d6565b50848210156122145786840151600019600387901b60f8161c191681555b50505050600190811b01905550565b6001600160401b0383111561223a5761223a61198b565b61224e83612248835461208c565b8361211e565b6000601f841160018114612282576000851561226a5750838201355b600019600387901b1c1916600186901b178355610ccd565b600083815260209020601f19861690835b828110156122b35786850135825560209485019460019092019101612293565b50868210156122d05760001960f88860031b161c19848701351681555b505060018560011b0183555050505050565b81835281816020850137506000828201602090810191909152601f909101601f19169091010190565b60a08152600061231f60a08301898b6122e2565b828103602084015261233281888a6122e2565b6040840196909652505091151560608301521515608090910152949350505050565b8181038181111561034d5761034d6120c6565b6001600160a01b03868116825285166020820152604081018490526060810183905260a0608082018190526000906123a1908301846118ff565b979650505050505050565b6000602082840312156123be57600080fd5b815161045a816118b3565b6001600160a01b0386811682528516602082015260a0604082018190526000906123f590830186611c97565b82810360608401526124078186611c97565b9050828103608084015261241b81856118ff565b98975050505050505050565b60408152600061243a6040830185611c97565b828103602084015261244c8185611c97565b9594505050505056fea264697066735822122078e32512be5664d8f1ba885770f896549f3fe26a21c4410148d361194f7aa2e964736f6c634300081e0033a26469706673582212207541d1e7d09ab4ee961c20c36be95095d99ac8c5b49a674a4ab6c9c0b2d48f0464736f6c634300081e0033",
  "devdoc": {
    "kind": "dev",
    "methods": {},
    "title": "CGComponentFactory — Deploys CGToken, CGCrowdfunding and CGDistribution instances",
    "version": 1
  },
  "userdoc": {
    "kind": "user",
    "methods": {},
    "notice": "Extracted so CGProgram does not embed child-contract creation bytecode,         keeping every contract under the 24 KB Spurious Dragon limit.",
    "version": 1
  },
  "storageLayout": {
    "storage": [],
    "types": null
  }
}