{
  "address": "0xe4E02848DcDA529d3F5045B50c99044095cE4112",
  "abi": [
    {
      "inputs": [
        {
          "internalType": "contract IEntryPoint",
          "name": "entryPoint_",
          "type": "address"
        },
        {
          "internalType": "contract CGRegistry",
          "name": "registry_",
          "type": "address"
        },
        {
          "internalType": "uint256",
          "name": "lowBalanceThreshold_",
          "type": "uint256"
        }
      ],
      "stateMutability": "nonpayable",
      "type": "constructor"
    },
    {
      "inputs": [
        {
          "internalType": "uint256",
          "name": "available",
          "type": "uint256"
        },
        {
          "internalType": "uint256",
          "name": "required",
          "type": "uint256"
        }
      ],
      "name": "InsufficientOrgBalance",
      "type": "error"
    },
    {
      "inputs": [],
      "name": "InvalidCallData",
      "type": "error"
    },
    {
      "inputs": [],
      "name": "InvalidCallTarget",
      "type": "error"
    },
    {
      "inputs": [],
      "name": "NotOrgManager",
      "type": "error"
    },
    {
      "inputs": [],
      "name": "NotRegisteredOrg",
      "type": "error"
    },
    {
      "inputs": [],
      "name": "OnlyEntryPoint",
      "type": "error"
    },
    {
      "inputs": [
        {
          "internalType": "address",
          "name": "owner",
          "type": "address"
        }
      ],
      "name": "OwnableInvalidOwner",
      "type": "error"
    },
    {
      "inputs": [
        {
          "internalType": "address",
          "name": "account",
          "type": "address"
        }
      ],
      "name": "OwnableUnauthorizedAccount",
      "type": "error"
    },
    {
      "anonymous": false,
      "inputs": [
        {
          "indexed": true,
          "internalType": "address",
          "name": "org",
          "type": "address"
        },
        {
          "indexed": false,
          "internalType": "uint256",
          "name": "amount",
          "type": "uint256"
        },
        {
          "indexed": true,
          "internalType": "address",
          "name": "depositor",
          "type": "address"
        }
      ],
      "name": "Deposited",
      "type": "event"
    },
    {
      "anonymous": false,
      "inputs": [
        {
          "indexed": true,
          "internalType": "address",
          "name": "org",
          "type": "address"
        },
        {
          "indexed": false,
          "internalType": "uint256",
          "name": "actualCost",
          "type": "uint256"
        },
        {
          "indexed": false,
          "internalType": "uint256",
          "name": "remainingBalance",
          "type": "uint256"
        }
      ],
      "name": "GasCharged",
      "type": "event"
    },
    {
      "anonymous": false,
      "inputs": [
        {
          "indexed": true,
          "internalType": "address",
          "name": "org",
          "type": "address"
        },
        {
          "indexed": false,
          "internalType": "uint256",
          "name": "balance",
          "type": "uint256"
        }
      ],
      "name": "LowBalance",
      "type": "event"
    },
    {
      "anonymous": false,
      "inputs": [
        {
          "indexed": false,
          "internalType": "uint256",
          "name": "threshold",
          "type": "uint256"
        }
      ],
      "name": "LowBalanceThresholdSet",
      "type": "event"
    },
    {
      "anonymous": false,
      "inputs": [
        {
          "indexed": true,
          "internalType": "address",
          "name": "org",
          "type": "address"
        },
        {
          "indexed": true,
          "internalType": "address",
          "name": "newManager",
          "type": "address"
        }
      ],
      "name": "ManagementTransferred",
      "type": "event"
    },
    {
      "anonymous": false,
      "inputs": [
        {
          "indexed": true,
          "internalType": "address",
          "name": "previousOwner",
          "type": "address"
        },
        {
          "indexed": true,
          "internalType": "address",
          "name": "newOwner",
          "type": "address"
        }
      ],
      "name": "OwnershipTransferred",
      "type": "event"
    },
    {
      "anonymous": false,
      "inputs": [
        {
          "indexed": true,
          "internalType": "address",
          "name": "org",
          "type": "address"
        },
        {
          "indexed": false,
          "internalType": "uint256",
          "name": "amount",
          "type": "uint256"
        },
        {
          "indexed": true,
          "internalType": "address",
          "name": "to",
          "type": "address"
        }
      ],
      "name": "Withdrawn",
      "type": "event"
    },
    {
      "inputs": [
        {
          "internalType": "address",
          "name": "org",
          "type": "address"
        }
      ],
      "name": "depositFor",
      "outputs": [],
      "stateMutability": "payable",
      "type": "function"
    },
    {
      "inputs": [],
      "name": "entryPoint",
      "outputs": [
        {
          "internalType": "contract IEntryPoint",
          "name": "",
          "type": "address"
        }
      ],
      "stateMutability": "view",
      "type": "function"
    },
    {
      "inputs": [],
      "name": "lowBalanceThreshold",
      "outputs": [
        {
          "internalType": "uint256",
          "name": "",
          "type": "uint256"
        }
      ],
      "stateMutability": "view",
      "type": "function"
    },
    {
      "inputs": [
        {
          "internalType": "address",
          "name": "org",
          "type": "address"
        }
      ],
      "name": "managerOf",
      "outputs": [
        {
          "internalType": "address",
          "name": "",
          "type": "address"
        }
      ],
      "stateMutability": "view",
      "type": "function"
    },
    {
      "inputs": [
        {
          "internalType": "address",
          "name": "org",
          "type": "address"
        }
      ],
      "name": "orgBalance",
      "outputs": [
        {
          "internalType": "uint256",
          "name": "",
          "type": "uint256"
        }
      ],
      "stateMutability": "view",
      "type": "function"
    },
    {
      "inputs": [
        {
          "internalType": "address",
          "name": "org",
          "type": "address"
        }
      ],
      "name": "orgManager",
      "outputs": [
        {
          "internalType": "address",
          "name": "",
          "type": "address"
        }
      ],
      "stateMutability": "view",
      "type": "function"
    },
    {
      "inputs": [],
      "name": "owner",
      "outputs": [
        {
          "internalType": "address",
          "name": "",
          "type": "address"
        }
      ],
      "stateMutability": "view",
      "type": "function"
    },
    {
      "inputs": [
        {
          "internalType": "enum PostOpMode",
          "name": "",
          "type": "uint8"
        },
        {
          "internalType": "bytes",
          "name": "context",
          "type": "bytes"
        },
        {
          "internalType": "uint256",
          "name": "actualGasCost",
          "type": "uint256"
        }
      ],
      "name": "postOp",
      "outputs": [],
      "stateMutability": "nonpayable",
      "type": "function"
    },
    {
      "inputs": [],
      "name": "registry",
      "outputs": [
        {
          "internalType": "contract CGRegistry",
          "name": "",
          "type": "address"
        }
      ],
      "stateMutability": "view",
      "type": "function"
    },
    {
      "inputs": [],
      "name": "renounceOwnership",
      "outputs": [],
      "stateMutability": "nonpayable",
      "type": "function"
    },
    {
      "inputs": [
        {
          "internalType": "uint256",
          "name": "threshold",
          "type": "uint256"
        }
      ],
      "name": "setLowBalanceThreshold",
      "outputs": [],
      "stateMutability": "nonpayable",
      "type": "function"
    },
    {
      "inputs": [],
      "name": "totalDeposit",
      "outputs": [
        {
          "internalType": "uint256",
          "name": "",
          "type": "uint256"
        }
      ],
      "stateMutability": "view",
      "type": "function"
    },
    {
      "inputs": [
        {
          "internalType": "address",
          "name": "org",
          "type": "address"
        },
        {
          "internalType": "address",
          "name": "newManager",
          "type": "address"
        }
      ],
      "name": "transferManagement",
      "outputs": [],
      "stateMutability": "nonpayable",
      "type": "function"
    },
    {
      "inputs": [
        {
          "internalType": "address",
          "name": "newOwner",
          "type": "address"
        }
      ],
      "name": "transferOwnership",
      "outputs": [],
      "stateMutability": "nonpayable",
      "type": "function"
    },
    {
      "inputs": [
        {
          "components": [
            {
              "internalType": "address",
              "name": "sender",
              "type": "address"
            },
            {
              "internalType": "uint256",
              "name": "nonce",
              "type": "uint256"
            },
            {
              "internalType": "bytes",
              "name": "initCode",
              "type": "bytes"
            },
            {
              "internalType": "bytes",
              "name": "callData",
              "type": "bytes"
            },
            {
              "internalType": "uint256",
              "name": "callGasLimit",
              "type": "uint256"
            },
            {
              "internalType": "uint256",
              "name": "verificationGasLimit",
              "type": "uint256"
            },
            {
              "internalType": "uint256",
              "name": "preVerificationGas",
              "type": "uint256"
            },
            {
              "internalType": "uint256",
              "name": "maxFeePerGas",
              "type": "uint256"
            },
            {
              "internalType": "uint256",
              "name": "maxPriorityFeePerGas",
              "type": "uint256"
            },
            {
              "internalType": "bytes",
              "name": "paymasterAndData",
              "type": "bytes"
            },
            {
              "internalType": "bytes",
              "name": "signature",
              "type": "bytes"
            }
          ],
          "internalType": "struct UserOperation",
          "name": "userOp",
          "type": "tuple"
        },
        {
          "internalType": "bytes32",
          "name": "",
          "type": "bytes32"
        },
        {
          "internalType": "uint256",
          "name": "maxCost",
          "type": "uint256"
        }
      ],
      "name": "validatePaymasterUserOp",
      "outputs": [
        {
          "internalType": "bytes",
          "name": "context",
          "type": "bytes"
        },
        {
          "internalType": "uint256",
          "name": "validationData",
          "type": "uint256"
        }
      ],
      "stateMutability": "nonpayable",
      "type": "function"
    },
    {
      "inputs": [
        {
          "internalType": "address",
          "name": "org",
          "type": "address"
        },
        {
          "internalType": "address payable",
          "name": "to",
          "type": "address"
        },
        {
          "internalType": "uint256",
          "name": "amount",
          "type": "uint256"
        }
      ],
      "name": "withdraw",
      "outputs": [],
      "stateMutability": "nonpayable",
      "type": "function"
    }
  ],
  "transactionHash": "0x6a29ea8b05c6b081d15a2780e231ccdcd663fdb4670a806e5c763180c955e691",
  "args": [
    "0x5FF137D4b0FDCD49DcA30c7CF57E578a026d2789",
    "0x55e8A9b0897bCEbA1aC628c1D9A7814F51691c90",
    "10000000000000000"
  ],
  "numDeployments": 3,
  "solcInputHash": "9752957685c8f22b31341db07e672069",
  "bytecode": "0x60c060405234801561001057600080fd5b5060405161141238038061141283398101604081905261002f916100e2565b338061005557604051631e4fbdf760e01b81526000600482015260240160405180910390fd5b61005e8161007a565b506001600160a01b03928316608052911660a052600355610125565b600080546001600160a01b038381166001600160a01b0319831681178455604051919092169283917f8be0079c531659141344cd1fd0a4f28419497f9722a3daafe3b4186f6b6457e09190a35050565b6001600160a01b03811681146100df57600080fd5b50565b6000806000606084860312156100f757600080fd5b8351610102816100ca565b6020850151909350610113816100ca565b80925050604084015190509250925092565b60805160a05161129761017b60003960008181610198015281816105a7015261099c0152600081816102aa01528181610453015281816106710152818161080a015281816109050152610b3301526112976000f3fe6080604052600436106100f35760003560e01c8063a0eba21a1161008a578063d9caed1211610059578063d9caed12146102cc578063f2fde38b146102ec578063f465c77e1461030c578063f6153ccd1461033a57600080fd5b8063a0eba21a14610245578063a9a2340914610265578063aa67c91914610285578063b0d691fe1461029857600080fd5b80637f41826b116100c65780637f41826b146101ba578063838f83d8146101da5780638bda9286146101fa5780638da5cb5b1461022757600080fd5b806322c47bff146100f85780634d0d5e1f1461014b578063715018a61461016f5780637b10399914610186575b600080fd5b34801561010457600080fd5b5061012e610113366004610e9d565b6002602052600090815260409020546001600160a01b031681565b6040516001600160a01b0390911681526020015b60405180910390f35b34801561015757600080fd5b5061016160035481565b604051908152602001610142565b34801561017b57600080fd5b5061018461034f565b005b34801561019257600080fd5b5061012e7f000000000000000000000000000000000000000000000000000000000000000081565b3480156101c657600080fd5b5061012e6101d5366004610e9d565b610363565b3480156101e657600080fd5b506101846101f5366004610eba565b610374565b34801561020657600080fd5b50610161610215366004610e9d565b60016020526000908152604090205481565b34801561023357600080fd5b506000546001600160a01b031661012e565b34801561025157600080fd5b50610184610260366004610ef3565b610405565b34801561027157600080fd5b50610184610280366004610f0c565b610448565b610184610293366004610e9d565b610588565b3480156102a457600080fd5b5061012e7f000000000000000000000000000000000000000000000000000000000000000081565b3480156102d857600080fd5b506101846102e7366004610f9e565b61071a565b3480156102f857600080fd5b50610184610307366004610e9d565b6108b8565b34801561031857600080fd5b5061032c610327366004610fdf565b6108f6565b604051610142929190611033565b34801561034657600080fd5b50610161610b1b565b610357610bab565b6103616000610bd8565b565b600061036e82610c28565b92915050565b61037d82610c28565b6001600160a01b0316336001600160a01b0316146103ae576040516310a8243b60e21b815260040160405180910390fd5b6001600160a01b0382811660008181526002602052604080822080546001600160a01b0319169486169485179055517f80f15e9dbc60884fdb59fb8ed4fc48a9a689e028f055e893ed45ca5be67c5c859190a35050565b61040d610bab565b60038190556040518181527ff6bdfa1cec4fc70c312b8338549f05c6f88b1c5e351f0597cf4e70e47fe80c309060200160405180910390a150565b336001600160a01b037f000000000000000000000000000000000000000000000000000000000000000016146104915760405163bd07c55160e01b815260040160405180910390fd5b6000806104a084860186611088565b90925090506104af83826110ca565b6001600160a01b038316600090815260016020526040812080549091906104d79084906110dd565b90915550506001600160a01b03821660008181526001602090815260409182902054825187815291820181905292917f724b869c372e4d7ba16b299ed75d8d16128c7323f1b26350c08af594a7a0c344910160405180910390a260035481101561057f57826001600160a01b03167f6e7a4e5f021ee43065c6892a84e7ac4bcb9de8b465d65f6be634acf2193bac868260405161057691815260200190565b60405180910390a25b50505050505050565b60405163b1ce8eab60e01b81526001600160a01b0382811660048301527f0000000000000000000000000000000000000000000000000000000000000000169063b1ce8eab90602401602060405180830381865afa1580156105ee573d6000803e3d6000fd5b505050506040513d601f19601f8201168201806040525081019061061291906110f0565b61062f57604051632b7aad1560e21b815260040160405180910390fd5b6001600160a01b038116600090815260016020526040812080543492906106579084906110dd565b909155505060405163b760faf960e01b81523060048201527f00000000000000000000000000000000000000000000000000000000000000006001600160a01b03169063b760faf99034906024016000604051808303818588803b1580156106be57600080fd5b505af11580156106d2573d6000803e3d6000fd5b50506040513481523393506001600160a01b03851692507fb4e1304f97b5093610f51b33ddab6622388422e2dac138b0d32f93dcfbd39edf915060200160405180910390a350565b61072383610c28565b6001600160a01b0316336001600160a01b031614610754576040516310a8243b60e21b815260040160405180910390fd5b6001600160a01b0383166000908152600160205260409020548111156107b7576001600160a01b03831660009081526001602052604090819020549051631bad443760e31b81526004810191909152602481018290526044015b60405180910390fd5b6001600160a01b038316600090815260016020526040812080548392906107df9084906110ca565b909155505060405163040b850f60e31b81526001600160a01b038381166004830152602482018390527f0000000000000000000000000000000000000000000000000000000000000000169063205c287890604401600060405180830381600087803b15801561084e57600080fd5b505af1158015610862573d6000803e3d6000fd5b50505050816001600160a01b0316836001600160a01b03167fcbcdbdf10631a43cc99c80acace8232649421c3f4f73919f16013d47c83a687a836040516108ab91815260200190565b60405180910390a3505050565b6108c0610bab565b6001600160a01b0381166108ea57604051631e4fbdf760e01b8152600060048201526024016107ae565b6108f381610bd8565b50565b60606000336001600160a01b037f000000000000000000000000000000000000000000000000000000000000000016146109435760405163bd07c55160e01b815260040160405180910390fd5b6000610953610120870187611112565b60149061096082806110dd565b9261096d93929190611160565b6109769161118a565b60405163b1ce8eab60e01b815260609190911c6004820181905291506001600160a01b037f0000000000000000000000000000000000000000000000000000000000000000169063b1ce8eab90602401602060405180830381865afa1580156109e3573d6000803e3d6000fd5b505050506040513d601f19601f82011682018060405250810190610a0791906110f0565b610a2457604051632b7aad1560e21b815260040160405180910390fd5b6001600160a01b038116600090815260016020526040902054841115610a82576001600160a01b03811660009081526001602052604090819020549051631bad443760e31b81526004810191909152602481018590526044016107ae565b610a98610a926060880188611112565b83610c65565b610ab55760405163017ab86160e21b815260040160405180910390fd5b6001600160a01b03811660009081526001602052604081208054869290610add9084906110ca565b9091555050604080516001600160a01b038316602082015290810185905260600160408051601f198184030181529190529660009650945050505050565b6040516370a0823160e01b81523060048201526000907f00000000000000000000000000000000000000000000000000000000000000006001600160a01b0316906370a0823190602401602060405180830381865afa158015610b82573d6000803e3d6000fd5b505050506040513d601f19601f82011682018060405250810190610ba691906111d7565b905090565b6000546001600160a01b031633146103615760405163118cdaa760e01b81523360048201526024016107ae565b600080546001600160a01b038381166001600160a01b0319831681178455604051919092169283917f8be0079c531659141344cd1fd0a4f28419497f9722a3daafe3b4186f6b6457e09190a35050565b6001600160a01b038082166000908152600260205260408120549091168015610c515780610c5e565b6000546001600160a01b03165b9392505050565b60006044831015610c8957604051631c49f4d160e01b815260040160405180910390fd5b635b0e93fb60e11b610c9f600460008688611160565b610ca8916111f0565b6001600160e01b03191614610cd057604051631c49f4d160e01b815260040160405180910390fd5b6000610ce0602460048688611160565b610ce991611226565b9050610cf58382610cfe565b95945050505050565b6000826001600160a01b0316826001600160a01b031603610d215750600161036e565b604051623459ab60e31b81526001600160a01b0383811660048301528416906301a2cd5890602401602060405180830381865afa158015610d66573d6000803e3d6000fd5b505050506040513d601f19601f82011682018060405250810190610d8a91906110f0565b15610d975750600161036e565b816001600160a01b03163b600003610db15750600061036e565b816001600160a01b0316638da5cb5b6040518163ffffffff1660e01b8152600401602060405180830381865afa925050508015610e0b575060408051601f3d908101601f19168201909252610e0891810190611244565b60015b610e175750600061036e565b604051623459ab60e31b81526001600160a01b0382811660048301528516906301a2cd5890602401602060405180830381865afa158015610e5c573d6000803e3d6000fd5b505050506040513d601f19601f82011682018060405250810190610e8091906110f0565b949350505050565b6001600160a01b03811681146108f357600080fd5b600060208284031215610eaf57600080fd5b8135610c5e81610e88565b60008060408385031215610ecd57600080fd5b8235610ed881610e88565b91506020830135610ee881610e88565b809150509250929050565b600060208284031215610f0557600080fd5b5035919050565b60008060008060608587031215610f2257600080fd5b843560038110610f3157600080fd5b9350602085013567ffffffffffffffff811115610f4d57600080fd5b8501601f81018713610f5e57600080fd5b803567ffffffffffffffff811115610f7557600080fd5b876020828401011115610f8757600080fd5b949760209190910196509394604001359392505050565b600080600060608486031215610fb357600080fd5b8335610fbe81610e88565b92506020840135610fce81610e88565b929592945050506040919091013590565b600080600060608486031215610ff457600080fd5b833567ffffffffffffffff81111561100b57600080fd5b8401610160818703121561101e57600080fd5b95602085013595506040909401359392505050565b604081526000835180604084015260005b818110156110615760208187018101516060868401015201611044565b506000606082850101526060601f19601f8301168401019150508260208301529392505050565b6000806040838503121561109b57600080fd5b82356110a681610e88565b946020939093013593505050565b634e487b7160e01b600052601160045260246000fd5b8181038181111561036e5761036e6110b4565b8082018082111561036e5761036e6110b4565b60006020828403121561110257600080fd5b81518015158114610c5e57600080fd5b6000808335601e1984360301811261112957600080fd5b83018035915067ffffffffffffffff82111561114457600080fd5b60200191503681900382131561115957600080fd5b9250929050565b6000808585111561117057600080fd5b8386111561117d57600080fd5b5050820193919092039150565b80356bffffffffffffffffffffffff1981169060148410156111d0576bffffffffffffffffffffffff196bffffffffffffffffffffffff198560140360031b1b82161691505b5092915050565b6000602082840312156111e957600080fd5b5051919050565b80356001600160e01b031981169060048410156111d0576001600160e01b031960049490940360031b84901b1690921692915050565b8035602083101561036e57600019602084900360031b1b1692915050565b60006020828403121561125657600080fd5b8151610c5e81610e8856fea2646970667358221220a10756f00e4cc91b0cc59766a3b173fd6b5a3a9eea1fe1db25ab7c288cd0897964736f6c634300081e0033",
  "devdoc": {
    "details": "paymasterAndData layout:           [0  :20] — this paymaster address (set by wallet / bundler tooling)           [20 :40] — sponsoring org address (caller-supplied, 20 bytes)         Sponsored calls must use the standard execute(address,uint256,bytes) selector         (Coinbase Smart Wallet, ERC-4337 SimpleAccount, and most compatible wallets).         The resolved call target must belong to the sponsoring org — checked by walking         the on-chain ownership chain: org → program → token/distribution/crowdfunding.Management model:           • By default the CGPaymaster owner (= CGRegistry deployer) manages every org's stash.           • An org can opt into self-management via `transferManagement`.           • Only the current manager may `withdraw` or re-`transferManagement` an org's budget.",
    "errors": {
      "OwnableInvalidOwner(address)": [
        {
          "details": "The owner is not a valid owner account. (eg. `address(0)`)"
        }
      ],
      "OwnableUnauthorizedAccount(address)": [
        {
          "details": "The caller account is not authorized to perform an operation."
        }
      ]
    },
    "kind": "dev",
    "methods": {
      "depositFor(address)": {
        "params": {
          "org": "The CGOrganization address to credit."
        }
      },
      "owner()": {
        "details": "Returns the address of the current owner."
      },
      "postOp(uint8,bytes,uint256)": {
        "params": {
          "actualGasCost": "Actual ETH charged by the EntryPoint for this operation.",
          "context": "Encoded (org, reserved) from validatePaymasterUserOp."
        }
      },
      "renounceOwnership()": {
        "details": "Leaves the contract without owner. It will not be possible to call `onlyOwner` functions. Can only be called by the current owner. NOTE: Renouncing ownership will leave the contract without an owner, thereby disabling any functionality that is only available to the owner."
      },
      "transferManagement(address,address)": {
        "params": {
          "newManager": "The new manager address. Use address(0) to revert to CGPaymaster owner.",
          "org": "The CGOrganization to reassign."
        }
      },
      "transferOwnership(address)": {
        "details": "Transfers ownership of the contract to a new account (`newOwner`). Can only be called by the current owner."
      },
      "validatePaymasterUserOp((address,uint256,bytes,bytes,uint256,uint256,uint256,uint256,uint256,bytes,bytes),bytes32,uint256)": {
        "params": {
          "maxCost": "Maximum ETH the EntryPoint may charge for this operation.",
          "userOp": "The UserOperation to validate."
        },
        "returns": {
          "context": "      Encoded (org, reserved) passed to postOp for settlement.",
          "validationData": "0 = valid; SIG_VALIDATION_FAILED constant if invalid (not used here)."
        }
      },
      "withdraw(address,address,uint256)": {
        "params": {
          "amount": "Amount to withdraw in wei.",
          "org": "The CGOrganization whose budget to reduce.",
          "to": "Recipient of the withdrawn ETH."
        }
      }
    },
    "stateVariables": {
      "EXECUTE_SELECTOR": {
        "details": "keccak256(\"execute(address,uint256,bytes)\")[0:4]      Used by Coinbase Smart Wallet, ERC-4337 SimpleAccount, and most compatible wallets."
      },
      "ORG_DATA_OFFSET": {
        "details": "Byte offset where the org address starts inside paymasterAndData."
      }
    },
    "title": "CGPaymaster — ERC-4337 Paymaster for Chain.Giving gas sponsorship",
    "version": 1
  },
  "userdoc": {
    "kind": "user",
    "methods": {
      "depositFor(address)": {
        "notice": "Top up an org's gas budget. Sends ETH to the EntryPoint under this paymaster's deposit.         Callable by anyone — the registry owner tops up orgs as a managed service."
      },
      "entryPoint()": {
        "notice": "The ERC-4337 EntryPoint singleton this paymaster is registered with."
      },
      "lowBalanceThreshold()": {
        "notice": "Emit LowBalance when an org's remaining budget falls below this value (in wei)."
      },
      "managerOf(address)": {
        "notice": "Returns the effective manager for an org's budget.         Falls back to the CGPaymaster owner when no explicit manager is set."
      },
      "orgBalance(address)": {
        "notice": "Per-org internal gas budget (accounting only; actual ETH lives at EntryPoint)."
      },
      "orgManager(address)": {
        "notice": "Who may withdraw or reassign an org's budget.         address(0) means the CGPaymaster owner manages the org (default)."
      },
      "postOp(uint8,bytes,uint256)": {
        "notice": "Called by the EntryPoint after UserOperation execution.         Refunds unused gas to the org's budget and emits monitoring events."
      },
      "registry()": {
        "notice": "The Chain.Giving registry used to verify org and program addresses."
      },
      "setLowBalanceThreshold(uint256)": {
        "notice": "Update the low-balance warning threshold. Only callable by the CGPaymaster owner."
      },
      "totalDeposit()": {
        "notice": "Total ETH deposited at the EntryPoint under this paymaster's account."
      },
      "transferManagement(address,address)": {
        "notice": "Hand over management of an org's gas budget to a new address.         Allows an org owner to self-manage their stash instead of relying on the registry owner.         Only the current manager may call this."
      },
      "validatePaymasterUserOp((address,uint256,bytes,bytes,uint256,uint256,uint256,uint256,uint256,bytes,bytes),bytes32,uint256)": {
        "notice": "Called by the EntryPoint before UserOperation execution.         Validates the sponsoring org has sufficient budget and that the call targets         a contract owned by that org. Reserves the maximum possible gas cost."
      },
      "withdraw(address,address,uint256)": {
        "notice": "Withdraw unused ETH from an org's budget. Only callable by the org's manager."
      }
    },
    "notice": "Sponsors gas for beneficiary and organization owner UserOperations.         Each organization has an independent ETH budget tracked on-chain.         The total ETH is held at the EntryPoint under this paymaster's deposit;         per-org accounting is maintained in the `orgBalance` mapping.         Validation is fully on-chain — no off-chain relayer or signing service needed.",
    "version": 1
  },
  "storageLayout": {
    "storage": [
      {
        "astId": 8,
        "contract": "contracts/CGPaymaster.sol:CGPaymaster",
        "label": "_owner",
        "offset": 0,
        "slot": "0",
        "type": "t_address"
      },
      {
        "astId": 5479,
        "contract": "contracts/CGPaymaster.sol:CGPaymaster",
        "label": "orgBalance",
        "offset": 0,
        "slot": "1",
        "type": "t_mapping(t_address,t_uint256)"
      },
      {
        "astId": 5484,
        "contract": "contracts/CGPaymaster.sol:CGPaymaster",
        "label": "orgManager",
        "offset": 0,
        "slot": "2",
        "type": "t_mapping(t_address,t_address)"
      },
      {
        "astId": 5487,
        "contract": "contracts/CGPaymaster.sol:CGPaymaster",
        "label": "lowBalanceThreshold",
        "offset": 0,
        "slot": "3",
        "type": "t_uint256"
      }
    ],
    "types": {
      "t_address": {
        "encoding": "inplace",
        "label": "address",
        "numberOfBytes": "20"
      },
      "t_mapping(t_address,t_address)": {
        "encoding": "mapping",
        "key": "t_address",
        "label": "mapping(address => address)",
        "numberOfBytes": "32",
        "value": "t_address"
      },
      "t_mapping(t_address,t_uint256)": {
        "encoding": "mapping",
        "key": "t_address",
        "label": "mapping(address => uint256)",
        "numberOfBytes": "32",
        "value": "t_uint256"
      },
      "t_uint256": {
        "encoding": "inplace",
        "label": "uint256",
        "numberOfBytes": "32"
      }
    }
  }
}