{
  "address": "0x7756b2e513Ad5f28E521d0bB73b439684ab0e55a",
  "abi": [
    {
      "inputs": [
        {
          "internalType": "contract CGComponentFactory",
          "name": "componentFactory_",
          "type": "address"
        }
      ],
      "stateMutability": "nonpayable",
      "type": "constructor"
    },
    {
      "inputs": [
        {
          "internalType": "address",
          "name": "owner",
          "type": "address"
        }
      ],
      "name": "OwnableInvalidOwner",
      "type": "error"
    },
    {
      "inputs": [
        {
          "internalType": "address",
          "name": "account",
          "type": "address"
        }
      ],
      "name": "OwnableUnauthorizedAccount",
      "type": "error"
    },
    {
      "inputs": [],
      "name": "Unauthorized",
      "type": "error"
    },
    {
      "anonymous": false,
      "inputs": [
        {
          "indexed": true,
          "internalType": "address",
          "name": "caller",
          "type": "address"
        },
        {
          "indexed": false,
          "internalType": "bool",
          "name": "authorized",
          "type": "bool"
        }
      ],
      "name": "CallerAuthorized",
      "type": "event"
    },
    {
      "anonymous": false,
      "inputs": [
        {
          "indexed": true,
          "internalType": "address",
          "name": "previousOwner",
          "type": "address"
        },
        {
          "indexed": true,
          "internalType": "address",
          "name": "newOwner",
          "type": "address"
        }
      ],
      "name": "OwnershipTransferred",
      "type": "event"
    },
    {
      "anonymous": false,
      "inputs": [
        {
          "indexed": true,
          "internalType": "address",
          "name": "program",
          "type": "address"
        },
        {
          "indexed": true,
          "internalType": "address",
          "name": "owner",
          "type": "address"
        },
        {
          "indexed": false,
          "internalType": "string",
          "name": "name",
          "type": "string"
        }
      ],
      "name": "ProgramDeployed",
      "type": "event"
    },
    {
      "inputs": [
        {
          "internalType": "address",
          "name": "caller_",
          "type": "address"
        },
        {
          "internalType": "bool",
          "name": "authorized_",
          "type": "bool"
        }
      ],
      "name": "authorizeCaller",
      "outputs": [],
      "stateMutability": "nonpayable",
      "type": "function"
    },
    {
      "inputs": [
        {
          "internalType": "address",
          "name": "",
          "type": "address"
        }
      ],
      "name": "authorizedCallers",
      "outputs": [
        {
          "internalType": "bool",
          "name": "",
          "type": "bool"
        }
      ],
      "stateMutability": "view",
      "type": "function"
    },
    {
      "inputs": [],
      "name": "componentFactory",
      "outputs": [
        {
          "internalType": "contract CGComponentFactory",
          "name": "",
          "type": "address"
        }
      ],
      "stateMutability": "view",
      "type": "function"
    },
    {
      "inputs": [
        {
          "internalType": "address",
          "name": "owner_",
          "type": "address"
        },
        {
          "internalType": "string",
          "name": "name_",
          "type": "string"
        },
        {
          "internalType": "bool",
          "name": "lockDistributions_",
          "type": "bool"
        }
      ],
      "name": "createProgram",
      "outputs": [
        {
          "internalType": "address",
          "name": "",
          "type": "address"
        }
      ],
      "stateMutability": "nonpayable",
      "type": "function"
    },
    {
      "inputs": [],
      "name": "owner",
      "outputs": [
        {
          "internalType": "address",
          "name": "",
          "type": "address"
        }
      ],
      "stateMutability": "view",
      "type": "function"
    },
    {
      "inputs": [],
      "name": "renounceOwnership",
      "outputs": [],
      "stateMutability": "nonpayable",
      "type": "function"
    },
    {
      "inputs": [
        {
          "internalType": "address",
          "name": "newOwner",
          "type": "address"
        }
      ],
      "name": "transferOwnership",
      "outputs": [],
      "stateMutability": "nonpayable",
      "type": "function"
    }
  ],
  "transactionHash": "0xf8665d18c75ae259f3cc47689bea95a22f9af39beda178a21a78eba2df4683aa",
  "args": [
    "0x3F4331C1b059A7ED05c96aD1CD0802b00Bfd65f0"
  ],
  "numDeployments": 2,
  "solcInputHash": "9752957685c8f22b31341db07e672069",
  "bytecode": "0x60a060405234801561001057600080fd5b5060405161446a38038061446a83398101604081905261002f916100c0565b338061005557604051631e4fbdf760e01b81526000600482015260240160405180910390fd5b61005e81610070565b506001600160a01b03166080526100f0565b600080546001600160a01b038381166001600160a01b0319831681178455604051919092169283917f8be0079c531659141344cd1fd0a4f28419497f9722a3daafe3b4186f6b6457e09190a35050565b6000602082840312156100d257600080fd5b81516001600160a01b03811681146100e957600080fd5b9392505050565b60805161435861011260003960008181610105015261019801526143586000f3fe608060405234801561001057600080fd5b506004361061007d5760003560e01c80638da5cb5b1161005b5780638da5cb5b146100ef578063bef1b22914610100578063f2fde38b14610127578063fcc55e581461013a57600080fd5b8063536fff6c14610082578063715018a6146100ba5780638d1227c7146100c4575b600080fd5b6100a561009036600461039c565b60016020526000908152604090205460ff1681565b60405190151581526020015b60405180910390f35b6100c261014d565b005b6100d76100d23660046103ce565b610161565b6040516001600160a01b0390911681526020016100b1565b6000546001600160a01b03166100d7565b6100d77f000000000000000000000000000000000000000000000000000000000000000081565b6100c261013536600461039c565b61024c565b6100c2610148366004610464565b61028f565b6101556102f6565b61015f6000610323565b565b3360009081526001602052604081205460ff16610190576040516282b42960e81b815260040160405180910390fd5b6000858585857f00000000000000000000000000000000000000000000000000000000000000006040516101c390610373565b6101d19594939291906104c0565b604051809103906000f0801580156101ed573d6000803e3d6000fd5b5090506000819050866001600160a01b0316816001600160a01b03167f29fe3e202b5361940b8e34f0a2c59d7c403a7339f1328582d2548407d2f2ba8c888860405161023a929190610507565b60405180910390a39695505050505050565b6102546102f6565b6001600160a01b03811661028357604051631e4fbdf760e01b8152600060048201526024015b60405180910390fd5b61028c81610323565b50565b6102976102f6565b6001600160a01b038216600081815260016020908152604091829020805460ff191685151590811790915591519182527f100c9fd652c7b273c9266f92f22ac2352eb8d7232013ac0439e9066a9227f369910160405180910390a25050565b6000546001600160a01b0316331461015f5760405163118cdaa760e01b815233600482015260240161027a565b600080546001600160a01b038381166001600160a01b0319831681178455604051919092169283917f8be0079c531659141344cd1fd0a4f28419497f9722a3daafe3b4186f6b6457e09190a35050565b613dff8061052483390190565b80356001600160a01b038116811461039757600080fd5b919050565b6000602082840312156103ae57600080fd5b6103b782610380565b9392505050565b8035801515811461039757600080fd5b600080600080606085870312156103e457600080fd5b6103ed85610380565b9350602085013567ffffffffffffffff81111561040957600080fd5b8501601f8101871361041a57600080fd5b803567ffffffffffffffff81111561043157600080fd5b87602082840101111561044357600080fd5b60209190910193509150610459604086016103be565b905092959194509250565b6000806040838503121561047757600080fd5b61048083610380565b915061048e602084016103be565b90509250929050565b81835281816020850137506000828201602090810191909152601f909101601f19169091010190565b6001600160a01b03861681526080602082018190526000906104e59083018688610497565b9315156040830152506001600160a01b03919091166060909101529392505050565b60208152600061051b602083018486610497565b94935050505056fe60c060405234801561001057600080fd5b50604051613dff380380613dff83398101604081905261002f91610218565b836001600160a01b03811661005e57604051631e4fbdf760e01b81526000600482015260240160405180910390fd5b61006781610156565b5060016100748482610389565b508115156080526001600160a01b03811660a081905260405163c21ab7f960e01b815230600482015263c21ab7f9906024016020604051808303816000875af11580156100c5573d6000803e3d6000fd5b505050506040513d601f19601f820116820180604052508101906100e99190610447565b600280546001600160a01b0319166001600160a01b039290921691821790556005805460ff191690556040517f55b75d10e7fa995338af76a49c923b65df31328082ec974041e6322b9bd7e49c9161014591869190869061046b565b60405180910390a1505050506104b6565b600080546001600160a01b038381166001600160a01b0319831681178455604051919092169283917f8be0079c531659141344cd1fd0a4f28419497f9722a3daafe3b4186f6b6457e09190a35050565b6001600160a01b03811681146101bb57600080fd5b50565b634e487b7160e01b600052604160045260246000fd5b60005b838110156101ef5781810151838201526020016101d7565b50506000910152565b8051801515811461020857600080fd5b919050565b8051610208816101a6565b6000806000806080858703121561022e57600080fd5b8451610239816101a6565b60208601519094506001600160401b0381111561025557600080fd5b8501601f8101871361026657600080fd5b80516001600160401b0381111561027f5761027f6101be565b604051601f8201601f19908116603f011681016001600160401b03811182821017156102ad576102ad6101be565b6040528181528282016020018910156102c557600080fd5b6102d68260208301602086016101d4565b94506102e7915050604086016101f8565b91506102f56060860161020d565b905092959194509250565b600181811c9082168061031457607f821691505b60208210810361033457634e487b7160e01b600052602260045260246000fd5b50919050565b601f82111561038457806000526020600020601f840160051c810160208510156103615750805b601f840160051c820191505b81811015610381576000815560010161036d565b50505b505050565b81516001600160401b038111156103a2576103a26101be565b6103b6816103b08454610300565b8461033a565b6020601f8211600181146103ea57600083156103d25750848201515b600019600385901b1c1916600184901b178455610381565b600084815260208120601f198516915b8281101561041a57878501518255602094850194600190920191016103fa565b50848210156104385786840151600019600387901b60f8161c191681555b50505050600190811b01905550565b60006020828403121561045957600080fd5b8151610464816101a6565b9392505050565b606081526000845180606084015261048a8160808501602089016101d4565b6001600160a01b039490941660208301525090151560408201526080601f909201601f19160101919050565b60805160a0516138f361050c60003960008181610370015281816104ee0152610f4e0152600081816102a60152818161098e01528181610e5e0152818161153201528181611afe01526126dd01526138f36000f3fe608060405234801561001057600080fd5b50600436106101cf5760003560e01c8063b565a73611610104578063c65c3d95116100a2578063f116dbed11610071578063f116dbed14610404578063f14faf6f14610419578063f2fde38b1461042c578063fc0c546a1461043f57600080fd5b8063c65c3d95146103bf578063c853a1d0146103c7578063e08ed622146103dc578063ea8a1af0146103fc57600080fd5b8063bbd3ad75116100de578063bbd3ad7514610356578063bef1b2291461036b578063c1438cec14610392578063c19d93fb146103a557600080fd5b8063b565a7361461030f578063b6b572f614610322578063b70752211461033557600080fd5b8063614619541161017157806374bddd411161014b57806374bddd41146102a15780637fa9ce15146102d8578063884fc7c1146102eb5780638da5cb5b146102fe57600080fd5b8063614619541461027e578063715018a61461028657806372fa39d11461028e57600080fd5b80634487d3df116101ad5780634487d3df1461021a5780634ed062201461024557806356885cd8146102585780635a0a04d91461026b57600080fd5b8063031b6c14146101d457806306fdde03146101e95780633a211d0e14610207575b600080fd5b6101e76101e2366004612c71565b610452565b005b6101f16105b9565b6040516101fe9190612cf6565b60405180910390f35b6101e7610215366004612d09565b610647565b61022d610228366004612d09565b610923565b6040516001600160a01b0390911681526020016101fe565b6101e7610253366004612d6d565b61094d565b60035461022d906001600160a01b031681565b6101e7610279366004612dea565b610ad5565b6101e7610b69565b6101e7610e07565b61022d61029c366004612d09565b610e1b565b6102c87f000000000000000000000000000000000000000000000000000000000000000081565b60405190151581526020016101fe565b6101e76102e6366004612e16565b6110d4565b6101e76102f9366004612e33565b611167565b6000546001600160a01b031661022d565b6101e761031d366004612d09565b6112f9565b6101e7610330366004612e82565b6114f1565b610348610343366004612f1c565b611603565b6040519081526020016101fe565b61035e61171a565b6040516101fe9190613014565b61022d7f000000000000000000000000000000000000000000000000000000000000000081565b6101e76103a0366004612d6d565b611abd565b6005546103b29060ff1681565b6040516101fe9190613085565b600454610348565b6103cf611ba1565b6040516101fe919061309f565b6103ef6103ea366004612d09565b611e25565b6040516101fe919061327b565b6101e761213b565b61040c6122b7565b6040516101fe919061328e565b6101e7610427366004612d09565b612387565b6101e761043a366004612e16565b612465565b60025461022d906001600160a01b031681565b61045a6124a3565b600060055460ff16600381111561047357610473612fee565b146104915760405163c56396c160e01b815260040160405180910390fd5b6003546001600160a01b0316156104bb5760405163572f76a960e11b815260040160405180910390fd5b604051630741d0e160e41b81523060048201526001600160a01b03848116602483015260448201849052606482018390527f0000000000000000000000000000000000000000000000000000000000000000169063741d0e10906084016020604051808303816000875af1158015610537573d6000803e3d6000fd5b505050506040513d601f19601f8201168201806040525081019061055b91906132e7565b600380546001600160a01b0319166001600160a01b039283169081179091556040805191825291851660208201527f72b6195fabb1f3c27f604123028fa5a89bd4622b40ecd06e26a8bed4252ebb89910160405180910390a1505050565b600180546105c690613304565b80601f01602080910402602001604051908101604052809291908181526020018280546105f290613304565b801561063f5780601f106106145761010080835404028352916020019161063f565b820191906000526020600020905b81548152906001019060200180831161062257829003601f168201915b505050505081565b61064f6124a3565b600060055460ff16600381111561066857610668612fee565b146106865760405163c56396c160e01b815260040160405180910390fd5b60006004828154811061069b5761069b613338565b600091825260209182902001546040805163c19d93fb60e01b815290516001600160a01b039092169263c19d93fb926004808401938290030181865afa1580156106e9573d6000803e3d6000fd5b505050506040513d601f19601f8201168201806040525081019061070d919061335b565b9050600281600281111561072357610723612fee565b036107495760405163099a284d60e21b8152600481018390526024015b60405180910390fd5b600181600281111561075d5761075d612fee565b14801561076d575061076d6124d0565b1561078b576040516366aefd8160e01b815260040160405180910390fd5b6000600483815481106107a0576107a0613338565b600091825260208220015460025460405163d69c374160e01b81526001600160a01b03928316600482018190526024820194909452929350169063d69c374190604401600060405180830381600087803b1580156107fd57600080fd5b505af1158015610811573d6000803e3d6000fd5b505060045460009250610827915060019061338e565b905080841461089e576004818154811061084357610843613338565b600091825260209091200154600480546001600160a01b03909216918690811061086f5761086f613338565b9060005260206000200160006101000a8154816001600160a01b0302191690836001600160a01b031602179055505b60048054806108af576108af6133a1565b600082815260209020810160001990810180546001600160a01b03191690550190556040517f1315c13f80a48a728a6414f6bc252032ea3709d201ac0713dee21d4bbc075e0a9061091590869085909182526001600160a01b0316602082015260400190565b60405180910390a150505050565b6004818154811061093357600080fd5b6000918252602090912001546001600160a01b0316905081565b6109556124a3565b600060055460ff16600381111561096e5761096e612fee565b1461098c5760405163c56396c160e01b815260040160405180910390fd5b7f000000000000000000000000000000000000000000000000000000000000000080156109bc57506109bc6124d0565b156109da57604051635fdc219960e01b815260040160405180910390fd5b6000600486815481106109ef576109ef613338565b60009182526020909120015460405163a961065560e01b81526001600160a01b039091169150819063a961065590610a319088908890889088906004016133f7565b600060405180830381600087803b158015610a4b57600080fd5b505af1158015610a5f573d6000803e3d6000fd5b50505050610acd816001600160a01b03166317d70f7c6040518163ffffffff1660e01b8152600401602060405180830381865afa158015610aa4573d6000803e3d6000fd5b505050506040513d601f19601f82011682018060405250810190610ac89190613443565b61255d565b505050505050565b610add6124a3565b6003546001600160a01b0316610b06576040516311567f6160e11b815260040160405180910390fd5b600354604051635a0a04d960e01b81526001600160a01b0384811660048301526024820184905290911690635a0a04d9906044015b600060405180830381600087803b158015610b5557600080fd5b505af1158015610acd573d6000803e3d6000fd5b610b716124a3565b600060055460ff166003811115610b8a57610b8a612fee565b14610ba85760405163c56396c160e01b815260040160405180910390fd5b6003546001600160a01b0316610bd1576040516311567f6160e11b815260040160405180910390fd5b600454600003610bf45760405163be1a104d60e01b815260040160405180910390fd5b60005b600454811015610cc257600160048281548110610c1657610c16613338565b600091825260209182902001546040805163c19d93fb60e01b815290516001600160a01b039092169263c19d93fb926004808401938290030181865afa158015610c64573d6000803e3d6000fd5b505050506040513d601f19601f82011682018060405250810190610c88919061335b565b6002811115610c9957610c99612fee565b14610cba576040516319e5d30960e01b815260048101829052602401610740565b600101610bf7565b506005805460ff191660011790556003546000546001600160a01b03918216916351cff8d991166040516001600160e01b031960e084901b1681526001600160a01b039091166004820152602401600060405180830381600087803b158015610d2a57600080fd5b505af1158015610d3e573d6000803e3d6000fd5b5050505060005b600454811015610dce5760048181548110610d6257610d62613338565b60009182526020822001546040805163e4fc6b6d60e01b815290516001600160a01b039092169263e4fc6b6d9260048084019382900301818387803b158015610daa57600080fd5b505af1158015610dbe573d6000803e3d6000fd5b505060019092019150610d459050565b506005805460ff191660021790556040517f758312a9b18cce391880c3864dcf83bf239fd5e92d96646fe7ce5f20c3a8bb3a90600090a1565b610e0f6124a3565b610e19600061262b565b565b6000610e256124a3565b600060055460ff166003811115610e3e57610e3e612fee565b14610e5c5760405163c56396c160e01b815260040160405180910390fd5b7f00000000000000000000000000000000000000000000000000000000000000008015610e8c5750610e8c6124d0565b15610eaa57604051635fdc219960e01b815260040160405180910390fd5b6002546040516376aed2e160e01b8152600481018490526001600160a01b03909116906376aed2e190602401600060405180830381865afa158015610ef3573d6000803e3d6000fd5b505050506040513d6000823e601f3d908101601f19168201604052610f1b9190810190613540565b506002546040516359311ab760e11b81523060048201526001600160a01b039182166024820152604481018490526000917f0000000000000000000000000000000000000000000000000000000000000000169063b262356e906064016020604051808303816000875af1158015610f97573d6000803e3d6000fd5b505050506040513d601f19601f82011682018060405250810190610fbb91906132e7565b600480546001808201835560008390527f8a35acfbc15ff81a39ae7d344fd709f28e8600b4aa8c65c6b64bfe7fe36bd19b90910180546001600160a01b0319166001600160a01b0385811691821790925560025460405163d69c374160e01b81529485019190915260248401929092529293509091169063d69c374190604401600060405180830381600087803b15801561105557600080fd5b505af1158015611069573d6000803e3d6000fd5b50506004546000925061107f915060019061338e565b604080518281526001600160a01b03851660208201529081018690529091507fd120877de59fd387dfa9bf53184bec3ec55f0514932430f3a54ef181431f8caa9060600160405180910390a15090505b919050565b6110dc6124a3565b6003546001600160a01b0316611105576040516311567f6160e11b815260040160405180910390fd5b600354604051637fa9ce1560e01b81526001600160a01b03838116600483015290911690637fa9ce1590602401600060405180830381600087803b15801561114c57600080fd5b505af1158015611160573d6000803e3d6000fd5b5050505050565b61116f61267b565b60035460408051637e062a3560e11b815290516000926001600160a01b03169163fc0c546a9160048083019260209291908290030181865afa1580156111b9573d6000803e3d6000fd5b505050506040513d601f19601f820116820180604052508101906111dd91906132e7565b60405163d505accf60e01b8152336004820152306024820152604481018890526064810187905260ff8616608482015260a4810185905260c481018490529091506001600160a01b0382169063d505accf9060e401600060405180830381600087803b15801561124c57600080fd5b505af192505050801561125d575060015b506112736001600160a01b0382163330896127f2565b60035461128d906001600160a01b0383811691168861285f565b600354604051631f49268760e31b8152336004820152602481018890526001600160a01b039091169063fa49343890604401600060405180830381600087803b1580156112d957600080fd5b505af11580156112ed573d6000803e3d6000fd5b50505050505050505050565b6113016124a3565b600060055460ff16600381111561131a5761131a612fee565b146113385760405163c56396c160e01b815260040160405180910390fd5b60006004828154811061134d5761134d613338565b600091825260208083209091015460408051630686a80d60e31b815290516001600160a01b03909216945084926334354068926004808401938290030181865afa15801561139f573d6000803e3d6000fd5b505050506040513d601f19601f820116820180604052508101906113c39190613443565b90506000826001600160a01b03166317d70f7c6040518163ffffffff1660e01b8152600401602060405180830381865afa158015611405573d6000803e3d6000fd5b505050506040513d601f19601f820116820180604052508101906114299190613443565b600254604051630ab714fb60e11b81526001600160a01b038681166004830152602482018490526044820186905292935091169063156e29f690606401600060405180830381600087803b15801561148057600080fd5b505af1158015611494573d6000803e3d6000fd5b50505050826001600160a01b0316631ca087e76040518163ffffffff1660e01b8152600401600060405180830381600087803b1580156114d357600080fd5b505af11580156114e7573d6000803e3d6000fd5b5050505050505050565b6114f96124a3565b600060055460ff16600381111561151257611512612fee565b146115305760405163c56396c160e01b815260040160405180910390fd5b7f0000000000000000000000000000000000000000000000000000000000000000801561156057506115606124d0565b1561157e57604051635fdc219960e01b815260040160405180910390fd5b6004838154811061159157611591613338565b6000918252602090912001546040516331daa24360e21b81526001600160a01b039091169063c76a890c906115cc9085908590600401613610565b600060405180830381600087803b1580156115e657600080fd5b505af11580156115fa573d6000803e3d6000fd5b50505050505050565b600061160d6124a3565b600060055460ff16600381111561162657611626612fee565b146116445760405163c56396c160e01b815260040160405180910390fd5b60025460405163b707522160e01b81526001600160a01b039091169063b707522190611684908d908d908d908d908d908d908d908d908d9060040161364d565b6020604051808303816000875af11580156116a3573d6000803e3d6000fd5b505050506040513d601f19601f820116820180604052508101906116c79190613443565b9050807ff676c26b9c29896c1b70c373554a433b7b0bab995b8ac123a29daabbc74d8f388b8b8b8b8b898960405161170597969594939291906136ad565b60405180910390a29998505050505050505050565b6040805161010081018252600080825260208201819052918101829052606081018290526080810182905260a0810182905260c0810182905260e08101919091526003546001600160a01b031661176e5790565b60408051610100810182526003546001600160a01b03168082528251637e062a3560e11b81529251919260208085019363fc0c546a9260048082019392918290030181865afa1580156117c5573d6000803e3d6000fd5b505050506040513d601f19601f820116820180604052508101906117e991906132e7565b6001600160a01b03168152602001600360009054906101000a90046001600160a01b03166001600160a01b031663d411eccb6040518163ffffffff1660e01b8152600401602060405180830381865afa15801561184a573d6000803e3d6000fd5b505050506040513d601f19601f8201168201806040525081019061186e9190613443565b8152600354604080516329dcb0cf60e01b815290516020938401936001600160a01b03909316926329dcb0cf92600480820193918290030181865afa1580156118bb573d6000803e3d6000fd5b505050506040513d601f19601f820116820180604052508101906118df9190613443565b81526003546040805163c19d93fb60e01b815290516020938401936001600160a01b039093169263c19d93fb92600480820193918290030181865afa15801561192c573d6000803e3d6000fd5b505050506040513d601f19601f82011682018060405250810190611950919061335b565b600281111561196157611961612fee565b8152600354604080516331711d1360e21b815290516020938401936001600160a01b039093169263c5c4744c92600480820193918290030181865afa1580156119ae573d6000803e3d6000fd5b505050506040513d601f19601f820116820180604052508101906119d29190613443565b8152600354604080516328a7fe8f60e11b815290516020938401936001600160a01b039093169263514ffd1e92600480820193918290030181865afa158015611a1f573d6000803e3d6000fd5b505050506040513d601f19601f82011682018060405250810190611a439190613443565b815260035460408051637c65430360e01b815290516020938401936001600160a01b0390931692637c65430392600480820193918290030181865afa158015611a90573d6000803e3d6000fd5b505050506040513d601f19601f82011682018060405250810190611ab491906136f6565b15159052919050565b611ac56124a3565b600060055460ff166003811115611ade57611ade612fee565b14611afc5760405163c56396c160e01b815260040160405180910390fd5b7f00000000000000000000000000000000000000000000000000000000000000008015611b2c5750611b2c6124d0565b15611b4a57604051635fdc219960e01b815260040160405180910390fd5b600060048681548110611b5f57611b5f613338565b60009182526020909120015460405163065dc4c160e01b81526001600160a01b039091169150819063065dc4c190610a319088908890889088906004016133f7565b60606000600260009054906101000a90046001600160a01b03166001600160a01b03166375794a3c6040518163ffffffff1660e01b8152600401602060405180830381865afa158015611bf8573d6000803e3d6000fd5b505050506040513d601f19601f82011682018060405250810190611c1c9190613443565b9050806001600160401b03811115611c3657611c3661345c565b604051908082528060200260200182016040528015611cb357816020015b611ca06040518061010001604052806000815260200160608152602001606081526020016000815260200160008152602001606081526020016000151581526020016000151581525090565b815260200190600190039081611c545790505b50915060005b81811015611e20576002546040516376aed2e160e01b8152600481018390526000916001600160a01b0316906376aed2e190602401600060405180830381865afa158015611d0b573d6000803e3d6000fd5b505050506040513d6000823e601f3d908101601f19168201604052611d339190810190613540565b604080516101008101825284815282516020808301919091528301518183015282820151606080830191909152830151608082015260025491516303a24d0760e21b8152600481018690529293509160a08301916001600160a01b031690630e89341c90602401600060405180830381865afa158015611db7573d6000803e3d6000fd5b505050506040513d6000823e601f3d908101601f19168201604052611ddf9190810190613713565b81526020018260800151151581526020018260a001511515815250848381518110611e0c57611e0c613338565b602090810291909101015250600101611cb9565b505090565b611e656040805160e08101825260008082526020820181905290918201908152602001600081526020016000815260200160608152602001606081525090565b600060048381548110611e7a57611e7a613338565b9060005260206000200160009054906101000a90046001600160a01b031690506040518060e00160405280826001600160a01b03168152602001826001600160a01b03166317d70f7c6040518163ffffffff1660e01b8152600401602060405180830381865afa158015611ef2573d6000803e3d6000fd5b505050506040513d601f19601f82011682018060405250810190611f169190613443565b8152602001826001600160a01b031663c19d93fb6040518163ffffffff1660e01b8152600401602060405180830381865afa158015611f59573d6000803e3d6000fd5b505050506040513d601f19601f82011682018060405250810190611f7d919061335b565b6002811115611f8e57611f8e612fee565b8152602001826001600160a01b031663734b2a7c6040518163ffffffff1660e01b8152600401602060405180830381865afa158015611fd1573d6000803e3d6000fd5b505050506040513d601f19601f82011682018060405250810190611ff59190613443565b8152602001826001600160a01b031663343540686040518163ffffffff1660e01b8152600401602060405180830381865afa158015612038573d6000803e3d6000fd5b505050506040513d601f19601f8201168201806040525081019061205c9190613443565b8152602001826001600160a01b031663913b722c6040518163ffffffff1660e01b8152600401600060405180830381865afa15801561209f573d6000803e3d6000fd5b505050506040513d6000823e601f3d908101601f191682016040526120c7919081019061376a565b8152602001826001600160a01b0316633d370b4e6040518163ffffffff1660e01b8152600401600060405180830381865afa15801561210a573d6000803e3d6000fd5b505050506040513d6000823e601f3d908101601f191682016040526121329190810190613803565b90529392505050565b6121436124a3565b600060055460ff16600381111561215c5761215c612fee565b1461217a5760405163c56396c160e01b815260040160405180910390fd5b6005805460ff19166003908117909155546001600160a01b03161580159061221e57506003546040805163c19d93fb60e01b815290516000926001600160a01b03169163c19d93fb9160048083019260209291908290030181865afa1580156121e7573d6000803e3d6000fd5b505050506040513d601f19601f8201168201806040525081019061220b919061335b565b600281111561221c5761221c612fee565b145b1561228c57600360009054906101000a90046001600160a01b03166001600160a01b031663ea8a1af06040518163ffffffff1660e01b8152600401600060405180830381600087803b15801561227357600080fd5b505af1158015612287573d6000803e3d6000fd5b505050505b6040517f67bf688eab66645873ad05ef269035a996665a0d3f1e4fe0d58a864e3c5ecd4890600090a1565b6004546060906001600160401b038111156122d4576122d461345c565b60405190808252806020026020018201604052801561234557816020015b6123326040805160e08101825260008082526020820181905290918201908152602001600081526020016000815260200160608152602001606081525090565b8152602001906001900390816122f25790505b50905060005b6004548110156123835761235e81611e25565b82828151811061237057612370613338565b602090810291909101015260010161234b565b5090565b61238f61267b565b60035460408051637e062a3560e11b815290516000926001600160a01b03169163fc0c546a9160048083019260209291908290030181865afa1580156123d9573d6000803e3d6000fd5b505050506040513d601f19601f820116820180604052508101906123fd91906132e7565b90506124146001600160a01b0382163330856127f2565b60035461242e906001600160a01b0383811691168461285f565b600354604051631f49268760e31b8152336004820152602481018490526001600160a01b039091169063fa49343890604401610b3b565b61246d6124a3565b6001600160a01b03811661249757604051631e4fbdf760e01b815260006004820152602401610740565b6124a08161262b565b50565b6000546001600160a01b03163314610e195760405163118cdaa760e01b8152336004820152602401610740565b6003546000906001600160a01b0316158015906125585750600354604080516331711d1360e21b815290516000926001600160a01b03169163c5c4744c9160048083019260209291908290030181865afa158015612532573d6000803e3d6000fd5b505050506040513d601f19601f820116820180604052508101906125569190613443565b115b905090565b6002546040516376aed2e160e01b8152600481018390526000916001600160a01b0316906376aed2e190602401600060405180830381865afa1580156125a7573d6000803e3d6000fd5b505050506040513d6000823e601f3d908101601f191682016040526125cf9190810190613540565b6040810151909150156126275760006125e7836128ef565b90508160400151811115612625576040808301519051633e39af0560e11b815260048101859052602481018390526044810191909152606401610740565b505b5050565b600080546001600160a01b038381166001600160a01b0319831681178455604051919092169283917f8be0079c531659141344cd1fd0a4f28419497f9722a3daafe3b4186f6b6457e09190a35050565b600060055460ff16600381111561269457612694612fee565b146126b25760405163c56396c160e01b815260040160405180910390fd5b6003546001600160a01b03166126db576040516311567f6160e11b815260040160405180910390fd5b7f000000000000000000000000000000000000000000000000000000000000000015610e19576004546000036127245760405163be1a104d60e01b815260040160405180910390fd5b60005b6004548110156124a05760016004828154811061274657612746613338565b600091825260209182902001546040805163c19d93fb60e01b815290516001600160a01b039092169263c19d93fb926004808401938290030181865afa158015612794573d6000803e3d6000fd5b505050506040513d601f19601f820116820180604052508101906127b8919061335b565b60028111156127c9576127c9612fee565b146127ea576040516319e5d30960e01b815260048101829052602401610740565b600101612727565b6040516001600160a01b0384811660248301528381166044830152606482018390526128599186918216906323b872dd906084015b604051602081830303815290604052915060e01b6020820180516001600160e01b038381831617835250505050612a18565b50505050565b604080516001600160a01b038416602482015260448082018490528251808303909101815260649091019091526020810180516001600160e01b031663095ea7b360e01b1790526128b08482612a7b565b612859576040516001600160a01b038481166024830152600060448301526128e591869182169063095ea7b390606401612827565b6128598482612a18565b6000805b600454811015612a125760006004828154811061291257612912613338565b9060005260206000200160009054906101000a90046001600160a01b0316905083816001600160a01b03166317d70f7c6040518163ffffffff1660e01b8152600401602060405180830381865afa158015612971573d6000803e3d6000fd5b505050506040513d601f19601f820116820180604052508101906129959190613443565b03612a0957806001600160a01b031663343540686040518163ffffffff1660e01b8152600401602060405180830381865afa1580156129d8573d6000803e3d6000fd5b505050506040513d601f19601f820116820180604052508101906129fc9190613443565b612a06908461388e565b92505b506001016128f3565b50919050565b6000612a2d6001600160a01b03841683612b25565b90508051600014158015612a52575080806020019051810190612a5091906136f6565b155b1561262557604051635274afe760e01b81526001600160a01b0384166004820152602401610740565b6000806000846001600160a01b031684604051612a9891906138a1565b6000604051808303816000865af19150503d8060008114612ad5576040519150601f19603f3d011682016040523d82523d6000602084013e612ada565b606091505b5091509150818015612b04575080511580612b04575080806020019051810190612b0491906136f6565b8015612b1a57506000856001600160a01b03163b115b925050505b92915050565b6060612b3383836000612b3a565b9392505050565b606081471015612b5f5760405163cd78605960e01b8152306004820152602401610740565b600080856001600160a01b03168486604051612b7b91906138a1565b60006040518083038185875af1925050503d8060008114612bb8576040519150601f19603f3d011682016040523d82523d6000602084013e612bbd565b606091505b5091509150612bcd868383612bd7565b9695505050505050565b606082612bec57612be782612c33565b612b33565b8151158015612c0357506001600160a01b0384163b155b15612c2c57604051639996b31560e01b81526001600160a01b0385166004820152602401610740565b5080612b33565b805115612c435780518082602001fd5b604051630a12f52160e11b815260040160405180910390fd5b6001600160a01b03811681146124a057600080fd5b600080600060608486031215612c8657600080fd5b8335612c9181612c5c565b95602085013595506040909401359392505050565b60005b83811015612cc1578181015183820152602001612ca9565b50506000910152565b60008151808452612ce2816020860160208601612ca6565b601f01601f19169290920160200192915050565b602081526000612b336020830184612cca565b600060208284031215612d1b57600080fd5b5035919050565b60008083601f840112612d3457600080fd5b5081356001600160401b03811115612d4b57600080fd5b6020830191508360208260051b8501011115612d6657600080fd5b9250929050565b600080600080600060608688031215612d8557600080fd5b8535945060208601356001600160401b03811115612da257600080fd5b612dae88828901612d22565b90955093505060408601356001600160401b03811115612dcd57600080fd5b612dd988828901612d22565b969995985093965092949392505050565b60008060408385031215612dfd57600080fd5b8235612e0881612c5c565b946020939093013593505050565b600060208284031215612e2857600080fd5b8135612b3381612c5c565b600080600080600060a08688031215612e4b57600080fd5b8535945060208601359350604086013560ff81168114612e6a57600080fd5b94979396509394606081013594506080013592915050565b600080600060408486031215612e9757600080fd5b8335925060208401356001600160401b03811115612eb457600080fd5b612ec086828701612d22565b9497909650939450505050565b60008083601f840112612edf57600080fd5b5081356001600160401b03811115612ef657600080fd5b602083019150836020828501011115612d6657600080fd5b80151581146124a057600080fd5b600080600080600080600080600060c08a8c031215612f3a57600080fd5b89356001600160401b03811115612f5057600080fd5b612f5c8c828d01612ecd565b909a5098505060208a01356001600160401b03811115612f7b57600080fd5b612f878c828d01612ecd565b90985096505060408a0135945060608a01356001600160401b03811115612fad57600080fd5b612fb98c828d01612ecd565b90955093505060808a0135612fcd81612f0e565b915060a08a0135612fdd81612f0e565b809150509295985092959850929598565b634e487b7160e01b600052602160045260246000fd5b600381106124a0576124a0612fee565b81516001600160a01b039081168252602080840151909116908201526040808301519082015260608083015190820152608082015161010082019061305881613004565b8060808401525060a083015160a083015260c083015160c083015260e0830151151560e083015292915050565b602081016004831061309957613099612fee565b91905290565b6000602082016020835280845180835260408501915060408160051b86010192506020860160005b8281101561318257603f19878603018452815180518652602081015161010060208801526130f9610100880182612cca565b9050604082015187820360408901526131128282612cca565b915050606082015160608801526080820151608088015260a082015187820360a08901526131408282612cca565b91505060c082015161315660c089018215159052565b5060e0820151915061316c60e088018315159052565b95505060209384019391909101906001016130c7565b50929695505050505050565b600081518084526020840193506020830160005b828110156131c05781518652602095860195909101906001016131a2565b5093949350505050565b80516001600160a01b0316825260208082015190830152604081015160009060e08401906131f781613004565b80604086015250606083015160608501526080830151608085015260a083015160e060a086015281815180845261010087019150602083019350600092505b808310156132615783516001600160a01b031682526020938401936001939093019290910190613236565b5060c0850151925085810360c0870152612bcd818461318e565b602081526000612b3360208301846131ca565b6000602082016020835280845180835260408501915060408160051b86010192506020860160005b8281101561318257603f198786030184526132d28583516131ca565b945060209384019391909101906001016132b6565b6000602082840312156132f957600080fd5b8151612b3381612c5c565b600181811c9082168061331857607f821691505b602082108103612a1257634e487b7160e01b600052602260045260246000fd5b634e487b7160e01b600052603260045260246000fd5b600381106124a057600080fd5b60006020828403121561336d57600080fd5b8151612b338161334e565b634e487b7160e01b600052601160045260246000fd5b81810381811115612b1f57612b1f613378565b634e487b7160e01b600052603160045260246000fd5b81835260208301925060008160005b848110156131c05781356133d981612c5c565b6001600160a01b0316865260209586019591909101906001016133c6565b60408152600061340b6040830186886133b7565b82810360208401528381526001600160fb1b0384111561342a57600080fd5b8360051b80866020840137016020019695505050505050565b60006020828403121561345557600080fd5b5051919050565b634e487b7160e01b600052604160045260246000fd5b60405160c081016001600160401b03811182821017156134945761349461345c565b60405290565b604051601f8201601f191681016001600160401b03811182821017156134c2576134c261345c565b604052919050565b600082601f8301126134db57600080fd5b81516001600160401b038111156134f4576134f461345c565b613507601f8201601f191660200161349a565b81815284602083860101111561351c57600080fd5b61352d826020830160208701612ca6565b949350505050565b80516110cf81612f0e565b60006020828403121561355257600080fd5b81516001600160401b0381111561356857600080fd5b820160c0818503121561357a57600080fd5b613582613472565b81516001600160401b0381111561359857600080fd5b6135a4868285016134ca565b82525060208201516001600160401b038111156135c057600080fd5b6135cc868285016134ca565b60208301525060408281015190820152606080830151908201526135f260808301613535565b608082015261360360a08301613535565b60a0820152949350505050565b60208152600061352d6020830184866133b7565b81835281816020850137506000828201602090810191909152601f909101601f19169091010190565b60c08152600061366160c083018b8d613624565b8281036020840152613674818a8c613624565b9050876040840152828103606084015261368f818789613624565b9415156080840152505090151560a090910152979650505050505050565b60a0815260006136c160a08301898b613624565b82810360208401526136d481888a613624565b6040840196909652505091151560608301521515608090910152949350505050565b60006020828403121561370857600080fd5b8151612b3381612f0e565b60006020828403121561372557600080fd5b81516001600160401b0381111561373b57600080fd5b61352d848285016134ca565b60006001600160401b038211156137605761376061345c565b5060051b60200190565b60006020828403121561377c57600080fd5b81516001600160401b0381111561379257600080fd5b8201601f810184136137a357600080fd5b80516137b66137b182613747565b61349a565b8082825260208201915060208360051b8501019250868311156137d857600080fd5b6020840193505b82841015612bcd5783516137f281612c5c565b8252602093840193909101906137df565b60006020828403121561381557600080fd5b81516001600160401b0381111561382b57600080fd5b8201601f8101841361383c57600080fd5b805161384a6137b182613747565b8082825260208201915060208360051b85010192508683111561386c57600080fd5b6020840193505b82841015612bcd578351825260209384019390910190613873565b80820180821115612b1f57612b1f613378565b600082516138b3818460208701612ca6565b919091019291505056fea26469706673582212203c23ad78448ecaff437314613bfbd79b90bac9036db927a2f216460883c0dddd64736f6c634300081e0033a26469706673582212205978c3d53377a2623ec48b4a615c6cc8280c99b364c1b8db1947de31173d788f64736f6c634300081e0033",
  "devdoc": {
    "errors": {
      "OwnableInvalidOwner(address)": [
        {
          "details": "The owner is not a valid owner account. (eg. `address(0)`)"
        }
      ],
      "OwnableUnauthorizedAccount(address)": [
        {
          "details": "The caller account is not authorized to perform an operation."
        }
      ]
    },
    "kind": "dev",
    "methods": {
      "owner()": {
        "details": "Returns the address of the current owner."
      },
      "renounceOwnership()": {
        "details": "Leaves the contract without owner. It will not be possible to call `onlyOwner` functions. Can only be called by the current owner. NOTE: Renouncing ownership will leave the contract without an owner, thereby disabling any functionality that is only available to the owner."
      },
      "transferOwnership(address)": {
        "details": "Transfers ownership of the contract to a new account (`newOwner`). Can only be called by the current owner."
      }
    },
    "title": "CGProgramFactory — Deploys CGProgram instances",
    "version": 1
  },
  "userdoc": {
    "kind": "user",
    "methods": {
      "authorizeCaller(address,bool)": {
        "notice": "Authorize or deauthorize a caller (e.g. a CGOrganization). Only callable by owner (CGRegistry)."
      },
      "createProgram(address,string,bool)": {
        "notice": "Deploy a new CGProgram. Only callable by authorized callers."
      }
    },
    "notice": "Only authorized callers (CGOrganizations created via CGRegistry) can use createProgram.         Ownership should be transferred to CGRegistry after deployment.         A shared CGComponentFactory is injected so CGProgram never uses `new` directly,         keeping every contract under the 24 KB Spurious Dragon limit.",
    "version": 1
  },
  "storageLayout": {
    "storage": [
      {
        "astId": 8,
        "contract": "contracts/CGProgramFactory.sol:CGProgramFactory",
        "label": "_owner",
        "offset": 0,
        "slot": "0",
        "type": "t_address"
      },
      {
        "astId": 7474,
        "contract": "contracts/CGProgramFactory.sol:CGProgramFactory",
        "label": "authorizedCallers",
        "offset": 0,
        "slot": "1",
        "type": "t_mapping(t_address,t_bool)"
      }
    ],
    "types": {
      "t_address": {
        "encoding": "inplace",
        "label": "address",
        "numberOfBytes": "20"
      },
      "t_bool": {
        "encoding": "inplace",
        "label": "bool",
        "numberOfBytes": "1"
      },
      "t_mapping(t_address,t_bool)": {
        "encoding": "mapping",
        "key": "t_address",
        "label": "mapping(address => bool)",
        "numberOfBytes": "32",
        "value": "t_bool"
      }
    }
  }
}