{
  "address": "0xdf32E8a18E850972D0995EEE1170b8Ea59Ba59fE",
  "abi": [
    {
      "inputs": [
        {
          "internalType": "contract CGComponentFactory",
          "name": "componentFactory_",
          "type": "address"
        }
      ],
      "stateMutability": "nonpayable",
      "type": "constructor"
    },
    {
      "inputs": [
        {
          "internalType": "address",
          "name": "owner",
          "type": "address"
        }
      ],
      "name": "OwnableInvalidOwner",
      "type": "error"
    },
    {
      "inputs": [
        {
          "internalType": "address",
          "name": "account",
          "type": "address"
        }
      ],
      "name": "OwnableUnauthorizedAccount",
      "type": "error"
    },
    {
      "inputs": [],
      "name": "Unauthorized",
      "type": "error"
    },
    {
      "anonymous": false,
      "inputs": [
        {
          "indexed": true,
          "internalType": "address",
          "name": "caller",
          "type": "address"
        },
        {
          "indexed": false,
          "internalType": "bool",
          "name": "authorized",
          "type": "bool"
        }
      ],
      "name": "CallerAuthorized",
      "type": "event"
    },
    {
      "anonymous": false,
      "inputs": [
        {
          "indexed": true,
          "internalType": "address",
          "name": "previousOwner",
          "type": "address"
        },
        {
          "indexed": true,
          "internalType": "address",
          "name": "newOwner",
          "type": "address"
        }
      ],
      "name": "OwnershipTransferred",
      "type": "event"
    },
    {
      "anonymous": false,
      "inputs": [
        {
          "indexed": true,
          "internalType": "address",
          "name": "program",
          "type": "address"
        },
        {
          "indexed": true,
          "internalType": "address",
          "name": "owner",
          "type": "address"
        },
        {
          "indexed": false,
          "internalType": "string",
          "name": "name",
          "type": "string"
        }
      ],
      "name": "ProgramDeployed",
      "type": "event"
    },
    {
      "inputs": [
        {
          "internalType": "address",
          "name": "caller_",
          "type": "address"
        },
        {
          "internalType": "bool",
          "name": "authorized_",
          "type": "bool"
        }
      ],
      "name": "authorizeCaller",
      "outputs": [],
      "stateMutability": "nonpayable",
      "type": "function"
    },
    {
      "inputs": [
        {
          "internalType": "address",
          "name": "",
          "type": "address"
        }
      ],
      "name": "authorizedCallers",
      "outputs": [
        {
          "internalType": "bool",
          "name": "",
          "type": "bool"
        }
      ],
      "stateMutability": "view",
      "type": "function"
    },
    {
      "inputs": [],
      "name": "componentFactory",
      "outputs": [
        {
          "internalType": "contract CGComponentFactory",
          "name": "",
          "type": "address"
        }
      ],
      "stateMutability": "view",
      "type": "function"
    },
    {
      "inputs": [
        {
          "internalType": "address",
          "name": "owner_",
          "type": "address"
        },
        {
          "internalType": "string",
          "name": "name_",
          "type": "string"
        },
        {
          "internalType": "bool",
          "name": "lockDistributions_",
          "type": "bool"
        }
      ],
      "name": "createProgram",
      "outputs": [
        {
          "internalType": "address",
          "name": "",
          "type": "address"
        }
      ],
      "stateMutability": "nonpayable",
      "type": "function"
    },
    {
      "inputs": [],
      "name": "owner",
      "outputs": [
        {
          "internalType": "address",
          "name": "",
          "type": "address"
        }
      ],
      "stateMutability": "view",
      "type": "function"
    },
    {
      "inputs": [],
      "name": "renounceOwnership",
      "outputs": [],
      "stateMutability": "nonpayable",
      "type": "function"
    },
    {
      "inputs": [
        {
          "internalType": "address",
          "name": "newOwner",
          "type": "address"
        }
      ],
      "name": "transferOwnership",
      "outputs": [],
      "stateMutability": "nonpayable",
      "type": "function"
    }
  ],
  "transactionHash": "0xac46806f91ea3f6b2ecf7998eb4b1d0c457f7135b03a275124dc99a8ab717166",
  "args": [
    "0xaCb44Add7F4ca79cc370d2905D3B13B7626601e1"
  ],
  "numDeployments": 1,
  "solcInputHash": "0b9d020a859d3048c6de53979f2f83e8",
  "bytecode": "0x60a060405234801561001057600080fd5b50604051613d85380380613d8583398101604081905261002f916100c0565b338061005557604051631e4fbdf760e01b81526000600482015260240160405180910390fd5b61005e81610070565b506001600160a01b03166080526100f0565b600080546001600160a01b038381166001600160a01b0319831681178455604051919092169283917f8be0079c531659141344cd1fd0a4f28419497f9722a3daafe3b4186f6b6457e09190a35050565b6000602082840312156100d257600080fd5b81516001600160a01b03811681146100e957600080fd5b9392505050565b608051613c736101126000396000818161010501526101980152613c736000f3fe608060405234801561001057600080fd5b506004361061007d5760003560e01c80638da5cb5b1161005b5780638da5cb5b146100ef578063bef1b22914610100578063f2fde38b14610127578063fcc55e581461013a57600080fd5b8063536fff6c14610082578063715018a6146100ba5780638d1227c7146100c4575b600080fd5b6100a561009036600461039c565b60016020526000908152604090205460ff1681565b60405190151581526020015b60405180910390f35b6100c261014d565b005b6100d76100d23660046103ce565b610161565b6040516001600160a01b0390911681526020016100b1565b6000546001600160a01b03166100d7565b6100d77f000000000000000000000000000000000000000000000000000000000000000081565b6100c261013536600461039c565b61024c565b6100c2610148366004610464565b61028f565b6101556102f6565b61015f6000610323565b565b3360009081526001602052604081205460ff16610190576040516282b42960e81b815260040160405180910390fd5b6000858585857f00000000000000000000000000000000000000000000000000000000000000006040516101c390610373565b6101d19594939291906104c0565b604051809103906000f0801580156101ed573d6000803e3d6000fd5b5090506000819050866001600160a01b0316816001600160a01b03167f29fe3e202b5361940b8e34f0a2c59d7c403a7339f1328582d2548407d2f2ba8c888860405161023a929190610507565b60405180910390a39695505050505050565b6102546102f6565b6001600160a01b03811661028357604051631e4fbdf760e01b8152600060048201526024015b60405180910390fd5b61028c81610323565b50565b6102976102f6565b6001600160a01b038216600081815260016020908152604091829020805460ff191685151590811790915591519182527f100c9fd652c7b273c9266f92f22ac2352eb8d7232013ac0439e9066a9227f369910160405180910390a25050565b6000546001600160a01b0316331461015f5760405163118cdaa760e01b815233600482015260240161027a565b600080546001600160a01b038381166001600160a01b0319831681178455604051919092169283917f8be0079c531659141344cd1fd0a4f28419497f9722a3daafe3b4186f6b6457e09190a35050565b61371a8061052483390190565b80356001600160a01b038116811461039757600080fd5b919050565b6000602082840312156103ae57600080fd5b6103b782610380565b9392505050565b8035801515811461039757600080fd5b600080600080606085870312156103e457600080fd5b6103ed85610380565b9350602085013567ffffffffffffffff81111561040957600080fd5b8501601f8101871361041a57600080fd5b803567ffffffffffffffff81111561043157600080fd5b87602082840101111561044357600080fd5b60209190910193509150610459604086016103be565b905092959194509250565b6000806040838503121561047757600080fd5b61048083610380565b915061048e602084016103be565b90509250929050565b81835281816020850137506000828201602090810191909152601f909101601f19169091010190565b6001600160a01b03861681526080602082018190526000906104e59083018688610497565b9315156040830152506001600160a01b03919091166060909101529392505050565b60208152600061051b602083018486610497565b94935050505056fe60c060405234801561001057600080fd5b5060405161371a38038061371a83398101604081905261002f91610218565b836001600160a01b03811661005e57604051631e4fbdf760e01b81526000600482015260240160405180910390fd5b61006781610156565b5060016100748482610389565b508115156080526001600160a01b03811660a081905260405163c21ab7f960e01b815230600482015263c21ab7f9906024016020604051808303816000875af11580156100c5573d6000803e3d6000fd5b505050506040513d601f19601f820116820180604052508101906100e99190610447565b600280546001600160a01b0319166001600160a01b039290921691821790556005805460ff191690556040517f55b75d10e7fa995338af76a49c923b65df31328082ec974041e6322b9bd7e49c9161014591869190869061046b565b60405180910390a1505050506104b6565b600080546001600160a01b038381166001600160a01b0319831681178455604051919092169283917f8be0079c531659141344cd1fd0a4f28419497f9722a3daafe3b4186f6b6457e09190a35050565b6001600160a01b03811681146101bb57600080fd5b50565b634e487b7160e01b600052604160045260246000fd5b60005b838110156101ef5781810151838201526020016101d7565b50506000910152565b8051801515811461020857600080fd5b919050565b8051610208816101a6565b6000806000806080858703121561022e57600080fd5b8451610239816101a6565b60208601519094506001600160401b0381111561025557600080fd5b8501601f8101871361026657600080fd5b80516001600160401b0381111561027f5761027f6101be565b604051601f8201601f19908116603f011681016001600160401b03811182821017156102ad576102ad6101be565b6040528181528282016020018910156102c557600080fd5b6102d68260208301602086016101d4565b94506102e7915050604086016101f8565b91506102f56060860161020d565b905092959194509250565b600181811c9082168061031457607f821691505b60208210810361033457634e487b7160e01b600052602260045260246000fd5b50919050565b601f82111561038457806000526020600020601f840160051c810160208510156103615750805b601f840160051c820191505b81811015610381576000815560010161036d565b50505b505050565b81516001600160401b038111156103a2576103a26101be565b6103b6816103b08454610300565b8461033a565b6020601f8211600181146103ea57600083156103d25750848201515b600019600385901b1c1916600184901b178455610381565b600084815260208120601f198516915b8281101561041a57878501518255602094850194600190920191016103fa565b50848210156104385786840151600019600387901b60f8161c191681555b50505050600190811b01905550565b60006020828403121561045957600080fd5b8151610464816101a6565b9392505050565b606081526000845180606084015261048a8160808501602089016101d4565b6001600160a01b039490941660208301525090151560408201526080601f909201601f19160101919050565b60805160a05161320e61050c600039600081816103b901528181610ea301526110b50152600081816102a7015281816108da01528181610db3015281816113b9015281816118050152611b8e015261320e6000f3fe6080604052600436106101815760003560e01c8063b7075221116100d1578063c853a1d01161008a578063ea8a1af011610064578063ea8a1af01461048e578063f116dbed146104a3578063f2fde38b146104c5578063fc0c546a146104e557600080fd5b8063c853a1d014610437578063d7bb99ba14610459578063e08ed6221461046157600080fd5b8063b707522114610357578063bbd3ad7514610385578063bef1b229146103a7578063c1438cec146103db578063c19d93fb146103fb578063c65c3d951461042257600080fd5b8063715018a61161013e57806380c173f21161011857806380c173f2146102d95780638da5cb5b146102f9578063b565a73614610317578063b6b572f61461033757600080fd5b8063715018a61461026057806372fa39d11461027557806374bddd411461029557600080fd5b806306fdde03146101865780633a211d0e146101b15780634487d3df146101d35780634ed062201461020b57806356885cd81461022b578063614619541461024b575b600080fd5b34801561019257600080fd5b5061019b610505565b6040516101a8919061267d565b60405180910390f35b3480156101bd57600080fd5b506101d16101cc366004612697565b610593565b005b3480156101df57600080fd5b506101f36101ee366004612697565b61086f565b6040516001600160a01b0390911681526020016101a8565b34801561021757600080fd5b506101d16102263660046126fb565b610899565b34801561023757600080fd5b506003546101f3906001600160a01b031681565b34801561025757600080fd5b506101d1610a21565b34801561026c57600080fd5b506101d1610d5c565b34801561028157600080fd5b506101f3610290366004612697565b610d70565b3480156102a157600080fd5b506102c97f000000000000000000000000000000000000000000000000000000000000000081565b60405190151581526020016101a8565b3480156102e557600080fd5b506101d16102f4366004612778565b611029565b34801561030557600080fd5b506000546001600160a01b03166101f3565b34801561032357600080fd5b506101d1610332366004612697565b611180565b34801561034357600080fd5b506101d161035236600461279a565b611378565b34801561036357600080fd5b50610377610372366004612834565b61148a565b6040519081526020016101a8565b34801561039157600080fd5b5061039a6115a1565b6040516101a8919061292c565b3480156103b357600080fd5b506101f37f000000000000000000000000000000000000000000000000000000000000000081565b3480156103e757600080fd5b506101d16103f63660046126fb565b6117c4565b34801561040757600080fd5b506005546104159060ff1681565b6040516101a89190612977565b34801561042e57600080fd5b50600454610377565b34801561044357600080fd5b5061044c6118a8565b6040516101a8919061298a565b6101d1611b2c565b34801561046d57600080fd5b5061048161047c366004612697565b611d06565b6040516101a89190612b75565b34801561049a57600080fd5b506101d161201c565b3480156104af57600080fd5b506104b861221e565b6040516101a89190612b88565b3480156104d157600080fd5b506101d16104e0366004612bf6565b6122ee565b3480156104f157600080fd5b506002546101f3906001600160a01b031681565b6001805461051290612c13565b80601f016020809104026020016040519081016040528092919081815260200182805461053e90612c13565b801561058b5780601f106105605761010080835404028352916020019161058b565b820191906000526020600020905b81548152906001019060200180831161056e57829003601f168201915b505050505081565b61059b61232c565b600060055460ff1660038111156105b4576105b4612906565b146105d25760405163c56396c160e01b815260040160405180910390fd5b6000600482815481106105e7576105e7612c47565b600091825260209182902001546040805163c19d93fb60e01b815290516001600160a01b039092169263c19d93fb926004808401938290030181865afa158015610635573d6000803e3d6000fd5b505050506040513d601f19601f820116820180604052508101906106599190612c5d565b9050600281600281111561066f5761066f612906565b036106955760405163099a284d60e21b8152600481018390526024015b60405180910390fd5b60018160028111156106a9576106a9612906565b1480156106b957506106b9612359565b156106d7576040516366aefd8160e01b815260040160405180910390fd5b6000600483815481106106ec576106ec612c47565b600091825260208220015460025460405163d69c374160e01b81526001600160a01b03928316600482018190526024820194909452929350169063d69c374190604401600060405180830381600087803b15801561074957600080fd5b505af115801561075d573d6000803e3d6000fd5b5050600454600092506107739150600190612c94565b90508084146107ea576004818154811061078f5761078f612c47565b600091825260209091200154600480546001600160a01b0390921691869081106107bb576107bb612c47565b9060005260206000200160006101000a8154816001600160a01b0302191690836001600160a01b031602179055505b60048054806107fb576107fb612cad565b600082815260209020810160001990810180546001600160a01b03191690550190556040517f1315c13f80a48a728a6414f6bc252032ea3709d201ac0713dee21d4bbc075e0a9061086190869085909182526001600160a01b0316602082015260400190565b60405180910390a150505050565b6004818154811061087f57600080fd5b6000918252602090912001546001600160a01b0316905081565b6108a161232c565b600060055460ff1660038111156108ba576108ba612906565b146108d85760405163c56396c160e01b815260040160405180910390fd5b7f000000000000000000000000000000000000000000000000000000000000000080156109085750610908612359565b1561092657604051635fdc219960e01b815260040160405180910390fd5b60006004868154811061093b5761093b612c47565b60009182526020909120015460405163a961065560e01b81526001600160a01b039091169150819063a96106559061097d908890889088908890600401612d03565b600060405180830381600087803b15801561099757600080fd5b505af11580156109ab573d6000803e3d6000fd5b50505050610a19816001600160a01b03166317d70f7c6040518163ffffffff1660e01b8152600401602060405180830381865afa1580156109f0573d6000803e3d6000fd5b505050506040513d601f19601f82011682018060405250810190610a149190612d4f565b6123e6565b505050505050565b610a2961232c565b600060055460ff166003811115610a4257610a42612906565b14610a605760405163c56396c160e01b815260040160405180910390fd5b6003546001600160a01b0316610a89576040516311567f6160e11b815260040160405180910390fd5b600454600003610aac5760405163be1a104d60e01b815260040160405180910390fd5b6003546040805163c19d93fb60e01b815290516001926001600160a01b03169163c19d93fb9160048083019260209291908290030181865afa158015610af6573d6000803e3d6000fd5b505050506040513d601f19601f82011682018060405250810190610b1a9190612d68565b6003811115610b2b57610b2b612906565b14610b495760405163e30cd5a160e01b815260040160405180910390fd5b60005b600454811015610c1757600160048281548110610b6b57610b6b612c47565b600091825260209182902001546040805163c19d93fb60e01b815290516001600160a01b039092169263c19d93fb926004808401938290030181865afa158015610bb9573d6000803e3d6000fd5b505050506040513d601f19601f82011682018060405250810190610bdd9190612c5d565b6002811115610bee57610bee612906565b14610c0f576040516319e5d30960e01b81526004810182905260240161068c565b600101610b4c565b506005805460ff191660011790556003546000546001600160a01b03918216916351cff8d991166040516001600160e01b031960e084901b1681526001600160a01b039091166004820152602401600060405180830381600087803b158015610c7f57600080fd5b505af1158015610c93573d6000803e3d6000fd5b5050505060005b600454811015610d235760048181548110610cb757610cb7612c47565b60009182526020822001546040805163e4fc6b6d60e01b815290516001600160a01b039092169263e4fc6b6d9260048084019382900301818387803b158015610cff57600080fd5b505af1158015610d13573d6000803e3d6000fd5b505060019092019150610c9a9050565b506005805460ff191660021790556040517f758312a9b18cce391880c3864dcf83bf239fd5e92d96646fe7ce5f20c3a8bb3a90600090a1565b610d6461232c565b610d6e60006124b4565b565b6000610d7a61232c565b600060055460ff166003811115610d9357610d93612906565b14610db15760405163c56396c160e01b815260040160405180910390fd5b7f00000000000000000000000000000000000000000000000000000000000000008015610de15750610de1612359565b15610dff57604051635fdc219960e01b815260040160405180910390fd5b6002546040516376aed2e160e01b8152600481018490526001600160a01b03909116906376aed2e190602401600060405180830381865afa158015610e48573d6000803e3d6000fd5b505050506040513d6000823e601f3d908101601f19168201604052610e709190810190612e6d565b506002546040516359311ab760e11b81523060048201526001600160a01b039182166024820152604481018490526000917f0000000000000000000000000000000000000000000000000000000000000000169063b262356e906064016020604051808303816000875af1158015610eec573d6000803e3d6000fd5b505050506040513d601f19601f82011682018060405250810190610f109190612f3d565b600480546001808201835560008390527f8a35acfbc15ff81a39ae7d344fd709f28e8600b4aa8c65c6b64bfe7fe36bd19b90910180546001600160a01b0319166001600160a01b0385811691821790925560025460405163d69c374160e01b81529485019190915260248401929092529293509091169063d69c374190604401600060405180830381600087803b158015610faa57600080fd5b505af1158015610fbe573d6000803e3d6000fd5b505060045460009250610fd49150600190612c94565b604080518281526001600160a01b03851660208201529081018690529091507fd120877de59fd387dfa9bf53184bec3ec55f0514932430f3a54ef181431f8caa9060600160405180910390a15090505b919050565b61103161232c565b600060055460ff16600381111561104a5761104a612906565b146110685760405163c56396c160e01b815260040160405180910390fd5b6003546001600160a01b0316156110925760405163572f76a960e11b815260040160405180910390fd5b60405163dddbc22160e01b815230600482015260248101839052604481018290527f00000000000000000000000000000000000000000000000000000000000000006001600160a01b03169063dddbc221906064016020604051808303816000875af1158015611106573d6000803e3d6000fd5b505050506040513d601f19601f8201168201806040525081019061112a9190612f3d565b600380546001600160a01b0319166001600160a01b039290921691821790556040519081527f1e427d29b6464e128b84d435e4323138601fa209d2ffdeabc59d96f6803187a89060200160405180910390a15050565b61118861232c565b600060055460ff1660038111156111a1576111a1612906565b146111bf5760405163c56396c160e01b815260040160405180910390fd5b6000600482815481106111d4576111d4612c47565b600091825260208083209091015460408051630686a80d60e31b815290516001600160a01b03909216945084926334354068926004808401938290030181865afa158015611226573d6000803e3d6000fd5b505050506040513d601f19601f8201168201806040525081019061124a9190612d4f565b90506000826001600160a01b03166317d70f7c6040518163ffffffff1660e01b8152600401602060405180830381865afa15801561128c573d6000803e3d6000fd5b505050506040513d601f19601f820116820180604052508101906112b09190612d4f565b600254604051630ab714fb60e11b81526001600160a01b038681166004830152602482018490526044820186905292935091169063156e29f690606401600060405180830381600087803b15801561130757600080fd5b505af115801561131b573d6000803e3d6000fd5b50505050826001600160a01b0316631ca087e76040518163ffffffff1660e01b8152600401600060405180830381600087803b15801561135a57600080fd5b505af115801561136e573d6000803e3d6000fd5b5050505050505050565b61138061232c565b600060055460ff16600381111561139957611399612906565b146113b75760405163c56396c160e01b815260040160405180910390fd5b7f000000000000000000000000000000000000000000000000000000000000000080156113e757506113e7612359565b1561140557604051635fdc219960e01b815260040160405180910390fd5b6004838154811061141857611418612c47565b6000918252602090912001546040516331daa24360e21b81526001600160a01b039091169063c76a890c906114539085908590600401612f5a565b600060405180830381600087803b15801561146d57600080fd5b505af1158015611481573d6000803e3d6000fd5b50505050505050565b600061149461232c565b600060055460ff1660038111156114ad576114ad612906565b146114cb5760405163c56396c160e01b815260040160405180910390fd5b60025460405163b707522160e01b81526001600160a01b039091169063b70752219061150b908d908d908d908d908d908d908d908d908d90600401612f97565b6020604051808303816000875af115801561152a573d6000803e3d6000fd5b505050506040513d601f19601f8201168201806040525081019061154e9190612d4f565b9050807ff676c26b9c29896c1b70c373554a433b7b0bab995b8ac123a29daabbc74d8f388b8b8b8b8b898960405161158c9796959493929190612ff7565b60405180910390a29998505050505050505050565b6040805160a0810182526000808252602082018190529181018290526060810182905260808101919091526003546001600160a01b03166115df5790565b6040805160a0810182526003546001600160a01b0316808252825163d411eccb60e01b81529251919260208085019363d411eccb9260048082019392918290030181865afa158015611635573d6000803e3d6000fd5b505050506040513d601f19601f820116820180604052508101906116599190612d4f565b8152600354604080516329dcb0cf60e01b815290516020938401936001600160a01b03909316926329dcb0cf92600480820193918290030181865afa1580156116a6573d6000803e3d6000fd5b505050506040513d601f19601f820116820180604052508101906116ca9190612d4f565b81526003546040805163c19d93fb60e01b815290516020938401936001600160a01b039093169263c19d93fb92600480820193918290030181865afa158015611717573d6000803e3d6000fd5b505050506040513d601f19601f8201168201806040525081019061173b9190612d68565b600381111561174c5761174c612906565b8152600354604080516331711d1360e21b815290516020938401936001600160a01b039093169263c5c4744c92600480820193918290030181865afa158015611799573d6000803e3d6000fd5b505050506040513d601f19601f820116820180604052508101906117bd9190612d4f565b9052919050565b6117cc61232c565b600060055460ff1660038111156117e5576117e5612906565b146118035760405163c56396c160e01b815260040160405180910390fd5b7f000000000000000000000000000000000000000000000000000000000000000080156118335750611833612359565b1561185157604051635fdc219960e01b815260040160405180910390fd5b60006004868154811061186657611866612c47565b60009182526020909120015460405163065dc4c160e01b81526001600160a01b039091169150819063065dc4c19061097d908890889088908890600401612d03565b60606000600260009054906101000a90046001600160a01b03166001600160a01b03166375794a3c6040518163ffffffff1660e01b8152600401602060405180830381865afa1580156118ff573d6000803e3d6000fd5b505050506040513d601f19601f820116820180604052508101906119239190612d4f565b9050806001600160401b0381111561193d5761193d612d89565b6040519080825280602002602001820160405280156119ba57816020015b6119a76040518061010001604052806000815260200160608152602001606081526020016000815260200160008152602001606081526020016000151581526020016000151581525090565b81526020019060019003908161195b5790505b50915060005b81811015611b27576002546040516376aed2e160e01b8152600481018390526000916001600160a01b0316906376aed2e190602401600060405180830381865afa158015611a12573d6000803e3d6000fd5b505050506040513d6000823e601f3d908101601f19168201604052611a3a9190810190612e6d565b604080516101008101825284815282516020808301919091528301518183015282820151606080830191909152830151608082015260025491516303a24d0760e21b8152600481018690529293509160a08301916001600160a01b031690630e89341c90602401600060405180830381865afa158015611abe573d6000803e3d6000fd5b505050506040513d6000823e601f3d908101601f19168201604052611ae69190810190613040565b81526020018260800151151581526020018260a001511515815250848381518110611b1357611b13612c47565b6020908102919091010152506001016119c0565b505090565b600060055460ff166003811115611b4557611b45612906565b14611b635760405163c56396c160e01b815260040160405180910390fd5b6003546001600160a01b0316611b8c576040516311567f6160e11b815260040160405180910390fd5b7f000000000000000000000000000000000000000000000000000000000000000015611ca557600454600003611bd55760405163be1a104d60e01b815260040160405180910390fd5b60005b600454811015611ca357600160048281548110611bf757611bf7612c47565b600091825260209182902001546040805163c19d93fb60e01b815290516001600160a01b039092169263c19d93fb926004808401938290030181865afa158015611c45573d6000803e3d6000fd5b505050506040513d601f19601f82011682018060405250810190611c699190612c5d565b6002811115611c7a57611c7a612906565b14611c9b576040516319e5d30960e01b81526004810182905260240161068c565b600101611bd8565b505b600354604051631071865560e01b81523360048201526001600160a01b039091169063107186559034906024016000604051808303818588803b158015611ceb57600080fd5b505af1158015611cff573d6000803e3d6000fd5b5050505050565b611d466040805160e08101825260008082526020820181905290918201908152602001600081526020016000815260200160608152602001606081525090565b600060048381548110611d5b57611d5b612c47565b9060005260206000200160009054906101000a90046001600160a01b031690506040518060e00160405280826001600160a01b03168152602001826001600160a01b03166317d70f7c6040518163ffffffff1660e01b8152600401602060405180830381865afa158015611dd3573d6000803e3d6000fd5b505050506040513d601f19601f82011682018060405250810190611df79190612d4f565b8152602001826001600160a01b031663c19d93fb6040518163ffffffff1660e01b8152600401602060405180830381865afa158015611e3a573d6000803e3d6000fd5b505050506040513d601f19601f82011682018060405250810190611e5e9190612c5d565b6002811115611e6f57611e6f612906565b8152602001826001600160a01b031663734b2a7c6040518163ffffffff1660e01b8152600401602060405180830381865afa158015611eb2573d6000803e3d6000fd5b505050506040513d601f19601f82011682018060405250810190611ed69190612d4f565b8152602001826001600160a01b031663343540686040518163ffffffff1660e01b8152600401602060405180830381865afa158015611f19573d6000803e3d6000fd5b505050506040513d601f19601f82011682018060405250810190611f3d9190612d4f565b8152602001826001600160a01b031663913b722c6040518163ffffffff1660e01b8152600401600060405180830381865afa158015611f80573d6000803e3d6000fd5b505050506040513d6000823e601f3d908101601f19168201604052611fa89190810190613097565b8152602001826001600160a01b0316633d370b4e6040518163ffffffff1660e01b8152600401600060405180830381865afa158015611feb573d6000803e3d6000fd5b505050506040513d6000823e601f3d908101601f19168201604052612013919081019061313a565b90529392505050565b61202461232c565b600060055460ff16600381111561203d5761203d612906565b1461205b5760405163c56396c160e01b815260040160405180910390fd5b6005805460ff19166003908117909155546001600160a01b03161580159061218557506003546040805163c19d93fb60e01b815290516000926001600160a01b03169163c19d93fb9160048083019260209291908290030181865afa1580156120c8573d6000803e3d6000fd5b505050506040513d601f19601f820116820180604052508101906120ec9190612d68565b60038111156120fd576120fd612906565b148061218557506003546040805163c19d93fb60e01b815290516001926001600160a01b03169163c19d93fb9160048083019260209291908290030181865afa15801561214e573d6000803e3d6000fd5b505050506040513d601f19601f820116820180604052508101906121729190612d68565b600381111561218357612183612906565b145b156121f357600360009054906101000a90046001600160a01b03166001600160a01b031663ea8a1af06040518163ffffffff1660e01b8152600401600060405180830381600087803b1580156121da57600080fd5b505af11580156121ee573d6000803e3d6000fd5b505050505b6040517f67bf688eab66645873ad05ef269035a996665a0d3f1e4fe0d58a864e3c5ecd4890600090a1565b6004546060906001600160401b0381111561223b5761223b612d89565b6040519080825280602002602001820160405280156122ac57816020015b6122996040805160e08101825260008082526020820181905290918201908152602001600081526020016000815260200160608152602001606081525090565b8152602001906001900390816122595790505b50905060005b6004548110156122ea576122c581611d06565b8282815181106122d7576122d7612c47565b60209081029190910101526001016122b2565b5090565b6122f661232c565b6001600160a01b03811661232057604051631e4fbdf760e01b81526000600482015260240161068c565b612329816124b4565b50565b6000546001600160a01b03163314610d6e5760405163118cdaa760e01b815233600482015260240161068c565b6003546000906001600160a01b0316158015906123e15750600354604080516331711d1360e21b815290516000926001600160a01b03169163c5c4744c9160048083019260209291908290030181865afa1580156123bb573d6000803e3d6000fd5b505050506040513d601f19601f820116820180604052508101906123df9190612d4f565b115b905090565b6002546040516376aed2e160e01b8152600481018390526000916001600160a01b0316906376aed2e190602401600060405180830381865afa158015612430573d6000803e3d6000fd5b505050506040513d6000823e601f3d908101601f191682016040526124589190810190612e6d565b6040810151909150156124b057600061247083612504565b905081604001518111156124ae576040808301519051633e39af0560e11b81526004810185905260248101839052604481019190915260640161068c565b505b5050565b600080546001600160a01b038381166001600160a01b0319831681178455604051919092169283917f8be0079c531659141344cd1fd0a4f28419497f9722a3daafe3b4186f6b6457e09190a35050565b6000805b6004548110156126275760006004828154811061252757612527612c47565b9060005260206000200160009054906101000a90046001600160a01b0316905083816001600160a01b03166317d70f7c6040518163ffffffff1660e01b8152600401602060405180830381865afa158015612586573d6000803e3d6000fd5b505050506040513d601f19601f820116820180604052508101906125aa9190612d4f565b0361261e57806001600160a01b031663343540686040518163ffffffff1660e01b8152600401602060405180830381865afa1580156125ed573d6000803e3d6000fd5b505050506040513d601f19601f820116820180604052508101906126119190612d4f565b61261b90846131c5565b92505b50600101612508565b50919050565b60005b83811015612648578181015183820152602001612630565b50506000910152565b6000815180845261266981602086016020860161262d565b601f01601f19169290920160200192915050565b6020815260006126906020830184612651565b9392505050565b6000602082840312156126a957600080fd5b5035919050565b60008083601f8401126126c257600080fd5b5081356001600160401b038111156126d957600080fd5b6020830191508360208260051b85010111156126f457600080fd5b9250929050565b60008060008060006060868803121561271357600080fd5b8535945060208601356001600160401b0381111561273057600080fd5b61273c888289016126b0565b90955093505060408601356001600160401b0381111561275b57600080fd5b612767888289016126b0565b969995985093965092949392505050565b6000806040838503121561278b57600080fd5b50508035926020909101359150565b6000806000604084860312156127af57600080fd5b8335925060208401356001600160401b038111156127cc57600080fd5b6127d8868287016126b0565b9497909650939450505050565b60008083601f8401126127f757600080fd5b5081356001600160401b0381111561280e57600080fd5b6020830191508360208285010111156126f457600080fd5b801515811461232957600080fd5b600080600080600080600080600060c08a8c03121561285257600080fd5b89356001600160401b0381111561286857600080fd5b6128748c828d016127e5565b909a5098505060208a01356001600160401b0381111561289357600080fd5b61289f8c828d016127e5565b90985096505060408a0135945060608a01356001600160401b038111156128c557600080fd5b6128d18c828d016127e5565b90955093505060808a01356128e581612826565b915060a08a01356128f581612826565b809150509295985092959850929598565b634e487b7160e01b600052602160045260246000fd5b6004811061232957612329612906565b81516001600160a01b031681526020808301519082015260408083015190820152606082015160a08201906129608161291c565b806060840152506080830151608083015292915050565b602081016129848361291c565b91905290565b6000602082016020835280845180835260408501915060408160051b86010192506020860160005b82811015612a6d57603f19878603018452815180518652602081015161010060208801526129e4610100880182612651565b9050604082015187820360408901526129fd8282612651565b915050606082015160608801526080820151608088015260a082015187820360a0890152612a2b8282612651565b91505060c0820151612a4160c089018215159052565b5060e08201519150612a5760e088018315159052565b95505060209384019391909101906001016129b2565b50929695505050505050565b600081518084526020840193506020830160005b82811015612ab45781516001600160a01b0316865260209586019590910190600101612a8d565b5093949350505050565b600081518084526020840193506020830160005b82811015612ab4578151865260209586019590910190600101612ad2565b80516001600160a01b0316825260208082015190830152604081015160009060038110612b1f57612b1f612906565b80604085015250606082015160608401526080820151608084015260a082015160e060a0850152612b5360e0850182612a79565b905060c083015184820360c0860152612b6c8282612abe565b95945050505050565b6020815260006126906020830184612af0565b6000602082016020835280845180835260408501915060408160051b86010192506020860160005b82811015612a6d57603f19878603018452612bcc858351612af0565b94506020938401939190910190600101612bb0565b6001600160a01b038116811461232957600080fd5b600060208284031215612c0857600080fd5b813561269081612be1565b600181811c90821680612c2757607f821691505b60208210810361262757634e487b7160e01b600052602260045260246000fd5b634e487b7160e01b600052603260045260246000fd5b600060208284031215612c6f57600080fd5b81516003811061269057600080fd5b634e487b7160e01b600052601160045260246000fd5b81810381811115612ca757612ca7612c7e565b92915050565b634e487b7160e01b600052603160045260246000fd5b81835260208301925060008160005b84811015612ab4578135612ce581612be1565b6001600160a01b031686526020958601959190910190600101612cd2565b604081526000612d17604083018688612cc3565b82810360208401528381526001600160fb1b03841115612d3657600080fd5b8360051b80866020840137016020019695505050505050565b600060208284031215612d6157600080fd5b5051919050565b600060208284031215612d7a57600080fd5b81516004811061269057600080fd5b634e487b7160e01b600052604160045260246000fd5b60405160c081016001600160401b0381118282101715612dc157612dc1612d89565b60405290565b604051601f8201601f191681016001600160401b0381118282101715612def57612def612d89565b604052919050565b600082601f830112612e0857600080fd5b81516001600160401b03811115612e2157612e21612d89565b612e34601f8201601f1916602001612dc7565b818152846020838601011115612e4957600080fd5b612e5a82602083016020870161262d565b949350505050565b805161102481612826565b600060208284031215612e7f57600080fd5b81516001600160401b03811115612e9557600080fd5b820160c08185031215612ea757600080fd5b612eaf612d9f565b81516001600160401b03811115612ec557600080fd5b612ed186828501612df7565b82525060208201516001600160401b03811115612eed57600080fd5b612ef986828501612df7565b6020830152506040828101519082015260608083015190820152612f1f60808301612e62565b6080820152612f3060a08301612e62565b60a0820152949350505050565b600060208284031215612f4f57600080fd5b815161269081612be1565b602081526000612e5a602083018486612cc3565b81835281816020850137506000828201602090810191909152601f909101601f19169091010190565b60c081526000612fab60c083018b8d612f6e565b8281036020840152612fbe818a8c612f6e565b90508760408401528281036060840152612fd9818789612f6e565b9415156080840152505090151560a090910152979650505050505050565b60a08152600061300b60a08301898b612f6e565b828103602084015261301e81888a612f6e565b6040840196909652505091151560608301521515608090910152949350505050565b60006020828403121561305257600080fd5b81516001600160401b0381111561306857600080fd5b612e5a84828501612df7565b60006001600160401b0382111561308d5761308d612d89565b5060051b60200190565b6000602082840312156130a957600080fd5b81516001600160401b038111156130bf57600080fd5b8201601f810184136130d057600080fd5b80516130e36130de82613074565b612dc7565b8082825260208201915060208360051b85010192508683111561310557600080fd5b6020840193505b8284101561313057835161311f81612be1565b82526020938401939091019061310c565b9695505050505050565b60006020828403121561314c57600080fd5b81516001600160401b0381111561316257600080fd5b8201601f8101841361317357600080fd5b80516131816130de82613074565b8082825260208201915060208360051b8501019250868311156131a357600080fd5b6020840193505b828410156131305783518252602093840193909101906131aa565b80820180821115612ca757612ca7612c7e56fea2646970667358221220ae430c4ea18250f494e1b5e736d29cf8e5b6edaa992294e17f8e1f6f85f6c72a64736f6c634300081e0033a26469706673582212209a9801d36f3f28b73e0c1483555829a48e4758fb25f640108092d037de8d1d7064736f6c634300081e0033",
  "devdoc": {
    "errors": {
      "OwnableInvalidOwner(address)": [
        {
          "details": "The owner is not a valid owner account. (eg. `address(0)`)"
        }
      ],
      "OwnableUnauthorizedAccount(address)": [
        {
          "details": "The caller account is not authorized to perform an operation."
        }
      ]
    },
    "kind": "dev",
    "methods": {
      "owner()": {
        "details": "Returns the address of the current owner."
      },
      "renounceOwnership()": {
        "details": "Leaves the contract without owner. It will not be possible to call `onlyOwner` functions. Can only be called by the current owner. NOTE: Renouncing ownership will leave the contract without an owner, thereby disabling any functionality that is only available to the owner."
      },
      "transferOwnership(address)": {
        "details": "Transfers ownership of the contract to a new account (`newOwner`). Can only be called by the current owner."
      }
    },
    "title": "CGProgramFactory — Deploys CGProgram instances",
    "version": 1
  },
  "userdoc": {
    "kind": "user",
    "methods": {
      "authorizeCaller(address,bool)": {
        "notice": "Authorize or deauthorize a caller (e.g. a CGOrganization). Only callable by owner (CGRegistry)."
      },
      "createProgram(address,string,bool)": {
        "notice": "Deploy a new CGProgram. Only callable by authorized callers."
      }
    },
    "notice": "Only authorized callers (CGOrganizations created via CGRegistry) can use createProgram.         Ownership should be transferred to CGRegistry after deployment.         A shared CGComponentFactory is injected so CGProgram never uses `new` directly,         keeping every contract under the 24 KB Spurious Dragon limit.",
    "version": 1
  },
  "storageLayout": {
    "storage": [
      {
        "astId": 8,
        "contract": "contracts/CGProgramFactory.sol:CGProgramFactory",
        "label": "_owner",
        "offset": 0,
        "slot": "0",
        "type": "t_address"
      },
      {
        "astId": 6295,
        "contract": "contracts/CGProgramFactory.sol:CGProgramFactory",
        "label": "authorizedCallers",
        "offset": 0,
        "slot": "1",
        "type": "t_mapping(t_address,t_bool)"
      }
    ],
    "types": {
      "t_address": {
        "encoding": "inplace",
        "label": "address",
        "numberOfBytes": "20"
      },
      "t_bool": {
        "encoding": "inplace",
        "label": "bool",
        "numberOfBytes": "1"
      },
      "t_mapping(t_address,t_bool)": {
        "encoding": "mapping",
        "key": "t_address",
        "label": "mapping(address => bool)",
        "numberOfBytes": "32",
        "value": "t_bool"
      }
    }
  }
}