{
  "address": "0xE9440951e75CfF532Facac87A9914479C647e84C",
  "abi": [
    {
      "inputs": [
        {
          "internalType": "contract CGProgramFactory",
          "name": "programFactory_",
          "type": "address"
        }
      ],
      "stateMutability": "nonpayable",
      "type": "constructor"
    },
    {
      "inputs": [],
      "name": "EmptyName",
      "type": "error"
    },
    {
      "inputs": [
        {
          "internalType": "address",
          "name": "owner",
          "type": "address"
        }
      ],
      "name": "OwnableInvalidOwner",
      "type": "error"
    },
    {
      "inputs": [
        {
          "internalType": "address",
          "name": "account",
          "type": "address"
        }
      ],
      "name": "OwnableUnauthorizedAccount",
      "type": "error"
    },
    {
      "inputs": [],
      "name": "ZeroAddress",
      "type": "error"
    },
    {
      "anonymous": false,
      "inputs": [
        {
          "indexed": true,
          "internalType": "address",
          "name": "organization",
          "type": "address"
        },
        {
          "indexed": true,
          "internalType": "address",
          "name": "owner",
          "type": "address"
        },
        {
          "indexed": false,
          "internalType": "string",
          "name": "name",
          "type": "string"
        }
      ],
      "name": "OrganizationCreated",
      "type": "event"
    },
    {
      "anonymous": false,
      "inputs": [
        {
          "indexed": true,
          "internalType": "address",
          "name": "previousOwner",
          "type": "address"
        },
        {
          "indexed": true,
          "internalType": "address",
          "name": "newOwner",
          "type": "address"
        }
      ],
      "name": "OwnershipTransferred",
      "type": "event"
    },
    {
      "inputs": [
        {
          "internalType": "string",
          "name": "name_",
          "type": "string"
        },
        {
          "internalType": "address",
          "name": "owner_",
          "type": "address"
        }
      ],
      "name": "createOrganization",
      "outputs": [
        {
          "internalType": "address",
          "name": "",
          "type": "address"
        }
      ],
      "stateMutability": "nonpayable",
      "type": "function"
    },
    {
      "inputs": [
        {
          "internalType": "uint256",
          "name": "offset",
          "type": "uint256"
        },
        {
          "internalType": "uint256",
          "name": "limit",
          "type": "uint256"
        }
      ],
      "name": "getOrganizations",
      "outputs": [
        {
          "internalType": "address[]",
          "name": "",
          "type": "address[]"
        }
      ],
      "stateMutability": "view",
      "type": "function"
    },
    {
      "inputs": [
        {
          "internalType": "address",
          "name": "",
          "type": "address"
        }
      ],
      "name": "isOrganization",
      "outputs": [
        {
          "internalType": "bool",
          "name": "",
          "type": "bool"
        }
      ],
      "stateMutability": "view",
      "type": "function"
    },
    {
      "inputs": [],
      "name": "organizationCount",
      "outputs": [
        {
          "internalType": "uint256",
          "name": "",
          "type": "uint256"
        }
      ],
      "stateMutability": "view",
      "type": "function"
    },
    {
      "inputs": [
        {
          "internalType": "uint256",
          "name": "",
          "type": "uint256"
        }
      ],
      "name": "organizations",
      "outputs": [
        {
          "internalType": "address",
          "name": "",
          "type": "address"
        }
      ],
      "stateMutability": "view",
      "type": "function"
    },
    {
      "inputs": [],
      "name": "owner",
      "outputs": [
        {
          "internalType": "address",
          "name": "",
          "type": "address"
        }
      ],
      "stateMutability": "view",
      "type": "function"
    },
    {
      "inputs": [],
      "name": "programFactory",
      "outputs": [
        {
          "internalType": "contract CGProgramFactory",
          "name": "",
          "type": "address"
        }
      ],
      "stateMutability": "view",
      "type": "function"
    },
    {
      "inputs": [],
      "name": "renounceOwnership",
      "outputs": [],
      "stateMutability": "nonpayable",
      "type": "function"
    },
    {
      "inputs": [
        {
          "internalType": "address",
          "name": "newOwner",
          "type": "address"
        }
      ],
      "name": "transferOwnership",
      "outputs": [],
      "stateMutability": "nonpayable",
      "type": "function"
    }
  ],
  "transactionHash": "0x1b0c15fa7d468db522ab3d275c1a42745bd0fdd756f75bd9524a101436117a15",
  "args": [
    "0xdf32E8a18E850972D0995EEE1170b8Ea59Ba59fE"
  ],
  "numDeployments": 1,
  "solcInputHash": "0b9d020a859d3048c6de53979f2f83e8",
  "bytecode": "0x60a060405234801561001057600080fd5b5060405161157938038061157983398101604081905261002f916100c0565b338061005557604051631e4fbdf760e01b81526000600482015260240160405180910390fd5b61005e81610070565b506001600160a01b03166080526100f0565b600080546001600160a01b038381166001600160a01b0319831681178455604051919092169283917f8be0079c531659141344cd1fd0a4f28419497f9722a3daafe3b4186f6b6457e09190a35050565b6000602082840312156100d257600080fd5b81516001600160a01b03811681146100e957600080fd5b9392505050565b6080516114616101186000396000818160c60152818161030701526103e001526114616000f3fe608060405234801561001057600080fd5b50600436106100935760003560e01c80638da5cb5b116100665780638da5cb5b1461011d578063b1ce8eab1461012e578063e792dd8a14610161578063f1c6210414610174578063f2fde38b1461018557600080fd5b806310056c5a1461009857806336bde41c146100c157806369cbf44f14610100578063715018a614610113575b600080fd5b6100ab6100a636600461059d565b610198565b6040516100b891906105bf565b60405180910390f35b6100e87f000000000000000000000000000000000000000000000000000000000000000081565b6040516001600160a01b0390911681526020016100b8565b6100e861010e366004610627565b6102ad565b61011b610492565b005b6000546001600160a01b03166100e8565b61015161013c3660046106aa565b60026020526000908152604090205460ff1681565b60405190151581526020016100b8565b6100e861016f3660046106cc565b6104a6565b6001546040519081526020016100b8565b61011b6101933660046106aa565b6104d0565b6001546060908084106101bb5750506040805160008152602081019091526102a7565b60006101c78486610711565b9050818111156101d45750805b60006101e08683610724565b905060008167ffffffffffffffff8111156101fd576101fd6106e5565b604051908082528060200260200182016040528015610226578160200160208202803683370190505b50905060005b828110156102a0576001610240828a610711565b8154811061025057610250610737565b9060005260206000200160009054906101000a90046001600160a01b031682828151811061028057610280610737565b6001600160a01b039092166020928302919091019091015260010161022c565b5093505050505b92915050565b60006102b7610513565b60008390036102d957604051632ef1310560e01b815260040160405180910390fd5b6001600160a01b0382166103005760405163d92e233d60e01b815260040160405180910390fd5b60008285857f000000000000000000000000000000000000000000000000000000000000000060405161033290610590565b61033f9493929190610776565b604051809103906000f08015801561035b573d6000803e3d6000fd5b506001805480820182557fb10e2d527612073b26eecdfd717e6a320cf44b4afac2b0732d9fcbe2b7fa0cf60180546001600160a01b0319166001600160a01b0384811691821790925560008181526002602052604090819020805460ff19168517905551631f98abcb60e31b81526004810191909152602481019290925291925082917f0000000000000000000000000000000000000000000000000000000000000000169063fcc55e5890604401600060405180830381600087803b15801561042457600080fd5b505af1158015610438573d6000803e3d6000fd5b50505050836001600160a01b0316816001600160a01b03167f033570404994c2586c43c3a7137b2a8ff27a656ae42e1898cd08629acdb5a2ca88886040516104819291906107b4565b60405180910390a395945050505050565b61049a610513565b6104a46000610540565b565b600181815481106104b657600080fd5b6000918252602090912001546001600160a01b0316905081565b6104d8610513565b6001600160a01b03811661050757604051631e4fbdf760e01b8152600060048201526024015b60405180910390fd5b61051081610540565b50565b6000546001600160a01b031633146104a45760405163118cdaa760e01b81523360048201526024016104fe565b600080546001600160a01b038381166001600160a01b0319831681178455604051919092169283917f8be0079c531659141344cd1fd0a4f28419497f9722a3daafe3b4186f6b6457e09190a35050565b610c5b806107d183390190565b600080604083850312156105b057600080fd5b50508035926020909101359150565b602080825282518282018190526000918401906040840190835b818110156106005783516001600160a01b03168352602093840193909201916001016105d9565b509095945050505050565b80356001600160a01b038116811461062257600080fd5b919050565b60008060006040848603121561063c57600080fd5b833567ffffffffffffffff81111561065357600080fd5b8401601f8101861361066457600080fd5b803567ffffffffffffffff81111561067b57600080fd5b86602082840101111561068d57600080fd5b6020918201945092506106a190850161060b565b90509250925092565b6000602082840312156106bc57600080fd5b6106c58261060b565b9392505050565b6000602082840312156106de57600080fd5b5035919050565b634e487b7160e01b600052604160045260246000fd5b634e487b7160e01b600052601160045260246000fd5b808201808211156102a7576102a76106fb565b818103818111156102a7576102a76106fb565b634e487b7160e01b600052603260045260246000fd5b81835281816020850137506000828201602090810191909152601f909101601f19169091010190565b6001600160a01b038516815260606020820181905260009061079b908301858761074d565b905060018060a01b038316604083015295945050505050565b6020815260006107c860208301848661074d565b94935050505056fe60a060405234801561001057600080fd5b50604051610c5b380380610c5b83398101604081905261002f91610117565b826001600160a01b03811661005e57604051631e4fbdf760e01b81526000600482015260240160405180910390fd5b61006781610089565b5060016100748382610290565b506001600160a01b03166080525061034e9050565b600080546001600160a01b038381166001600160a01b0319831681178455604051919092169283917f8be0079c531659141344cd1fd0a4f28419497f9722a3daafe3b4186f6b6457e09190a35050565b6001600160a01b03811681146100ee57600080fd5b50565b634e487b7160e01b600052604160045260246000fd5b8051610112816100d9565b919050565b60008060006060848603121561012c57600080fd5b8351610137816100d9565b60208501519093506001600160401b0381111561015357600080fd5b8401601f8101861361016457600080fd5b80516001600160401b0381111561017d5761017d6100f1565b604051601f8201601f19908116603f011681016001600160401b03811182821017156101ab576101ab6100f1565b6040528181528282016020018810156101c357600080fd5b60005b828110156101e2576020818501810151838301820152016101c6565b506000602083830101528094505050506101fe60408501610107565b90509250925092565b600181811c9082168061021b57607f821691505b60208210810361023b57634e487b7160e01b600052602260045260246000fd5b50919050565b601f82111561028b57806000526020600020601f840160051c810160208510156102685750805b601f840160051c820191505b818110156102885760008155600101610274565b50505b505050565b81516001600160401b038111156102a9576102a96100f1565b6102bd816102b78454610207565b84610241565b6020601f8211600181146102f157600083156102d95750848201515b600019600385901b1c1916600184901b178455610288565b600084815260208120601f198516915b828110156103215787850151825560209485019460019092019101610301565b508482101561033f5786840151600019600387901b60f8161c191681555b50505050600190811b01905550565b6080516108eb6103706000396000818161011501526103c501526108eb6000f3fe608060405234801561001057600080fd5b506004361061009e5760003560e01c80638da5cb5b116100665780638da5cb5b1461015957806392db28161461016a5780639f7966341461017d578063e3cdc2661461018e578063f2fde38b146101a157600080fd5b806301a2cd58146100a357806306fdde03146100db5780631e94abdf146100f057806336bde41c14610110578063715018a61461014f575b600080fd5b6100c66100b13660046105eb565b60036020526000908152604090205460ff1681565b60405190151581526020015b60405180910390f35b6100e36101b4565b6040516100d2919061060f565b6101036100fe36600461065d565b610242565b6040516100d2919061067f565b6101377f000000000000000000000000000000000000000000000000000000000000000081565b6040516001600160a01b0390911681526020016100d2565b610157610357565b005b6000546001600160a01b0316610137565b6101376101783660046106cb565b61036b565b6002546040519081526020016100d2565b61013761019c3660046106e4565b610395565b6101576101af3660046105eb565b610516565b600180546101c19061076f565b80601f01602080910402602001604051908101604052809291908181526020018280546101ed9061076f565b801561023a5780601f1061020f5761010080835404028352916020019161023a565b820191906000526020600020905b81548152906001019060200180831161021d57829003601f168201915b505050505081565b600254606090808410610265575050604080516000815260208101909152610351565b600061027184866107d5565b90508181111561027e5750805b600061028a86836107e8565b905060008167ffffffffffffffff8111156102a7576102a76107a9565b6040519080825280602002602001820160405280156102d0578160200160208202803683370190505b50905060005b8281101561034a5760026102ea828a6107d5565b815481106102fa576102fa6107fb565b9060005260206000200160009054906101000a90046001600160a01b031682828151811061032a5761032a6107fb565b6001600160a01b03909216602092830291909101909101526001016102d6565b5093505050505b92915050565b61035f610559565b6103696000610586565b565b6002818154811061037b57600080fd5b6000918252602090912001546001600160a01b0316905081565b600061039f610559565b60008390036103c157604051632ef1310560e01b815260040160405180910390fd5b60007f00000000000000000000000000000000000000000000000000000000000000006001600160a01b0316638d1227c76104046000546001600160a01b031690565b8787876040518563ffffffff1660e01b8152600401610426949392919061083a565b6020604051808303816000875af1158015610445573d6000803e3d6000fd5b505050506040513d601f19601f820116820180604052508101906104699190610872565b6002805460018082019092557f405787fa12a823e0f2b7631cc41b3ba8828b3321ca811111fa75cd3aa3bb5ace0180546001600160a01b0319166001600160a01b03841690811790915560008181526003602052604090819020805460ff19169093179092559051919250907f05bb6e0d3823436dd5c93d4ab1dd07a39da5c11eb0d444579291275322a27608906105069088908890889061088f565b60405180910390a2949350505050565b61051e610559565b6001600160a01b03811661054d57604051631e4fbdf760e01b8152600060048201526024015b60405180910390fd5b61055681610586565b50565b6000546001600160a01b031633146103695760405163118cdaa760e01b8152336004820152602401610544565b600080546001600160a01b038381166001600160a01b0319831681178455604051919092169283917f8be0079c531659141344cd1fd0a4f28419497f9722a3daafe3b4186f6b6457e09190a35050565b6001600160a01b038116811461055657600080fd5b6000602082840312156105fd57600080fd5b8135610608816105d6565b9392505050565b602081526000825180602084015260005b8181101561063d5760208186018101516040868401015201610620565b506000604082850101526040601f19601f83011684010191505092915050565b6000806040838503121561067057600080fd5b50508035926020909101359150565b602080825282518282018190526000918401906040840190835b818110156106c05783516001600160a01b0316835260209384019390920191600101610699565b509095945050505050565b6000602082840312156106dd57600080fd5b5035919050565b6000806000604084860312156106f957600080fd5b833567ffffffffffffffff81111561071057600080fd5b8401601f8101861361072157600080fd5b803567ffffffffffffffff81111561073857600080fd5b86602082840101111561074a57600080fd5b602091820194509250840135801515811461076457600080fd5b809150509250925092565b600181811c9082168061078357607f821691505b6020821081036107a357634e487b7160e01b600052602260045260246000fd5b50919050565b634e487b7160e01b600052604160045260246000fd5b634e487b7160e01b600052601160045260246000fd5b80820180821115610351576103516107bf565b81810381811115610351576103516107bf565b634e487b7160e01b600052603260045260246000fd5b81835281816020850137506000828201602090810191909152601f909101601f19169091010190565b6001600160a01b038516815260606020820181905260009061085f9083018587610811565b9050821515604083015295945050505050565b60006020828403121561088457600080fd5b8151610608816105d6565b6040815260006108a3604083018587610811565b9050821515602083015294935050505056fea2646970667358221220e170092ca97d3801ced9074ef3274560ce8d6a505082f8cd3c981958ed680ba064736f6c634300081e0033a264697066735822122035fb7d53e13d944b42d08fa6ed563612ddb3400fe420f5d0a1c434db3a011b8564736f6c634300081e0033",
  "devdoc": {
    "errors": {
      "OwnableInvalidOwner(address)": [
        {
          "details": "The owner is not a valid owner account. (eg. `address(0)`)"
        }
      ],
      "OwnableUnauthorizedAccount(address)": [
        {
          "details": "The caller account is not authorized to perform an operation."
        }
      ]
    },
    "kind": "dev",
    "methods": {
      "owner()": {
        "details": "Returns the address of the current owner."
      },
      "renounceOwnership()": {
        "details": "Leaves the contract without owner. It will not be possible to call `onlyOwner` functions. Can only be called by the current owner. NOTE: Renouncing ownership will leave the contract without an owner, thereby disabling any functionality that is only available to the owner."
      },
      "transferOwnership(address)": {
        "details": "Transfers ownership of the contract to a new account (`newOwner`). Can only be called by the current owner."
      }
    },
    "title": "CGRegistry — Directory of all CGOrganization instances",
    "version": 1
  },
  "userdoc": {
    "kind": "user",
    "methods": {
      "createOrganization(string,address)": {
        "notice": "Deploy a new CGOrganization with the given owner. Only callable by registry owner."
      },
      "getOrganizations(uint256,uint256)": {
        "notice": "Paginated read of organization addresses."
      }
    },
    "notice": "Only the registry owner (deployer) can create organizations.",
    "version": 1
  },
  "storageLayout": {
    "storage": [
      {
        "astId": 8,
        "contract": "contracts/CGRegistry.sol:CGRegistry",
        "label": "_owner",
        "offset": 0,
        "slot": "0",
        "type": "t_address"
      },
      {
        "astId": 6415,
        "contract": "contracts/CGRegistry.sol:CGRegistry",
        "label": "organizations",
        "offset": 0,
        "slot": "1",
        "type": "t_array(t_address)dyn_storage"
      },
      {
        "astId": 6419,
        "contract": "contracts/CGRegistry.sol:CGRegistry",
        "label": "isOrganization",
        "offset": 0,
        "slot": "2",
        "type": "t_mapping(t_address,t_bool)"
      }
    ],
    "types": {
      "t_address": {
        "encoding": "inplace",
        "label": "address",
        "numberOfBytes": "20"
      },
      "t_array(t_address)dyn_storage": {
        "base": "t_address",
        "encoding": "dynamic_array",
        "label": "address[]",
        "numberOfBytes": "32"
      },
      "t_bool": {
        "encoding": "inplace",
        "label": "bool",
        "numberOfBytes": "1"
      },
      "t_mapping(t_address,t_bool)": {
        "encoding": "mapping",
        "key": "t_address",
        "label": "mapping(address => bool)",
        "numberOfBytes": "32",
        "value": "t_bool"
      }
    }
  }
}